:1000000098190020410200007D0200004103000019
:100010008102000083020000850200000000000051
:100020000000000000000000000000008702000047
:100030008902000000000000BF0200002F1A00002B
:10004000FD5900008F020000A9560000AD2B0000F2
:10005000C52B00008F020000596A00007D3C0000A3
:10006000B12000008F020000CD20000055410000AB
:100070008F020000452100008F0200008F02000067
:100080008F0200006D4100008F0200008F0200000F
:100090008F0200008F0200008F0200008F0200001C
:1000A0008F0200008F0200008F0200008F0200000C
:1000B0000D7500008F02000000000000000000002D
:1000C0008F0200008F0200008F020000DD2B000075
:1000D000854100008F0200008F0200000000000038
:1000E0000000000000000000000000000000000010
:1000F0000000000000000000000000000000000000
:1001000000000000000000000000000000000000EF
:1001100000000000000000000000000000000000DF
:1001200000000000000000000000000000000000CF
:1001300000000000000000000000000000000000BF
:1001400000000000000000000000000000000000AF
:10015000000000000000000000000000000000009F
:10016000000000000000000000000000000000008F
:10017000000000000000000000000000000000007F
:10018000000000000000000000000000000000006F
:10019000000000000000000000000000000000005F
:1001A000000000000000000000000000000000004F
:1001B000000000000000000000000000000000003F
:1001C000000000000000000000000000000000002F
:1001D000000000000000000000000000000000001F
:1001E000000000000000000000000000000000000F
:1001F00000000000000000000000000000000000FF
:1002000010B5054C237833B9044B13B10448AFF350
:1002100000800123237010BD981900200000000009
:1002200020E1010008B5034B1BB103490348AFF3BC
:10023000008008BD000000009C19002020E10100A2
:100240000A490B4A0B4B9B1A03DD043BC858D0509C
:10025000FBDC0849084A0020521A02DD043A8850A3
:10026000FCDC04F0B3FA08F0CDF8000028E101004E
:10027000000000209819002080270020FEE7FEE7FC
:10028000FEE7FEE7FEE7FEE7FEE7FEE7FEE7FEE746
:10029000EFF3108072B6704780F310887047364ACB
:1002A0001368012B04D04FF001031360334A106030
:1002B000334A116033484FF0805101607047EFF3CB
:1002C000108272B62C48016891B14FF000010160B4
:1002D0002A48016829B1EFF3098121E9F00F00688C
:1002E0000160274909680968B1E8F00F81F30988BE
:1002F00082F310884EF0040E7047214908601F49B0
:100300004FF0000008601C494FF0010008601E48D3
:100310001E49D0F8002041EA0201016019484FF05F
:10032000805101601A480068006800BF80F30888A7
:1003300061B662B6BFF34F8FBFF36F8F704700BFD8
:10034000EFF308801EF0040F01D0EFF3098020E9DD
:10035000F00F40F804ED1EF0040F02D080F309887E
:1003600001E080F3088800B50BF076FC5DF804EB43
:100370004EF0040E704700005C2100205421002044
:100380005821002004ED00E020ED00E00000FFFF18
:1003900008ED00E000000000000000000000000088
:1003A000A2EB0300704700BF02780B78012A28BF38
:1003B0009A42F5D16DE9044540EA0104CDE90267AE
:1003C0006FF0000C4FEA447212B380EA010414F09B
:1003D000070F6AD100F0070420F0070004F00305BE
:1003E00021F007014FEAC505F0E8042314F0040FDB
:1003F000F1E804670CFA05F462EA040266EA04060E
:100400000AD063EA0403624667EA0407664603E02B
:10041000F0E80423F1E8046782FA4CF582EA060466
:10042000A4FA8CF46CBB83FA4CF583EA0705A5FAB1
:100430008CF595B950E9022351E9026782FA4CF52F
:1004400082EA0604A4FA8CF483FA4CF583EA0705E1
:10045000A5FA8CF52543DBD09CB92DBAB5FA85F405
:1004600024F0070427FA04F1DDE9026723FA04F314
:1004700003F0FF0001F0FF01FDE80445A0EB0100DF
:10048000704724BAB4FA84F424F0070426FA04F17D
:10049000DDE9026722FA04F202F0FF0001F0FF0139
:1004A000FDE80445A0EB0100704714F0030F3CD1B8
:1004B00010F0030428D150F8082B51F8083B82FAB9
:1004C0004CF582EA0305A5FA8CF55DB950F8042CC9
:1004D00051F8043C82FA4CF582EA0305A5FA8CF542
:1004E000002DE8D02DBAB5FA85F424F0070423FADC
:1004F00004F122FA04F202F0FF0001F0FF01FDE82E
:100500000445A0EB010070474FEAC40420F003004B
:1005100050F8082B21F0030151F8083B0CFA04F4C1
:1005200062EA040263EA0403C9E710F003041AD084
:10053000A1EB040120F00300E40750F8042B06D0DF
:100540000FD28B785FFAA2F4E41A06D12BB1CB78E4
:100550005FFAB2F4E41A00D11BB920465DF8104BE3
:10056000704701F1040150F8042BCC0721F003017E
:1005700051F8043B48D824D222F07F4482FA4CF54B
:1005800094EA1325A5FA8CF50AD165B951F8043B14
:1005900084EA0204B4EB036F0ED150F8042BEBE7AE
:1005A0004FEA132355E035F07F454DD10878FDE83B
:1005B0000445C0F1000070474FEA126203F0FF03E8
:1005C00047E002EA1C4482FA4CF594EA1345A5FA86
:1005D0008CF50AD165B951F8043B84EA0204B4EB06
:1005E000034F0CD150F8042BEBE74FEA134330E0F4
:1005F00015EA1C4528D10B884FEA124229E04FEA40
:10060000124203EA1C4324E002F0FF0482FA4CF594
:1006100094EA1365A5FA8CF50AD165B951F8043B43
:1006200084EA0204B4EB032F09D150F8042BEBE762
:100630004FEA13630DE015F0FF0F05D10B684FEA89
:10064000122223F07F4304E04FF00000FDE8044550
:10065000704712BA1BBA82FA4CF482EA0304A4FA75
:100660008CF5B5FA85F402FA04F203FA04F34FEAC2
:100670001260FDE80445A0EB136070470000000025
:1006800090F800F06DE9024520F007016FF0000CD2
:1006900010F0070491F820F040F049804FF000047A
:1006A0006FF00700D1E9002391F840F000F1080055
:1006B00082FA4CF2A4FA8CF283FA4CF3A2FA8CF38D
:1006C0004BBBD1E9022382FA4CF200F10800A4FAF4
:1006D0008CF283FA4CF3A2FA8CF3E3B9D1E9042348
:1006E00082FA4CF200F10800A4FA8CF283FA4CF37F
:1006F000A2FA8CF37BB9D1E9062301F1200182FA39
:100700004CF200F10800A4FA8CF283FA4CF3A2FA3E
:100710008CF3002BC6D0002A04BF04301A4612BA4C
:10072000B2FA82F2FDE8024500EBD2007047D1E94F
:10073000002304F00305C4F100004FEAC50514F0DE
:10074000040F91F840F00CFA05F562EA05021CBFAF
:1007500063EA050362464FF00004A9E781F0004117
:1007600002E000BF83F0004330B54FEA41044FEA96
:10077000430594EA050F08BF90EA020F1FBF54EA31
:10078000000C55EA020C7FEA645C7FEA655C00F0CD
:10079000E2804FEA5454D4EB5555B8BF6D420CDD9E
:1007A0002C4480EA020281EA030382EA000083EA21
:1007B000010180EA020281EA0303362D88BF30BDC1
:1007C00011F0004F4FEA01314FF4801C4CEA113117
:1007D00002D0404261EB410113F0004F4FEA033376
:1007E0004CEA133302D0524263EB430394EA050F01
:1007F00000F0A780A4F10104D5F1200E0DDB02FA70
:100800000EFC22FA05F2801841F1000103FA0EF203
:10081000801843FA05F359410EE0A5F120050EF1C9
:10082000200E012A03FA0EFC28BF4CF0020C43FAFA
:1008300005F3C01851EBE37101F0004507D54FF007
:10084000000EDCF1000C7EEB00006EEB0101B1F557
:10085000801F1BD3B1F5001F0CD349085FEA30009D
:100860004FEA3C0C04F101044FEA445212F5800FA8
:1008700080F09A80BCF1004F08BF5FEA500C50F145
:10088000000041EB045141EA050130BD5FEA4C0C28
:10089000404141EB0101013C28BFB1F5801FE9D285
:1008A00091F0000F04BF01460020B1FA81F308BFA8
:1008B0002033A3F10B03B3F120020CDA0C3208DD74
:1008C00002F1140CC2F10C0201FA0CF021FA02F14F
:1008D0000CE002F11402D8BFC2F1200C01FA02F1BF
:1008E00020FA0CFCDCBF41EA0C019040E41AA2BFE4
:1008F00001EB0451294330BD6FEA04041F3C1CDAAC
:100900000C340EDC04F11404C4F1200220FA04F0CB
:1009100001FA02F340EA030021FA04F345EA030175
:1009200030BDC4F10C04C4F1200220FA02F001FA37
:1009300004F340EA0300294630BD21FA04F02946B9
:1009400030BD94F0000F83F4801306BF81F4801152
:100950000134013D4EE77FEA645C18BF7FEA655CC5
:1009600029D094EA050F08BF90EA020F05D054EA97
:10097000000C04BF1946104630BD91EA030F1EBF9C
:100980000021002030BD5FEA545C05D140004941A0
:1009900028BF41F0004130BD14F580043CBF01F593
:1009A000801130BD01F0004545F0FE4141F4700179
:1009B0004FF0000030BD7FEA645C1ABF1946104654
:1009C0007FEA655C1CBF0B46024650EA013406BF55
:1009D00052EA033591EA030F41F4002130BD00BF14
:1009E00090F0000F04BF0021704730B54FF48064D1
:1009F00004F132044FF000054FF0000150E700BF52
:100A000090F0000F04BF0021704730B54FF48064B0
:100A100004F1320410F0004548BF40424FF000019D
:100A20003EE700BF42004FEAE2014FEA31014FEAE0
:100A300002701FBF12F07F4393F07F4F81F060512F
:100A4000704732F07F4208BF704793F07F4F04BF7A
:100A500041F40021704730B54FF4607401F0004557
:100A600021F000411CE700BF50EA010208BF7047B7
:100A700030B54FF000050AE050EA010208BF7047A8
:100A800030B511F0004502D5404261EB41014FF411
:100A9000806404F132045FEA915C3FF4D8AE4FF019
:100AA00003025FEADC0C18BF03325FEADC0C18BFFC
:100AB000033202EBDC02C2F1200300FA03FC20FA4D
:100AC00002F001FA03FE40EA0E0021FA02F114449A
:100AD000BDE600BF70B54FF0FF0C4CF4E06C1CEAB3
:100AE00011541DBF1CEA135594EA0C0F95EA0C0F24
:100AF00000F0DEF82C4481EA030621EA4C5123EA97
:100B00004C5350EA013518BF52EA033541F48011C5
:100B100043F4801338D0A0FB02CE4FF00005E1FB78
:100B200002E506F00042E0FB03E54FF00006E1FBC2
:100B300003569CF0000F18BF4EF0010EA4F1FF0405
:100B4000B6F5007F64F5407404D25FEA4E0E6D4145
:100B500046EB060642EAC62141EA55514FEAC52056
:100B600040EA5E504FEACE2EB4F1FD0C88BFBCF5D2
:100B7000E06F1ED8BEF1004F08BF5FEA500E50F183
:100B8000000041EB045170BD06F0004646EA010149
:100B900040EA020081EA0301B4EB5C04C2BFD4EB7B
:100BA0000C0541EA045170BD41F480114FF0000E74
:100BB000013C00F3AB8014F1360FDEBF002001F0E2
:100BC000004170BDC4F10004203C35DA0C341BDC5C
:100BD00004F11404C4F1200500FA05F320FA04F02E
:100BE00001FA05F240EA020001F0004221F0004162
:100BF00010EBD37021FA04F642EB06015EEA430ED5
:100C000008BF20EAD37070BDC4F10C04C4F1200504
:100C100000FA04F320FA05F001FA04F240EA0200B7
:100C200001F0004110EBD37041F100015EEA430E88
:100C300008BF20EAD37070BDC4F1200500FA05F2A8
:100C40004EEA020E20FA04F301FA05F243EA020327
:100C500021FA04F001F0004121FA04F220EA020036
:100C600000EBD3705EEA430E08BF20EAD37070BD7C
:100C700094F0000F0FD101F00046400041EB01015C
:100C800011F4801F08BF013CF7D041EA060195F03E
:100C9000000F18BF704703F00046520043EB0303F8
:100CA00013F4801F08BF013DF7D043EA06037047E5
:100CB00094EA0C0F0CEA135518BF95EA0C0F0CD0F0
:100CC00050EA410618BF52EA4306D1D181EA030136
:100CD00001F000414FF0000070BD50EA410606BF30
:100CE0001046194652EA430619D094EA0C0F02D175
:100CF00050EA013613D195EA0C0F05D152EA0336BA
:100D00001CBF104619460AD181EA030101F00041D7
:100D100041F0FE4141F470014FF0000070BD41F020
:100D2000FE4141F4780170BD70B54FF0FF0C4CF4FA
:100D3000E06C1CEA11541DBF1CEA135594EA0C0F19
:100D400095EA0C0F00F0A7F8A4EB050481EA030E66
:100D500052EA03354FEA013100F088804FEA03334D
:100D60004FF0805545EA131343EA12634FEA02221B
:100D700045EA111545EA10654FEA00260EF00041DC
:100D80009D4208BF964244F1FD0404F5407402D22E
:100D90005B084FEA3202B61A65EB03055B084FEABF
:100DA00032024FF480104FF4002CB6EB020E75EBBC
:100DB000030E22BFB61A754640EA0C005B084FEAE4
:100DC0003202B6EB020E75EB030E22BFB61A754661
:100DD00040EA5C005B084FEA3202B6EB020E75EBAC
:100DE000030E22BFB61A754640EA9C005B084FEA24
:100DF0003202B6EB020E75EB030E22BFB61A754631
:100E000040EADC0055EA060E18D04FEA051545EA1F
:100E100016754FEA06164FEAC30343EA52734FEAC8
:100E2000C2025FEA1C1CC0D111F4801F0BD141EA41
:100E300000014FF000004FF0004CB6E711F4801FA6
:100E400004BF01430020B4F1FD0C88BFBCF5E06F86
:100E50003FF6AFAEB5EB030C04BFB6EB020C5FEA96
:100E6000500C50F1000041EB045170BD0EF0004EEB
:100E70004EEA113114EB5C04C2BFD4EB0C0541EA1D
:100E8000045170BD41F480114FF0000E013C90E61A
:100E900045EA060E8DE60CEA135594EA0C0F08BFDE
:100EA00095EA0C0F3FF43BAF94EA0C0F0AD150EADD
:100EB00001347FF434AF95EA0C0F7FF425AF104670
:100EC00019462CE795EA0C0F06D152EA03353FF498
:100ED000FDAE1046194622E750EA410618BF52EA15
:100EE00043067FF4C5AE50EA41047FF40DAF52EAE9
:100EF00043057FF4EBAE12E74FEA410212F5001210
:100F000015D211D56FF47873B3EB625212D94FEA50
:100F1000C12343F0004343EA505311F0004F23FA3A
:100F200002F018BF404270474FF00000704750EA8F
:100F3000013005D111F0004008BF6FF0004070474C
:100F40004FF00000704700BF80F0004002E000BF9B
:100F500081F0004142001FBF5FEA410392EA030FA4
:100F60007FEA226C7FEA236C6AD04FEA1262D2EBEE
:100F70001363C1BFD218414048404140B8BF5B42F3
:100F8000192B88BF704710F0004F40F4000020F08C
:100F90007F4018BF404211F0004F41F4000121F0A2
:100FA0007F4118BF494292EA030F3FD0A2F10102EC
:100FB00041FA03FC10EB0C00C3F1200301FA03F12A
:100FC00000F0004302D5494260EB4000B0F5000F4D
:100FD00013D3B0F1807F06D340084FEA310102F10C
:100FE0000102FE2A51D2B1F1004F40EBC25008BFBE
:100FF00020F0010040EA03007047490040EB000088
:10100000013A28BFB0F5000FEDD2B0FA80FCACF188
:10101000080CB2EB0C0200FA0CF0AABF00EBC250B5
:1010200052421843BCBFD0401843704792F0000FA3
:1010300081F4000106BF80F400000132013BB5E7F6
:101040004FEA41037FEA226C18BF7FEA236C21D06C
:1010500092EA030F04D092F0000F08BF08467047D1
:1010600090EA010F1CBF0020704712F07F4F04D19F
:10107000400028BF40F00040704712F100723CBFB2
:1010800000F50000704700F0004343F0FE4040F4DC
:10109000000070477FEA226216BF08467FEA23639A
:1010A0000146420206BF5FEA412390EA010F40F485
:1010B000800070474FF0000304E000BF10F00043D1
:1010C00048BF40425FEA000C08BF704743F09643B8
:1010D00001464FF000001CE050EA010208BF7047D3
:1010E0004FF000030AE000BF50EA010208BF70475A
:1010F00011F0004302D5404261EB41015FEA010C6F
:1011000002BF84460146002043F0B64308BFA3F166
:101110008053A3F50003BCFA8CF2083AA3EBC25348
:1011200010DB01FA02FC634400FA02FCC2F1200267
:10113000BCF1004F20FA02F243EB020008BF20F09E
:101140000100704702F1200201FA02FCC2F1200204
:1011500050EA4C0021FA02F243EB020008BF20EAF9
:10116000DC7070474FF0FF0C1CEAD0521EBF1CEA27
:10117000D15392EA0C0F93EA0C0F6FD01A4480EA15
:10118000010C400218BF5FEA41211ED04FF00063FE
:1011900043EA501043EA5111A0FB01310CF000402A
:1011A000B1F5000F3EBF490041EAD3715B0040EA50
:1011B000010062F17F02FD2A1DD8B3F1004F40EB20
:1011C000C25008BF20F00100704790F0000F0CF0F3
:1011D000004C08BF49024CEA502040EA51207F3AB7
:1011E000C2BFD2F1FF0340EAC250704740F4000092
:1011F0004FF00003013A5DDC12F1190FDCBF00F083
:1012000000407047C2F10002410021FA02F1C2F130
:10121000200200FA02FC5FEA310040F1000053EACC
:101220004C0308BF20EADC70704792F0000F00F01A
:10123000004C02BF400010F4000F013AF9D040EA20
:101240000C0093F0000F01F0004C02BF490011F4B4
:10125000000F013BF9D041EA0C018FE70CEAD153B2
:1012600092EA0C0F18BF93EA0C0F0AD030F0004C32
:1012700018BF31F0004CD8D180EA010000F00040E6
:10128000704790F0000F17BF90F0004F084691F0A4
:10129000000F91F0004F14D092EA0C0F01D14202DE
:1012A0000FD193EA0C0F03D14B0218BF084608D1A7
:1012B00080EA010000F0004040F0FE4040F40000F1
:1012C000704740F0FE4040F4400070474FF0FF0C84
:1012D0001CEAD0521EBF1CEAD15392EA0C0F93EACB
:1012E0000C0F69D0A2EB030280EA010C49024FEA1D
:1012F000402037D04FF0805343EA111143EA1013D6
:101300000CF000408B4238BF5B0042F17D024FF48D
:10131000000C8B4224BF5B1A40EA0C00B3EB510F68
:1013200024BFA3EB510340EA5C00B3EB910F24BF51
:10133000A3EB910340EA9C00B3EBD10F24BFA3EBD6
:10134000D10340EADC001B0118BF5FEA1C1CE0D19E
:10135000FD2A3FF650AF8B4240EBC25008BF20F051
:10136000010070470CF0004C4CEA50207F32C2BFA5
:10137000D2F1FF0340EAC250704740F400004FF042
:101380000003013A37E792F0000F00F0004C02BF73
:10139000400010F4000F013AF9D040EA0C0093F03D
:1013A000000F01F0004C02BF490011F4000F013B97
:1013B000F9D041EA0C0195E70CEAD15392EA0C0FFF
:1013C00008D142027FF47DAF93EA0C0F7FF470AF37
:1013D000084676E793EA0C0F04D14B023FF44CAF7A
:1013E00008466EE730F0004C18BF31F0004CCAD10F
:1013F00030F000427FF45CAF31F000437FF43CAF4B
:101400005FE700BF4FF0FF3C06E000BF4FF0010C6C
:1014100002E000BF4FF0010C4DF804CD4FEA40024E
:101420004FEA41037FEA226C18BF7FEA236C11D098
:1014300001B052EA530C18BF90EA010F58BFB2EB4B
:10144000030088BFC81738BF6FEAE17018BF40F0CB
:10145000010070477FEA226C02D15FEA402C05D17F
:101460007FEA236CE4D15FEA412CE1D05DF8040B04
:10147000704700BF844608466146FFE70FB5FFF797
:10148000C9FF002848BF10F1000F0FBD4DF808ED4F
:10149000FFF7F4FF0CBF012000205DF808FB00BF40
:1014A0004DF808EDFFF7EAFF34BF012000205DF89A
:1014B00008FB00BF4DF808EDFFF7E0FF94BF0120E7
:1014C00000205DF808FB00BF4DF808EDFFF7D2FFE4
:1014D00094BF012000205DF808FB00BF4DF808ED27
:1014E000FFF7C8FF34BF012000205DF808FB00BFF4
:1014F0004FEA4002B2F1FE4F0FD34FF09E03B3EB21
:1015000012620DD94FEA002343F0004310F0004F60
:1015100023FA02F018BF404270474FF000007047B6
:1015200012F1610F01D1420205D110F0004008BF55
:101530006FF0004070474FF00000704742000ED23D
:10154000B2F1FE4F0BD34FF09E03B3EB126209D4FE
:101550004FEA002343F0004323FA02F070474FF0B4
:101560000000704712F1610F01D1420202D14FF029
:10157000FF3070474FF00000704700BF7BB972B971
:101580000029BEBF00204FF0004106E008BF002840
:101590001CBF6FF000414FF0FF3000F0BFB9ADF15C
:1015A000080C6DE904CE002909DB002B1ADB00F0E2
:1015B0004DF8DDF804E0DDE9022304B07047404255
:1015C00061EB4101002B1BDB00F040F8DDF804E08B
:1015D000DDE9022304B0404261EB4101524263EB7A
:1015E00043037047524263EB430300F02FF8DDF8EA
:1015F00004E0DDE9022304B0404261EB41017047A1
:10160000524263EB430300F021F8DDF804E0DDE92A
:10161000022304B0524263EB4303704753B94AB903
:10162000002908BF00281CBF4FF0FF314FF0FF30EA
:1016300000F074B9ADF1080C6DE904CE00F006F8C5
:10164000DDF804E0DDE9022304B070472DE9F0473E
:10165000089E0D4604468846002B4DD18A4294468A
:1016600068D9B2FA82F252B101FA02F3C2F1200152
:1016700020FA01F10CFA02FC41EA030894404FEA17
:101680001C45210CB8FBF5FE1FFA8CF705FB1E83E9
:1016900041EA03430EFB07F199420BD91CEB03030C
:1016A0000EF1FF3080F01E81994240F21B81AEF1B5
:1016B000020E63445B1AA4B2B3FBF5F005FB1033D2
:1016C00044EA034400FB07F7A7420AD91CEB0404D1
:1016D00000F1FF3380F00881A74240F205816444A5
:1016E0000238E41B40EA0E4000211EB1D440002322
:1016F000C6E90043BDE8F0878B4208D9002E00F010
:10170000EE800021C6E900050846BDE8F087B3FA7F
:1017100083F100294AD1AB4202D3824200F2F98020
:10172000841A65EB030301209846002EE2D0C6E937
:101730000048DFE702B9FFDEB2FA82F2002A40F089
:101740009180A1EB0C054FEA1C471FFA8CFE01218A
:10175000B5FBF7F307FB1350250C45EA00450EFBDC
:1017600003F0A84208D91CEB050503F1FF3802D2AB
:10177000A84200F2CB8043462D1AA4B2B5FBF7F085
:1017800007FB105544EA05440EFB00FEA64508D9A8
:101790001CEB040400F1FF3502D2A64500F2BB8029
:1017A0002846A4EB0E0440EA03409EE7C1F120075F
:1017B0008B4022FA07FC4CEA030C20FA07F405FAE6
:1017C00001F31C43FD404FEA1C4900FA01F3B5FB4D
:1017D000F9F8200C1FFA8CFE09FB185540EA054564
:1017E00008FB0EF0A84202FA01F20BD91CEB05052A
:1017F00008F1FF3A80F08880A84240F28580A8F185
:10180000020865442D1AA4B2B5FBF9F009FB105586
:1018100044EA054500FB0EFEAE4508D91CEB050564
:1018200000F1FF346CD2AE456AD90238654440EA13
:101830000840A0FB0294A5EB0E05A542C846A646AB
:1018400056D353D05EB1B3EB080265EB0E0505FA33
:1018500007F722FA01F3CD401F43C6E900750021C6
:10186000BDE8F087C2F1200320FA03F10CFA02FC74
:1018700025FA03F395400D434FEA1C471FFA8CFEEF
:10188000B3FBF7F107FB11302B0C43EA004301FBDC
:101890000EF0984204FA02F408D91CEB030301F19C
:1018A000FF382FD298422DD9023963441B1AADB2AA
:1018B000B3FBF7F007FB103345EA034500FB0EF3DB
:1018C000AB4208D91CEB050500F1FF3816D2AB423C
:1018D00014D902386544ED1A40EA014138E731462F
:1018E000304607E78646E5E61846FAE64B45A9D2B4
:1018F000B9EB020864EB0C0E0138A3E74046EAE7B7
:10190000204694E74146D1E7D0467BE7023B654459
:1019100032E7084609E76444023842E7704700BFEF
:1019200080B584B000AF0123FB60134A3B4607CA71
:1019300003C31A800233120C1A700021112012F016
:10194000D9FB0FE00121112012F0F4FB4FF4FA70E3
:1019500009F0A2F80021112012F0ECFB4FF4FA700C
:1019600009F09AF8FB685A1CFA60002BEAD10023B0
:1019700018461037BD4680BD7C81010080B483B01D
:1019800000AF03463960FB7197F90730002B0BDA83
:101990003B68DAB20C49FB7903F00F03043B5201B8
:1019A000D2B20B441A7609E03B68DAB2074997F9DC
:1019B00007305201D2B20B4483F8002300BF0C372A
:1019C000BD4680BC704700BF00ED00E000E100E0D4
:1019D00080B483B000AF7860034A7B68136000BFB7
:1019E0000C37BD4680BC704710E000E080B483B087
:1019F00000AF7860034A7B68536000BF0C37BD4678
:101A000080BC704710E000E080B400AF034B0022C0
:101A10009A6000BFBD4680BC704700BF10E000E088
:101A200080B500AF002003F0B6FF00BF80BD80B5D9
:101A300000AF09F01BFF06F041FD09F037FF00BFC2
:101A400080BD80B483B000AF0346FB7100BF0C378C
:101A5000BD4680BC7047000080B500AF0D4803F064
:101A60006DFF03F08DFFFFF7DBFF0F214FF0FF301D
:101A7000FFF784FF084B1B68084AA2FB03235B099E
:101A80001846FFF7B3FFFFF7BFFF0720FFF7A0FFE0
:101A900000BF80BD431A0000000000201F85EB51ED
:101AA00080B500AF0020FEF7F7FB0A4B1B69094A1F
:101AB00043F004031361FFF7CFFF0749074807F01E
:101AC0006BFC0FF08FFA064807F076FB06F066FC19
:101AD00000BF80BD00ED00E0000001208027002055
:101AE0008881010080B483B000AF0346FB71FB79AD
:101AF00003F01F02064997F907305B09012000FA3D
:101B000002F241F8232000BF0C37BD4680BC70476D
:101B100000E100E080B483B000AF03463960FB71A0
:101B200097F90730002B0BDA3B68DAB20C49FB79E6
:101B300003F00F03043B5201D2B20B441A7609E0C2
:101B40003B68DAB2074997F907305201D2B20B4429
:101B500083F8002300BF0C37BD4680BC704700BF30
:101B600000ED00E000E100E080B483B000AF7860F9
:101B70007B681B0B5BB218460C37BD4680BC7047B8
:101B800080B483B000AF78607B681B6800BF0C37FF
:101B9000BD4680BC704780B483B000AF78600B4610
:101BA000FB70FB787A68134401221A6000BF0C377F
:101BB000BD4680BC704780B582B000AF78600B46F0
:101BC0007B807B887A68134400221A607B887A685D
:101BD00013441846FFF7D4FF00BF0837BD4680BD49
:101BE00080B483B000AF78600B467B807B887A68D6
:101BF00013441B68002B14BF01230023DBB21846DB
:101C00000C37BD4680BC704780B483B000AF7860AD
:101C100039607B68D3F800223B681A437B68C3F8BD
:101C2000002200BF0C37BD4680BC704780B483B033
:101C300000AF786039607B68D3F800223B68DB43F3
:101C40001A407B68C3F8002200BF0C37BD4680BC39
:101C5000704780B483B000AF786039607B683A68C1
:101C6000C3F8042300BF0C37BD4680BC704780B466
:101C700083B000AF786039607B683A68C3F80823A6
:101C800000BF0C37BD4680BC704780B483B000AF46
:101C9000786039607B68D3F804233B6813401846AA
:101CA0000C37BD4680BC704780B483B000AF78600D
:101CB0000B46FB707B68D3F8043523F00302FB78F6
:101CC00003F003031A437B68C3F8042500BF0C37F5
:101CD000BD4680BC704780B483B000AF78600B46CF
:101CE000FB707B68D3F8083523F00302FB7803F020
:101CF00003031A437B68C3F8082500BF0C37BD46B1
:101D000080BC704780B483B000AF78600B46FB7036
:101D10007B68D3F8103523F00F02FB7803F00F0334
:101D20001A437B68C3F8102500BF0C37BD4680BC42
:101D3000704780B485B000AFF8600B467A60FB72E4
:101D4000FA7AFB6802F5A872796843F8221000BF9E
:101D50001437BD4680BC704780B483B000AF786054
:101D60000B46FB70FA787B6802F5A87253F82230B4
:101D700018460C37BD4680BC704780B483B000AFB6
:101D800078607B689B004033DBB218460C37BD4659
:101D900080BC704780B483B000AF78607B689B00E4
:101DA00003F5A0739BB218460C37BD4680BC704744
:101DB00080B483B000AF78604FF480327B6802FA61
:101DC00003F318460C37BD4680BC704790B589B008
:101DD00000AFF860B9607A60FB681B791A46134659
:101DE0005B0013449B00304A1344BB61BB691B7A00
:101DF000002B03D02D4B7B617B6950E0BB697A6877
:101E00001A60BB685A68BB695A600023FB770DE013
:101E1000FB681C68FB7F1846FFF7BCFF03461946AA
:101E20002046FFF7C8FEFB7F0133FB77FB685B7939
:101E3000FA7F9A42ECD3FB681B681846FFF794FEC2
:101E400003461A46BB68DB7819461046FFF762FE68
:101E5000FB681B681846FFF787FE03461846FFF726
:101E600041FEFB681A68BB685B7819461046FFF7AD
:101E70001BFFFB681A68BB689B7819461046FFF782
:101E80002AFFFB681A68BB681B7819461046FFF7E3
:101E900039FFBB6901221A72054B7B617B691846C9
:101EA0002437BD4690BD00BFB41900200500AD0B1E
:101EB0000000AD0B80B582B000AF78607B681B6816
:101EC00000211846FFF767FE7B681B791946064A12
:101ED0000B465B000B449B001344083302221A702C
:101EE00000BF0837BD4680BDB419002080B582B060
:101EF00000AF78607B681B6810211846FFF74BFE27
:101F00007B681B791946064A0B465B000B449B0015
:101F10001344083301221A7000BF0837BD4680BD44
:101F2000B419002080B582B000AF78607B681B6870
:101F30000C211846FFF72FFE00BF0837BD4680BDB5
:101F400090B583B000AF78600B46FB707B681C686F
:101F5000FB781846FFF711FF034619462046FFF7A6
:101F60001AFE7B681B68FA7811461846FFF7F4FEE4
:101F7000034618460C37BD4690BD90B587B000AFFC
:101F8000F8607A601A460B46FB721346BB72FB7A06
:101F90001846FFF70DFF7861BB7A002B11D0FB6864
:101FA0001C68FB7A1846FFF7F5FE034619462046E3
:101FB000FFF701FEFB681B6879691846FFF749FEC9
:101FC00005E0FB681B6879691846FFF750FEFB685F
:101FD0001B68F97A7A681846FFF7ABFE00BF1C371A
:101FE000BD4690BD80B584B000AFF8607A601A46F7
:101FF0000B46FB7213463B81FB681868FB7A4FF473
:1020000080729A40FB7A012101FA03F313431946C7
:10201000FFF70CFEFB681B683A8911461846FFF76C
:10202000F3FD3B7EF97A7A68F868FFF7A6FF00BFF8
:102030001037BD4680BD80B586B000AFF860B9608E
:102040001346FB710023FB7528E0FB7D1846FFF764
:10205000A1FE0346BB82FB7D1846FFF7A9FE38614F
:10206000BB8A1946F868FFF7BBFD0346002B12D068
:102070003969F868FFF709FE0346002B0BD0BB8ACD
:102080001946F868FFF797FDBB681B68BA68516886
:10209000BA8A10469847FB7D0133FB75FA7DFB79C0
:1020A0009A42D2D300BF00BF1837BD4680BD0000A2
:1020B00080B500AF042203490348FFF7BCFF00BF0F
:1020C00080BD00BFB41900200080004080B500AF83
:1020D000042203490348FFF7AEFF00BF80BD00BFE5
:1020E000C019002000A0004080B483B000AF786029
:1020F0007B681B6800BF0C37BD4680BC704780B54D
:1021000082B000AF78600B467B807B887A6813448E
:1021100000221A607B887A6813441846FFF7E4FFB0
:1021200000BF0837BD4680BD80B483B000AF786083
:102130007B68D3F80835DBB218460C37BD4680BC47
:102140007047000080B582B000AF4FF4807108483E
:10215000FFF7D5FF0648FFF7E7FF0346FB71054B86
:102160001B68FA791046984700BF0837BD4680BD06
:1021700000D00040CC19002080B483B000AF78605C
:102180000B46FB70FA787B68C3F80C2500BF0C3750
:10219000BD4680BC704780B483B000AF78600B460A
:1021A000FB70FB787A68134401221A6000BF0C3779
:1021B000BD4680BC704780B483B000AF78603960A2
:1021C0007B683A68C3F8042500BF0C37BD4680BC65
:1021D000704780B483B000AF78600B46FB707B68BB
:1021E000D3F80825FB78012101FA03F31A437B6831
:1021F000C3F8082500BF0C37BD4680BC70470000FF
:1022000080B483B000AF78600B46FB70FA787B68CF
:1022100002F5C072034943F8221000BF0C37BD46D7
:1022200080BC70473546526EB0B588B000AFF860DC
:10223000B9607A60FB681B795B001D4A1344FB613F
:10224000FB691B78002B2CD1FB6901221A70FB68FB
:102250001A68BB681B7819461046FFF78DFFBB68EC
:102260005B6800221C4615464FF000004FF000014D
:10227000E90341EA5441E0034FF47A724FF000035E
:10228000FFF7CCF902460B46C7E90423FB681B683D
:102290003A6911461846FFF78EFF064BBB61BB69D2
:1022A00002E0054BBB61BB6918462037BD46B0BD97
:1022B000D01900200000AD0B0500AD0B80B584B037
:1022C00000AF78607B681B795B00084A1344FB60B1
:1022D0007B681B6800211846FFF75DFFFB68022240
:1022E0001A7000BF1037BD4680BD00BFD019002056
:1022F00080B584B000AF78607B681B795B000D4AC5
:102300001344BB600023FB7309E07B681B68FA7B06
:1023100011461846FFF774FFFB7B0133FB73BB6864
:102320005B78FA7B9A42F0D300BF00BF1037BD46FE
:1023300080BD00BFD019002080B584B000AF7860A8
:1023400039607B681B795B00114A1344BB60BB6832
:102350005B78072B14D8BB685A783B681A70BB6847
:102360005B780133DAB2BB685A707B681A683B68E5
:102370001B7819461046FFF72CFF064BFB6001E067
:10238000054BFB60FB6818461037BD4680BD00BF9B
:10239000D01900200000AD0B0200AD0B80B483B05B
:1023A00000AF0346FB71FB7903F01F02064997F962
:1023B00007305B09012000FA02F241F8232000BF38
:1023C0000C37BD4680BC704700E100E080B483B0AC
:1023D00000AF03463960FB7197F90730002B0BDA29
:1023E0003B68DAB20C49FB7903F00F03043B52015E
:1023F000D2B20B441A7609E03B68DAB2074997F982
:1024000007305201D2B20B4483F8002300BF0C37CF
:10241000BD4680BC704700BF00ED00E000E100E079
:1024200080B483B000AF78607B681B0B5BB218464A
:102430000C37BD4680BC704780B483B000AF786075
:102440007B681B6800BF0C37BD4680BC704780B5F9
:1024500082B000AF78600B467B807B887A6813443B
:1024600000221A607B887A6813441846FFF7E4FF5D
:1024700000BF0837BD4680BD80B483B000AF786030
:102480000B467B807B887A6813441B68002B14BF43
:1024900001230023DBB218460C37BD4680BC7047D1
:1024A00080B483B000AF786039607B683A68C3F865
:1024B000042300BF0C37BD4680BC704780B483B096
:1024C00000AF786039607B683A68C3F8082300BFC2
:1024D0000C37BD4680BC704780B483B000AF7860D5
:1024E0007B680122C3F8002500BF0C37BD4680BCC5
:1024F000704780B485B000AFF860B9607A603B6027
:10250000FB68BA68C3F80825FB687A68C3F80C252D
:10251000FB683A68C3F8102500BF1437BD4680BC7D
:10252000704780B483B000AF78600B46FB70FA78D8
:102530007B68C3F81C2500BF0C37BD4680BC7047C4
:1025400080B483B000AF78607B68D3F81835DBB215
:1025500018460C37BD4680BC704780B483B000AFCE
:10256000786039603A687B68C3F8242500BF0C376F
:10257000BD4680BC704780B485B000AF78600B4624
:10258000FB701346BB70BB78002B14BF01230023E4
:10259000DBB2FB60FB78032B10D0032B13DC012B89
:1025A00002D0022B05D00EE0FB6843F00203FB6073
:1025B0000AE0FB6843F00403FB6005E0FB6843F0BE
:1025C0000603FB6000E000BF7B68FA68C3F854258F
:1025D00000BF1437BD4680BC704780B582B000AFE5
:1025E0007860786800F0A1F84FF0A04318460837EB
:1025F000BD4680BD80B584B000AF78600846114606
:102600001A460346FB700B46BB7013467B703B1D9E
:102610001846FFF7E2FFF8600023BB60FA78BB784A
:102620005B001A437B789B001A433B7E1B021A43D4
:102630003B7F1B041343BA681343BB607A68FB6893
:1026400002F5E072B96843F8221000BF1037BD46AA
:1026500080BD80B584B002AF786000230193002371
:1026600000930023012201217868FFF7C3FF00BF18
:102670000837BD4680BD80B584B002AF78600B4698
:10268000FB70FB78002201920022009200220021C0
:102690007868FFF7AFFF00BF0837BD4680BD80B543
:1026A00084B000AF78603B1D1846FFF796FFF860D6
:1026B0007B68012202FA03F31946F86800F019F862
:1026C00000BF1037BD4680BD80B584B000AF7860D4
:1026D0003B1D1846FFF781FFF8607B68012202FA74
:1026E00003F31946F86800F012F800BF1037BD4632
:1026F00080BD80B483B000AF786039607B683A6891
:10270000C3F8082500BF0C37BD4680BC704780B4B5
:1027100083B000AF786039607B683A68C3F80C25F5
:1027200000BF0C37BD4680BC704780B485B000AF99
:1027300078607B681B68FB60FB6803F01F027B68A6
:102740001A60FB685B0918461437BD4680BC7047A9
:1027500080B58CB002AFF860B9607A603B60FB680E
:102760001B791A4613469B001344DB005D4A134451
:10277000FB61FB691B7F002B03D05B4B7B617B699B
:10278000ABE0FB697A681A60FB693A685A60BB681B
:102790001B7B012B05D8BB681B781846FFF794FFFD
:1027A00004E0BB681B781846FFF779FFBB681B780D
:1027B00018460023019300230093002300220121E7
:1027C000FFF718FFBB685B78FF2B09D0BB685B780D
:1027D0007B62786AFFF778FF786AFFF73AFF02E0DA
:1027E0004FF0FF337B62BB689B78FF2B09D0BB683F
:1027F0009B783B62BB689B7B1946386AFFF73BFFBF
:1028000002E04FF0FF333B62BB68DB78FF2B09D05F
:10281000BB68DB781846FFF742FFBB68DB781846D9
:10282000FFF717FFFB681B791946BB68D8782D4A5C
:102830000B469B000B44DB0013441E3302461A7008
:10284000FB681B68BB61BB681B7819463B6A7A6AE8
:10285000B869FFF74EFEBB689B681946B869FFF779
:102860007CFEBB68197BBB685B7B1A46B869FFF7C7
:1028700082FEFB681B791946BB685879194A0B46DA
:102880009B000B44DB0013441F3302461A70B869E7
:10289000FFF722FEFB691B68002B15D0FB681B6845
:1028A0001846FFF7BDFD03461A46BB681B7919465B
:1028B0001046FFF78BFDFB681B681846FFF7B0FD5D
:1028C00003461846FFF76AFDFB6900225A77FB6949
:1028D00001221A77054B7B617B6918462837BD4674
:1028E00080BD00BFD41900200500AD0B0000AD0B6A
:1028F00080B582B000AF78607B689B7FFF2B04D0EF
:102900007B689B7F1846FFF7CAFE7B6800225A77D8
:102910007B6800221A727B681B687A6802F10800E3
:102920007A6852681146984700BF0837BD4680BD97
:1029300080B584B000AF786039607868FFF700FE3A
:102940000346FB723B681A6A3B689B699A4207D24E
:102950003B685A693B681B6A1344FA7AD2B21A7010
:102960003B681B6A5A1C3B681A623B681B6A01334E
:10297000FB603B6893F82430002B0FD03B681B6949
:10298000FA689A4202D23B68FA681A613B689B690E
:10299000FA689A4202D23B68FA689A613B681B69FE
:1029A000FA689A420AD23B68DA68FB6813441B78DB
:1029B00019467868FFF7B5FD01231EE03B689B6967
:1029C000FA689A4207D23B68DB7F19467868FFF7BE
:1029D000A8FD012311E03B681A6A3B681B699A4213
:1029E00005D33B681A6A3B689B699A4201D201236E
:1029F00000E0002303F00103DBB218461037BD46A8
:102A000080BD80B584B000AFF860B9607A60BB6803
:102A100000221A620421F868FFF750FD4FF4847118
:102A2000F868FFF714FD7B685B68002B03D07B68B8
:102A30001B681B7801E0BB68DB7F1946F868FFF76D
:102A400070FD7B685B68012B08D97B681B680133CC
:102A50001B781946F868FFF764FD09E07B68DB68BE
:102A6000012B05D9BB68DB7F1946F868FFF759FDD4
:102A7000BB681B68002B04D00421F868FFF710FD29
:102A800020E000BF4FF48471F868FFF7F5FC0346BF
:102A900083F00103DBB2002BF4D14FF48471F868AA
:102AA000FFF7D5FCB968F868FFF742FF0346002B33
:102AB000E7D1BB689B7FFF2B04D0BB689B7F184688
:102AC000FFF7EDFD00BF1037BD4680BD90B587B064
:102AD00000AFF860B9607A60FB681B791A4613464C
:102AE0009B001344DB001F4A13443B611E4B7B6178
:102AF0003B695B7FDBB2002B03D01C4B7B617B69A6
:102B00002CE03B691B68002B02D03B6901225A77FD
:102B10003B69BA6803F10C0413460FCB84E80F003D
:102B20003B69002283F824203B699B7FFF2B04D064
:102B30003B699B7F1846FFF7C7FD7B68002B05D0DC
:102B40003B6900225A770A4B7B6106E0FB681B68F1
:102B5000BA6839691846FFF754FF7B6918461C3775
:102B6000BD4690BDD41900200000AD0B0B00AD0B8D
:102B70000300AD0B80B582B000AF786039604FF4D0
:102B800084717868FFF763FC39687868FFF7D0FED6
:102B9000034683F00103DBB2002B02D03868FFF755
:102BA000A7FE00BF0837BD4680BD000080B500AF5E
:102BB00002490348FFF7DEFF00BF80BDD4190020A3
:102BC0000030004080B500AF03494FF04020FFF7D0
:102BD000D1FF00BF80BD00BFFC19002080B500AF51
:102BE00002490348FFF7C6FF00BF80BD241A00203A
:102BF0000030024080B483B000AF78607B68D3F8C7
:102C0000003403F00103002B14BF01230023DBB2C7
:102C100018460C37BD4680BC704780B483B000AF07
:102C200078600B46FB70FA787B68C3F8042500BF18
:102C30000C37BD4680BC704780B483B000AF78606D
:102C400039607B683A68C3F8082500BF0C37BD4679
:102C500080BC704780B483B000AF78607B681B692C
:102C600018460C37BD4680BC704780B582B000AFB7
:102C700000237B604FF08050FFF7ECFF78607B68AB
:102C800018460837BD4680BD80B582B000AF786079
:102C9000FFF7EBFF02467B68B3FBF2F101FB02F2A8
:102CA0009B1A002B0CBF01230023DBB21846083708
:102CB000BD4680BD80B489B000AFF860B9607A606D
:102CC000FB6803F00303FB614FF0FF337B610023DC
:102CD000BB610EE0BA68BB691A4407F11401FB69D5
:102CE0000B4412781A70FB690133FB61BB69013335
:102CF000BB61BA697B689A42ECD37B69184624377A
:102D0000BD4680BC7047000080B500AF002102487E
:102D1000FFF783FF00BF80BD00E0014080B500AF3A
:102D200001210248FFF779FF00BF80BD00E00140AC
:102D300080B500AF02210248FFF76FFF00BF80BDE2
:102D400000E0014080B582B000AF7860396000BF1C
:102D50000948FFF74FFF034683F00103DBB2002B66
:102D6000F6D17B683A681A60BFF35F8F00BF00BF7F
:102D70000837BD4680BD00BF00E0014080B586B089
:102D800000AFF860B9607A6000237B610EE07B6978
:102D90009A00FB68D0187B699B00BA6813441B68D3
:102DA0001946FFF7CFFF7B6901337B617A697B6846
:102DB0009A42ECD300BF00BF1837BD4680BD00006B
:102DC00080B582B000AF78607868FFF75DFF03469A
:102DD00083F00103DBB2002B01D00C4B12E0FFF7B4
:102DE000A7FF79680A48FFF727FF00BF0848FFF7E9
:102DF00001FF034683F00103DBB2002BF6D1FFF79E
:102E000083FF044B18460837BD4680BD0A00AD0B52
:102E100000E001400000AD0B90B58BB000AFF86052
:102E2000B9607A60FFF77AFFBB687B62FB6803F0EA
:102E30000303FB61FB69002B22D0FB69C3F1040390
:102E40003B623A6A7B689A4201D97B683B62FA68C6
:102E5000FB69D41A3A6A796AF868FFF72BFF0346D0
:102E600019462046FFF76EFF7A683B6AD31A7B60EB
:102E7000FA683B6A1344FB607A6A3B6A13447B62DC
:102E80007B689B08BB61BA69796AF868FFF776FFCF
:102E9000BB699B00FA681344FB60BB699B007A6ABC
:102EA00013447B627B6803F003037B617B69002B27
:102EB00009D07A69796AF868FFF7FCFE034619467B
:102EC000F868FFF73FFFFFF71FFF00BF2C37BD4635
:102ED00090BD80B584B000AFF860B9607A60FFF74C
:102EE0001DFF7A68B968F868FFF748FFFFF70CFF25
:102EF00000BF1037BD4680BD80B483B000AF03462D
:102F0000FB71FB7903F01F02064997F907305B0953
:102F1000012000FA02F241F8232000BF0C37BD4621
:102F200080BC704700E100E080B483B000AF03468E
:102F30003960FB7197F90730002B0BDA3B68DAB286
:102F40000C49FB7903F00F03043B5201D2B20B444E
:102F50001A7609E03B68DAB2074997F9073052015F
:102F6000D2B20B4483F8002300BF0C37BD4680BCAF
:102F7000704700BF00ED00E000E100E080B483B0E6
:102F800000AF78607B6803F06043B3F1005F0CBF73
:102F900001230023DBB218460C37BD4680BC7047C6
:102FA00080B483B000AF78607B681B6800BF0C37CB
:102FB000BD4680BC704780B483B000AF78600B46DC
:102FC000FB70FB787A68134401221A6000BF0C374B
:102FD000BD4680BC704780B483B000AF78600B46BC
:102FE0007B807B887A6813441B68002B14BF012305
:102FF0000023DBB218460C37BD4680BC704780B555
:1030000082B000AF78600B467B807B887A6813447F
:1030100000221A607B887A6813441846FFF7C0FFC5
:1030200000BF0837BD4680BD80B483B000AF034603
:103030000A46FB711346BB71BB79012B05D1FB79A5
:10304000DB0003F58C739BB205E0FB79DB000433F6
:1030500003F58C739BB218460C37BD4680BC704795
:1030600080B483B000AF7860084611461A46034624
:10307000FB700B46BB7013467B70FB787A787968DF
:1030800051331B010B4404331A60FB78BA7879681A
:1030900051331B010B441A6000BF0C37BD4680BC86
:1030A000704780B483B000AF786039607B683A685D
:1030B000C3F8002300BF0C37BD4680BC704780B406
:1030C00083B000AF78607B680122C3F8002500BFA1
:1030D0000C37BD4680BC704780B483B000AF7860C9
:1030E0007B680022C3F8002500BF0C37BD4680BCBA
:1030F000704780B485B000AFF860B9607A60BA6894
:10310000FB68C3F82C26FB687A68C3F8302600BF3A
:103110001437BD4680BC704780B483B000AF786080
:103120007B68D3F834369BB218460C37BD4680BC5A
:10313000704780B483B000AF78600B46FB70FA78BC
:103140007B68C3F8F02500BF0C37BD4680BC7047D4
:1031500080B483B000AF78607B68D3F8F035DBB221
:1031600018460C37BD4680BC704780B483B000AFB2
:1031700078600B46FB70FA787B68C3F8F42500BFD3
:103180000C37BD4680BC704780B483B000AF786018
:103190007B68D3F8F435DBB218460C37BD4680BCEB
:1031A000704780B483B000AF0346FB71FB79012206
:1031B00002FA03F318460C37BD4680BC704780B452
:1031C00083B000AF78607B68D3F8F83503F48053A0
:1031D000B3F5805F0CBF01230023DBB218460C3728
:1031E000BD4680BC704780B485B000AFF8600B4628
:1031F0007A60FB727B681B7803F003027B685B7864
:103200001B0103F030031A437B689B781B0203F415
:10321000E0631A437B68DB781B0303F480531A4393
:103220007B681B791B0403F4E0231A437B685B79FA
:103230001B0503F4801342EA03017B689B791B069C
:1032400003F08072FB7A0A43F9681B010B4403F513
:10325000A3631A6000BF1437BD4680BC704780B4BA
:1032600083B000AF78600B46FB701346BB70FB78F1
:103270007A681B01134403F5A3631B6823F0807273
:10328000BB781B061946FB780A4379681B010B447F
:1032900003F5A3631A6000BF0C37BD4680BC7047BE
:1032A00080B596B000AF00237B651EE0374A7B6D8A
:1032B0001B01134403F5A3631A687B6D9B0007F1A0
:1032C00058010B4443F8382C304A7B6D1B011344E2
:1032D00003F21C531A687B6D9B0007F158010B44E5
:1032E00043F8582C7B6D01337B657B6D072BDDD953
:1032F0002648FFF72DFF034687F84F30244B1B6805
:10330000BB64244B1B687B64234B1B683B64234BCF
:1033100000221A60214B01221A6000233B651EE047
:103320001A493B6D9B0007F15802134453F8382C9F
:103330003B6D1B010B4403F5A3631A6013493B6DFE
:103340009B0007F15802134453F8582C3B6D1B01A6
:103350000B4403F21C531A603B6D01333B653B6D1C
:10336000072BDDD90A4ABB6C13600A4A7B6C1360D9
:10337000094A3B6C136097F84F3019460348FFF732
:10338000D8FE00BF5837BD4680BD00BF007000406A
:10339000407600404476004048760040FC7F004084
:1033A00080B485B000AF786039600023FB730123DF
:1033B000BB6014E07A68BB681340002B0CD00E4B46
:1033C00093F823301A46BB681340002B01D10B4BF6
:1033D0000CE0FB7B0133FB73BB685B00BB60BB682D
:1033E000FF2BE7D93B68FA7B1A70054B1846143758
:1033F000BD4680BC704700BF4C1A00200400AD0BD6
:103400000000AD0B80B582B000AF78607B685B7A5E
:103410007A6819461248FFF7E6FE7B685B7A194620
:103420007B68DA790F4B0B449A747B685B7A194698
:103430007B681A7A0B4B0B449A760A4B93F823203D
:103440007B685B7A194601238B40DBB21343DAB207
:10345000044B83F8232000BF0837BD4680BD00BF62
:10346000007000404C1A002080B487B000AF786034
:103470002DE07B683B613B6993FAA3F3FB60FB683B
:10348000B3FA83F3FB75FB7D012202FA03F3DB43FE
:103490001A467B6813407B60114B93F823305AB275
:1034A000FB7D012101FA03F35BB2DB435BB2134006
:1034B0005BB2DAB20A4B83F82320FB7D084A13443F
:1034C00000229A74FB7D064A134400229A767B6898
:1034D000002BCED100BF00BF1C37BD4680BC70475B
:1034E0004C1A002080B400AF0A4B93F82230012B15
:1034F00009D0084B93F82230042B04D0054B93F8E5
:103500002230022B01D1002300E001231846BD46E2
:1035100080BC70474C1A002080B584B000AF786042
:10352000084611461A460346FB700B46BB7013460D
:103530007B70FFF7B5FE344B002283F82620324B18
:10354000002283F82720304B00225A602E4B0022A5
:103550009A602D4ABB6913607B68DAB22A4B83F804
:103560002420294B00221A82FB7819462748FFF7AE
:10357000E0FDBB7819462548FFF7F7FDBB69002B36
:1035800004D023212148FFF78CFD03E000211F48D0
:10359000FFF787FD0023FB602EE00122FB6802FAA3
:1035A00003F31A467B681340002B0ED0164AFB68C3
:1035B000134412331B78BB72134AFB6813441A334B
:1035C0001B787B727B78FB7205E00023BB720023C3
:1035D0007B720023FB72FB68DBB2FA7A19460B4858
:1035E000FFF73DFEFB68D9B27B7ABA7A0748FFF74E
:1035F00037FDFB680133FB60FB68072BCDD900BFAB
:1036000000BF1037BD4680BD4C1A0020007000403E
:1036100080B584B000AF0346FB71194B93F822309C
:10362000002B03D0174BFB60FB6824E0144B0122F6
:1036300083F822204FF480711348FFF7E0FC4FF429
:103640008A711148FFF7DBFC4FF482710E48FFF7D7
:10365000D6FC00210C48FFF724FDFF20FFF704FFF4
:103660000720FFF749FCFB7919460720FFF75CFCB0
:10367000064BFB60FB6818461037BD4680BD00BF97
:103680004C1A00200500AD0B007000400000AD0B8F
:1036900080B584B000AF78603960FFF723FF034640
:1036A000002B01D0194B2DE0FF20FFF7DDFE00239A
:1036B000FB7322E0164B93F823301946FA7B13462E
:1036C0009B0013445B001A467B6813445B7A41FA03
:1036D00003F303F00103002B01D00E4B12E0FA7B41
:1036E00013469B0013445B001A467B68134418463C
:1036F000FFF788FEFB7B0133FB73FB7B3A689A4242
:10370000D8D8054B18461037BD4680BD0B00AD0B11
:103710004C1A00200400AD0B0000AD0B80B58AB040
:1037200002AFF8607B600B46FB721346BB72FFF77B
:10373000D9FE0346002B01D0164B26E007F11703F4
:103740001946F868FFF72CFEB861BB69124A93422C
:1037500001D0BB6919E0BB7A002B02D10023FB77B3
:1037600001E00123FB77F87FBA7AF97A7B6800934E
:103770000346F868FFF7D0FEFA7D084B83F8252052
:10378000064B022283F82220034B18462037BD4601
:1037900080BD00BF0B00AD0B0000AD0B4C1A00202C
:1037A00080B582B000AF78600B467B80314B9B6860
:1037B000002B01D0304B58E07868FFF7DFFB034661
:1037C00083F00103DBB2002B01D02C4B4DE07B8852
:1037D000284A92F8252093FBF2F101FB02F29B1A92
:1037E000002B06D1B7F90230002B02DB7B88002BBF
:1037F00001D1234B39E01F4B93F82230062B19D00F
:10380000062B2FDC022B05D0022B2BDB043B012BDC
:1038100028D815E0174B93F825309BB27A889A4246
:1038200001D0174B21E0134A7B889381114A7B68B2
:10383000536019E07B881A4679681248FFF759FCF3
:103840000C4B5B68002B06D00A4A7B88D381094A5F
:103850007B68936008E0074A7B889381054A7B6810
:10386000536001E0084B00E0084B18460837BD469E
:1038700080BD00BF4C1A00200C00AD0B0A00AD0B40
:103880000600AD0B007000400500AD0B0000AD0B55
:1038900080B584B000AF7F4B5B68002B01D17E4BBD
:1038A000F4E07E4BFB607B4B93F82230022B02D07E
:1038B000042B46D0E6E07A48FFF701FC754B5B68C5
:1038C000744A928919467648FFF713FC714B1B68BE
:1038D000002B08D06F4B032283F822200021704870
:1038E000FFF769FBD1E000216D48FFF764FB00BFE3
:1038F0004FF480716A48FFF76EFB034683F00103C3
:10390000DBB2002BF4D14FF480716548FFF777FBF1
:1039100004216348FFF74FFB00BF4FF482716048FA
:10392000FFF759FB034683F00103DBB2002BF4D110
:103930004FF482715A48FFF762FB5948FFF7CCFBFE
:10394000A3E05748FFF7BBFB524B1B68002B10D07E
:10395000504B052283F822204E4B5B684D4A9289DA
:1039600019464F48FFF7C5FB00214D48FFF723FBE1
:103970008BE0484B5A68474B1B8A5B001344454A0F
:1039800092F8252019464648FFF7B3FB002144482A
:10399000FFF711FB00BF4FF480714148FFF71BFB9D
:1039A000034683F00103DBB2002BF4D14FF48071A6
:1039B0003B48FFF724FB374B93F82930002B27D0E7
:1039C0003748FFF7E1FB03461846FFF7EAFB78604C
:1039D0000023BB6017E04FF484713148FFF70FFB01
:1039E00004212F48FFF7E7FA00BF4FF484712C48F9
:1039F000FFF7F1FA034683F00103DBB2002BF4D1A9
:103A0000BB680133BB60BA687B689A42E3D303E0CA
:103A100004212348FFF7CFFA00BF4FF482712048FA
:103A2000FFF7D9FA034683F00103DBB2002BF4D190
:103A30004FF482711A48FFF7E2FA164B1A8A154BB7
:103A400093F825309BB213449AB2124B1A82114B51
:103A50001A8A104B9B899A4202D2124BFB600DE0EE
:103A60000C4B00221A820B4B9B680A4A5360094B8D
:103A7000DA89084B9A81074B00229A600848FFF7C1
:103A80002BFB02E0084BFB6000BFFB6818461037B9
:103A9000BD4680BD4C1A00200200AD0B0000AD0BEE
:103AA000007000400B00AD0B0500AD0B80B584B07D
:103AB00000AF224B93F82230062B26D0062B35DCA4
:103AC000032B2ED0052B31D104233B711B4B1B68DC
:103AD0003A1D104698471A48FFF771FB0346002B22
:103AE00003D004211648FFF766FA144B062283F828
:103AF0002220124B9B68002B07D0104B9B680F4A6B
:103B0000D28919460E48FFF7F4FA0C4B9B68002B3C
:103B10000ED103233B71094B1B683A1D1046984791
:103B200006E004210648FFF746FA02E000BF00E085
:103B300000BF00BF1037BD4680BD00BF4C1A00203B
:103B40000070004080B584B000AF00233B71234B70
:103B50005B68BB60214B9B89BB81204B1B683A1D76
:103B6000104698471D4B93F82230032B02D0062BAA
:103B700008D02FE01A48FFF7AFFA184B022283F85B
:103B8000222027E0154B9B68144A5360134BDA89B7
:103B9000124B9A81114B00229A60104B5B68002BEC
:103BA00009D00E4B93F82830002B12D000210C487E
:103BB000FFF701FA0DE00A48FFF78EFA074B0422DF
:103BC00083F8222005233B71044B1B683A1D1046E5
:103BD000984700BF00BF1037BD4680BD4C1A00207B
:103BE0000070004080B588B000AF03460A46FB7104
:103BF0001346BB7136E0FB79BB61BB6993FAA3F353
:103C00007B617B69B3FA83F3FB77FB7F012202FAC6
:103C100003F35BB2DB435AB297F9073013405BB250
:103C2000FB71BA79FB7F11461846FFF7FDF9034691
:103C3000BB83BB8B19460F48FFF7CDF90346002B1A
:103C400010D0BB8B19460B48FFF7D9F901233B7203
:103C5000FB7F3B73BB797B73074B1B6807F1080243
:103C600010469847FB79002BC5D100BF00BF203715
:103C7000BD4680BD007000404C1A002080B584B065
:103C800000AF4FF480713048FFF7A5F90346002BD1
:103C900006D04FF480712C48FFF7B1F9FFF706FF0B
:103CA0004FF48A712848FFF796F90346002B0ED08F
:103CB0004FF48A712448FFF7A2F92348FFF72CFA42
:103CC00003461A46214B9A81204B00229A604FF4FA
:103CD00082711D48FFF77FF90346002B06D04FF491
:103CE00082711948FFF78BF9FFF72CFF174B93F8F8
:103CF000263000211846FFF775FF144B93F8273044
:103D000001211846FFF76EFF4FF488710E48FFF748
:103D100062F90346002B12D04FF488710A48FFF76E
:103D20006EF90948FFF7D8F9084B012283F82220E1
:103D300002233B71054B1B683A1D1046984700BF94
:103D40001037BD4680BD00BF007000404C1A0020F7
:103D500080B483B000AF0346FB71FB7903F01F0210
:103D6000064997F907305B09012000FA02F241F891
:103D7000232000BF0C37BD4680BC704700E100E047
:103D800080B483B000AF03463960FB7197F9073008
:103D9000002B0BDA3B68DAB20C49FB7903F00F0316
:103DA000043B5201D2B20B441A7609E03B68DAB206
:103DB000074997F907305201D2B20B4483F8002328
:103DC00000BF0C37BD4680BC704700BF00ED00E06F
:103DD00000E100E080B483B000AF78607B681B68CE
:103DE00000BF0C37BD4680BC704780B483B000AFC5
:103DF000786039607B683A68C3F8042300BF0C37E9
:103E0000BD4680BC704780B483B000AF7860396035
:103E10007B683A68C3F8082300BF0C37BD4680BCF6
:103E2000704780B483B000AF786039607B68D3F8A6
:103E300004233B68134018460C37BD4680BC7047CE
:103E400080B483B000AF78600B467B807B887A6853
:103E500013441B68002B14BF01230023DBB2184658
:103E60000C37BD4680BC704780B582B000AF78602B
:103E70000B467B807B887A68134400221A607B881B
:103E80007A6813441846FFF7A5FF00BF0837BD4600
:103E900080BD80B483B000AF786039607B683A68D9
:103EA000C3F8082500BF0C37BD4680BC704780B4FE
:103EB00083B000AF78600B46FB70FA787B681344E0
:103EC0001A460123136000BF0C37BD4680BC704703
:103ED00080B483B000AF786039607B683A68C3F81B
:103EE000442300BF0C37BD4680BC704780B483B00C
:103EF00000AF786039607B683A68C3F8482300BF38
:103F00000C37BD4680BC704780B586B000AFF86006
:103F1000B9607A60FB685B7919462A4A7B6842F887
:103F20002130FB685B791946274A0B465B000B443E
:103F300013441B78002B03D0244B7B617B693DE04D
:103F4000FB6893F90420BB689B7819461046FFF77D
:103F500017FFFB6893F904301846FFF7F9FEFB687A
:103F60001A68BB681B8819461046FFF792FFFB686A
:103F70005B791946BB681879134A0B465B000B4402
:103F80001344013302461A70FB685B791946BB681B
:103F9000D8780D4A0B465B000B44134402330246AB
:103FA0001A70FB685B791946074A0B465B000B44A5
:103FB000134401221A70064B7B617B69184618373F
:103FC000BD4680BD781A0020841A00200500AD0B84
:103FD0000000AD0B80B582B000AF78607B681B68D5
:103FE00000211846FFF763FF7B685B791946054A95
:103FF0000B465B000B44134402221A7000BF0837C3
:10400000BD4680BD841A002080B584B000AF7860C2
:104010000B46FB704FF48073FB810123BB607B6810
:104020001B68FA8911461846FFF71EFF7B681B685C
:10403000B9681846FFF74CFFFB78002B05D07B686A
:104040001B68B9681846FFF7D0FE00BF1037BD46A1
:1040500080BD000080B588B000AFF860B9607A60BC
:104060004FF48033BB614FF4A073FB820023FB61EC
:104070002CE0B969F868FFF7D4FE0346002B1CD08A
:10408000FB8A1946F868FFF7DBFE0346002B14D0C5
:10409000B969F868FFF72AFFB969F868FFF7B3FE56
:1040A000FB8A1946F868FFF7DFFE294ABB6852F819
:1040B0002330FA69D2B210469847BB695B00BB61F6
:1040C000FB8A0433FB82FB690133FB61FA697B687D
:1040D0009A42CED34FF48073FB820121F868FFF738
:1040E000A0FE0346002B12D0FB8A1946F868FFF7A2
:1040F000A7FE0346002B0AD0FB8A1946F868FFF793
:10410000B3FE134ABB6852F82330042098474FF49B
:104110008273FB820221F868FFF783FE0346002BBF
:1041200012D0FB8A1946F868FFF78AFE0346002B77
:104130000AD0FB8A1946F868FFF796FE044ABB6866
:1041400052F823300520984700BF2037BD4680BD78
:10415000781A002080B500AF032200210248FFF743
:1041600079FF00BF80BD00BF00B0004080B500AF48
:10417000042201210248FFF76DFF00BF80BD00BF90
:104180000010014080B500AF042202210248FFF771
:1041900061FF00BF80BD00BF0040024080B483B01B
:1041A00000AF1E4B1B68B3F1FF3F0AD11C4B1B68CD
:1041B000DBB27B601B4B1B681B0903F00F033B60EA
:1041C00005E0164B1B687B60174B1B683B607B68E8
:1041D000062B1DD13B68033B042B17D801A252F8D4
:1041E00023F000BFF9410000FD4100000142000042
:1041F000054200000942000001230AE0012308E013
:10420000012306E0012304E0012302E0012300E092
:10421000002318460C37BD4680BC704730010010A3
:10422000E00F00F0E80F00F03401001080B483B01C
:1042300000AF184B1B68DBB27B60174B1B681B0978
:1042400003F00F033B607B68062B1DD13B68033BEB
:10425000042B17D801A252F823F000BF71420000CE
:1042600075420000794200007D420000814200005A
:1042700001230AE0002308E0002306E0002304E015
:10428000002302E0002300E0002318460C37BD465F
:1042900080BC7047E00F00F0E80F00F080B483B0FE
:1042A00000AF1E4B1B68B3F1FF3F0AD11C4B1B68CC
:1042B000DBB27B601B4B1B681B0903F00F033B60E9
:1042C00005E0164B1B687B60174B1B683B607B68E7
:1042D000062B1DD13B68033B042B17D801A252F8D3
:1042E00023F000BFF9420000FD420000014300003E
:1042F000054300000943000001230AE0012308E010
:10430000012306E0012304E0012302E0012300E091
:10431000002318460C37BD4680BC704730010010A2
:10432000E00F00F0E80F00F03401001080B483B01B
:1043300000AF184B1B68DBB27B60174B1B681B0977
:1043400003F00F033B607B68062B1DD13B68033BEA
:10435000042B17D801A252F823F000BF71430000CC
:1043600075430000794300007D4300008143000055
:1043700001230AE0002308E0002306E0002304E014
:10438000002302E0002300E0002318460C37BD465E
:1043900080BC7047E00F00F0E80F00F080B483B0FD
:1043A00000AF1E4B1B68B3F1FF3F0AD11C4B1B68CB
:1043B000DBB27B601B4B1B681B0903F00F033B60E8
:1043C00005E0164B1B687B60174B1B683B607B68E6
:1043D000062B1DD13B68033B042B17D801A252F8D2
:1043E00023F000BFF9430000FD430000014400003A
:1043F000054400000944000001230AE0012308E00D
:10440000012306E0012304E0012302E0012300E090
:10441000002318460C37BD4680BC704730010010A1
:10442000E00F00F0E80F00F03401001080B483B01A
:1044300000AF184B1B68DBB27B60174B1B681B0976
:1044400003F00F033B607B68062B1DD13B68033BE9
:10445000042B17D801A252F823F000BF71440000CA
:1044600075440000794400007D4400008144000050
:1044700001230AE0002308E0002306E0002304E013
:10448000002302E0002300E0002318460C37BD465D
:1044900080BC7047E00F00F0E80F00F080B483B0FC
:1044A00000AF184B1B68DBB27B60174B1B681B0906
:1044B00003F00F033B607B68062B1DD13B68033B79
:1044C000042B17D801A252F823F000BFE1440000EA
:1044D000E5440000E9440000ED440000F144000020
:1044E00001230AE0002308E0002306E0002304E0A3
:1044F000002302E0002300E0002318460C37BD46ED
:1045000080BC7047E00F00F0E80F00F080B483B08B
:1045100000AF1E4B1B68B3F1FF3F0AD11C4B1B6859
:10452000DBB27B601B4B1B681B0903F00F033B6076
:1045300005E0164B1B687B60174B1B683B607B6874
:10454000062B1DD13B68033B042B17D801A252F860
:1045500023F000BF694500006D4500007145000073
:10456000754500007945000000230AE0002308E0BB
:10457000012306E0012304E0012302E0012300E01F
:10458000002318460C37BD4680BC70473001001030
:10459000E00F00F0E80F00F03401001080B483B0A9
:1045A00000AF1E4B1B68B3F1FF3F0AD11C4B1B68C9
:1045B000DBB27B601B4B1B681B0903F00F033B60E6
:1045C00005E0164B1B687B60174B1B683B607B68E4
:1045D000062B1DD13B68033B042B17D801A252F8D0
:1045E00023F000BFF9450000FD4500000146000032
:1045F000054600000946000001230AE0012308E007
:10460000012306E0012304E0012302E0012300E08E
:10461000002318460C37BD4680BC7047300100109F
:10462000E00F00F0E80F00F03401001080B483B018
:1046300000AF1E4B1B68B3F1FF3F0AD11C4B1B6838
:10464000DBB27B601B4B1B681B0903F00F033B6055
:1046500005E0164B1B687B60174B1B683B607B6853
:10466000062B1DD13B68033B042B17D801A252F83F
:1046700023F000BF894600008D46000091460000EF
:10468000954600009946000001230AE0012308E056
:10469000012306E0012304E0012302E0012300E0FE
:1046A000002318460C37BD4680BC7047300100100F
:1046B000E00F00F0E80F00F03401001080B483B088
:1046C00000AF164B1B687B60154B1B683B607B681B
:1046D000062B1DD13B68033B042B17D801A252F8CF
:1046E00023F000BFF9460000FD460000014700002E
:1046F000054700000947000000230AE0002308E006
:10470000002306E0012304E0012302E0012300E08E
:10471000002318460C37BD4680BC7047300100109E
:104720003401001080B483B000AF164B1B687B606F
:10473000154B1B683B607B68062B1DD13B68033B18
:10474000042B17D801A252F823F000BF61470000E4
:1047500065470000694700006D4700007147000091
:1047600000230AE0002308E0002306E0002304E021
:10477000012302E0012300E0002318460C37BD4668
:1047800080BC7047300100103401001080B500AFCC
:10479000FFF7C8FF0346002B07D04FF010234FF060
:1047A0008042D3F80832C2F8583500BF80BD0000FF
:1047B00080B400AF034B044A1A6000BFBD4680BC02
:1047C000704700BF000000200090D00380B500AF0C
:1047D000FFF7E4FC0346002B06D07F4B1B681B0A47
:1047E0007E4A03F01F031360FFF720FD0346002BF2
:1047F00002D07B4B7B4A1A60FFF750FD0346002B2B
:1048000006D0794B1B685B0B784A03F007031360F3
:10481000FFF78CFD0346002B05D0754BDB68744A0F
:1048200023F08073D360FFF7B9FD0346002B0ED051
:104830004FF080430022C3F80C214FF08043002248
:10484000C3F810214FF080430022C3F83825FFF74A
:10485000EDFD0346002B02D0664B03221A60FFF7E2
:104860001DFE0346002B0BD0634B05221A60634BE1
:1048700001221A60624B00221A60624B3F221A60CA
:10488000FFF744FE0346002B76D04FF080535E4A7C
:10489000D3F80434C2F820354FF080535A4AD3F885
:1048A0000834C2F824354FF08053574AD3F80C34FB
:1048B000C2F828354FF08053534AD3F81034C2F869
:1048C0002C354FF08053504AD3F81434C2F83035A9
:1048D0004FF080534C4AD3F81834C2F834354FF0B7
:1048E0008053494AD3F81C34C2F840354FF0805306
:1048F000454AD3F82034C2F844354FF08053424A39
:10490000D3F82434C2F848354FF080533E4AD3F8E8
:104910002834C2F84C354FF080533B4AD3F82C343E
:10492000C2F850354FF08053374AD3F83034C2F8CC
:1049300054354FF08053344AD3F83434C2F86035DC
:104940004FF08053304AD3F83834C2F864354FF012
:1049500080532D4AD3F83C34C2F868354FF0805369
:10496000294AD3F84034C2F86C354FF08053264AB8
:10497000D3F84434C2F87035FFF710FE0346002B1D
:1049800005D0224B1B68224A03F04F031360FFF748
:104990004DFE0346002B0DD04FF08043D3F800347A
:1049A00003F00103002B05D04FF080436FF00102AC
:1049B000C3F80024FFF782FE0346002B05D0154BF9
:1049C0001B68144A43F480631360FFF7DFFEFFF7B0
:1049D000EFFE00BF80BD00BF240300104035014042
:1049E00074C007400DF0ADBA440200103C05004011
:1049F000F0ED00E0A0050040105600408856004051
:104A0000185600401456004000C0004058020010E4
:104A1000E40E00403C17004080B483B000AF034672
:104A2000FB71FB7903F01F02064997F907305B0918
:104A3000012000FA02F241F8232000BF0C37BD46E6
:104A400080BC704700E100E080B483B000AF034653
:104A5000FB71FB7903F01F02074997F907305B09E7
:104A6000012000FA02F2203341F8232000BF0C3766
:104A7000BD4680BC704700BF00E100E080B483B059
:104A800000AF03463960FB7197F90730002B0BDA52
:104A90003B68DAB20C49FB7903F00F03043B520187
:104AA000D2B20B441A7609E03B68DAB2074997F9AB
:104AB00007305201D2B20B4483F8002300BF0C37F9
:104AC000BD4680BC704700BF00ED00E000E100E0A3
:104AD00080B483B000AF78607B681B0B5BB2184674
:104AE0000C37BD4680BC704780B582B000AF03462E
:104AF000FB7197F907301846FFF7A6FF00BF08378C
:104B0000BD4680BD80B483B000AF78607B681B6811
:104B100000BF0C37BD4680BC704780B582B000AF87
:104B200078600B467B807B887A68134400221A6089
:104B30007B887A6813441846FFF7E4FF00BF083704
:104B4000BD4680BD80B483B000AF78600B467B80EB
:104B50007B887A6813441B68002B14BF0123002351
:104B6000DBB218460C37BD4680BC704780B483B0BA
:104B700000AF786039607B683A68C3F8042300BFEF
:104B80000C37BD4680BC704780B483B000AF7860FE
:104B900039607B68D3F804233B68134018460C3710
:104BA000BD4680BC704780B483B000AF7860396088
:104BB0007B683A68C3F8082300BF0C37BD4680BC49
:104BC000704780B485B000AF78607B68D3F88034DC
:104BD000FB607B68FA68C3F88024FB6818461437CA
:104BE000BD4680BC704780B483B000AF78607B68FE
:104BF0000422C3F8002500BF0C37BD4680BC7047B7
:104C000080B483B000AF78607B680022C3F80025D1
:104C100000BF0C37BD4680BC704780B485B000AF84
:104C2000F860B9607A60FB687A68C3F81425FB689D
:104C3000BA68C3F80C2500BF1437BD4680BC704766
:104C400080B582B000AF78604FF0FF324FF0FF3197
:104C50007868FFF7E2FF00BF0837BD4680BD80B42B
:104C600083B000AF78607B68D3F80C3518460C37FA
:104C7000BD4680BC704780B483B000AF78607B686D
:104C8000D3F8143518460C37BD4680BC704780B445
:104C900083B000AF78607B68D3F8083518460C37CE
:104CA000BD4680BC704780B483B000AF78607B683D
:104CB000D3F8103518460C37BD4680BC704780B419
:104CC00085B000AFF860B9607A60FB68BA68C3F875
:104CD0000825FB687A68C3F8102500BF1437BD4665
:104CE00080BC704780B582B000AF78604FF0FF3273
:104CF0004FF0FF317868FFF7E2FF00BF0837BD468D
:104D000080BD80B483B000AF78607B68D3F818357D
:104D1000DBB218460C37BD4680BC704780B483B008
:104D200000AF78600B46FB70FA787B68C3F81C25EF
:104D300000BF0C37BD4680BC704780B483B000AF65
:104D400078600B46FB70FB787A68134401221A6086
:104D500000BF0C37BD4680BC704780B483B000AF45
:104D6000786039603B685A783B681B781343DBB244
:104D70001A467B68C3F86C2500BF0C37BD4680BC63
:104D8000704780B483B000AF786039607B683A6860
:104D9000C3F8242500BF0C37BD4680BC704780B5E2
:104DA00082B000AF7860786800F090F84FF0A043D0
:104DB00018460837BD4680BD80B584B000AF786026
:104DC000084611461A460346FB700B46BB70134655
:104DD0007B703B1D1846FFF7E2FFF8600023BB60C5
:104DE000FA78BB785B001A437B789B001A433B7EC2
:104DF0001B021A433B7F1B041343BA681343BB6077
:104E00007A68FB6802F5E072B96843F8221000BFC7
:104E10001037BD4680BD80B584B002AF78600023F6
:104E20000193002300930023012201217868FFF7FA
:104E3000C3FF00BF0837BD4680BD80B584B002AF58
:104E400078600B46FB70FB780022019200220092F2
:104E5000002200217868FFF7AFFF00BF0837BD468A
:104E600080BD80B584B002AF786000230193002339
:104E700000930023012200217868FFF79DFF00BF07
:104E80000837BD4680BD80B584B000AF78603B1D5B
:104E90001846FFF784FFF8607B68012202FA03F3EB
:104EA0001946F86800F004F800BF1037BD4680BD11
:104EB00080B483B000AF786039607B683A68C3F82B
:104EC000082500BF0C37BD4680BC704780B485B054
:104ED00000AF78607B681B68FB60FB6803F01F0213
:104EE0007B681A60FB685B0918461437BD4680BCB6
:104EF000704780B582B000AF786039603B681B684E
:104F0000B3F1FF3F09D03B681B681846FFF7BBFFB2
:104F10003B681B681846FFF77EFF3B685B68B3F190
:104F2000FF3F05D03B685B6800211846FFF785FF0F
:104F30007B681A683B685B6919461046FFF721FFDA
:104F40007B681A683B68193319461046FFF705FF5E
:104F50007B6818683B6819683B685B681A46FFF70E
:104F60005CFE3B685B7E012B22D13B689B68B3F102
:104F7000FF3F05D03B689B6800211846FFF75DFFA7
:104F80003B68DB68B3F1FF3F09D03B68DB6818463C
:104F9000FFF779FF3B68DB681846FFF73CFF7B684B
:104FA00018683B68D9683B689B681A46FFF787FE1C
:104FB00000BF0837BD4680BD80B582B000AF7860C5
:104FC0000B46FB707B681B684FF48E711846FFF729
:104FD000A4FD7B681B684FF4A2711846FFF79DFD86
:104FE0007B681B680E491846FFF7C0FD7B681B688D
:104FF0001846FFF76DFD03461A46FB781946104622
:10500000FFF73CFD7B681B681846FFF761FD034610
:105010001846FFF701FD00BF0837BD4680BD00BF41
:105020008000020080B582B000AF78607B681B68AA
:1050300008491846FFF7B7FD7B681B681846FFF75D
:1050400047FD03461846FFF74FFD00BF0837BD4632
:1050500080BD00BF8402020080B586B000AF7860DA
:105060007B681B681846FFF7FAFD78617B681B6850
:105070001846FFF700FE38617B681B681846FFF78B
:1050800006FEF8607B681B681846FFF70CFEB860E8
:105090007B681B681846FFF7D3FD7B681B681846C2
:1050A000FFF720FE7B69B3F1FF3F02D07869FFF77D
:1050B000D8FE3B69B3F1FF3F02D03869FFF7D1FE5C
:1050C000BB68B3F1FF3F02D0B868FFF7CAFEFB68C8
:1050D000B3F1FF3F02D0F868FFF7C3FE00BF1837F7
:1050E000BD4680BD80B586B000AFF860B9607A601B
:1050F000FB681B791A462C2302FB03F31E4A134458
:105100007B611E4B3B617B6993F82A30002B03D0F7
:105110001B4B3B613B692BE0B968F868FFF7E9FE80
:105120007B697A685A60BB681A697B691A607B6917
:105130005B68002B05D0BB681B7E1946F868FFF73B
:105140003BFFFB681B681846FFF74DFD7B6900229B
:105150009A617B690022DA617B69002283F8292049
:105160007B6900225A617B69012283F82A203B690E
:1051700018461837BD4680BD901A00200000AD0BC0
:105180000500AD0B80B584B000AF78607B681B79FB
:105190001A462C2302FB03F30E4A1344FB607B6880
:1051A0001B681846FFF72CFDFB685B68002B02D0DC
:1051B0007868FFF737FF7868FFF74EFFFB6800223B
:1051C00083F82A20FB6800225A6000BF1037BD46D2
:1051D00080BD00BF901A002080B584B000AF786019
:1051E00039604FF48E717868FFF797FC3B689A68D6
:1051F0003B681B6A13441B78FB733B681B6A5A1C91
:105200003B681A62FB7B19467868FFF787FD00BF91
:105210001037BD4680BD80B582B000AF78607B6836
:105220001B684FF492711846FFF777FC7B681B6888
:1052300000211846FFF781FD00BF0837BD4680BD3D
:1052400090B583B000AF786039603B689B69002BF4
:1052500008D14FF484717868FFF75FFC7868FFF736
:1052600050FD13E04FF484717868FFF756FC3B68FB
:10527000DA683B685B6AD4187868FFF742FD03463A
:1052800023703B685B6A5A1C3B685A620C37BD4608
:1052900090BD000080B588B000AFF860B9607A605A
:1052A000FB681B791A462C2302FB03F3674A13445D
:1052B000BB610023FB77BB695B68002B06D0FB68F2
:1052C0001B684FF401711846FFF76DFCBB699B69C1
:1052D000002B14D0BB69DB69002B0ED0BB695B6867
:1052E000002B06D0FB681B684FF401711846FFF7CE
:1052F0003DFC574B7B617B69A3E00123FB77FB7F80
:1053000083F00103DBB2002B0CD0BB697A689A6191
:10531000BB69BA68DA60BB6900225A62BB690022C5
:10532000DA6105E0BB69BA681A61BB697A68DA615B
:10533000BB6993F8293083F00103DBB2002B08D05E
:10534000FB7F83F00103DBB2002B02D0F868FFF78C
:1053500062FFBB695B68002B69D1FB681B684FF477
:10536000A2711846FFF7D9FBFB681B684FF49271D6
:105370001846FFF7E7FB0346FB74FB681B684FF416
:1053800084711846FFF7DEFB0346BB74FB681B689D
:105390004FF4A2711846FFF7D5FB03467B74BB7C24
:1053A00083F00103DBB2002B0BD07B7C83F0010385
:1053B000DBB2002B05D0FB7C83F00103DBB2002BBA
:1053C000D2D1FB7C002B0ED17B7C002B0BD1FB6858
:1053D0001B68B9691846FFF733FFBB699A69BB6957
:1053E0005B6A9A42C0D8BB6900229A61FB7C002BA1
:1053F00003D0184B7B617B6923E07B7C002B03D0BF
:10540000154B7B617B691CE0BB6993F82930002B4D
:1054100006D0FB681B6800211846FFF78EFC0DE0E4
:10542000FB681B6804211846FFF787FC06E0FB6851
:105430001B684FF401711846FFF798FB074B7B611F
:105440007B6918462037BD4680BD00BF901A0020FA
:105450000B00AD0B0100AD0B0800AD0B0000AD0B58
:1054600080B588B000AFF860B9607A6001233B7402
:10547000BB68BB617B687B61FB685B68FA6811682D
:1054800007F110021046984700BF2037BD4680BD87
:1054900080B586B000AF7860396000233B723B680E
:1054A0003B617B689B68FB607B6800225A617B687C
:1054B0005B687A68116807F108021046984700BFD8
:1054C0001837BD4680BD80B58AB000AF78603960BE
:1054D0004FF400717868FFF757FB0346002B39D073
:1054E0004FF492717868FFF72DFB0346002B31D003
:1054F0004FF492717868FFF710FB4FF401717868F0
:10550000FFF751FB3B6893F8293083F00103DBB2CE
:10551000002B03D004217868FFF70FFC02233B73B4
:105520007868FFF74EFB0346BB613B689B697B6174
:105530003B68DB683B613B6800229A613B68002264
:10554000DA613B685B683A68116807F10C02104643
:10555000984752E004217868FFF716FB0346002BBA
:105560004BD04FF484717868FFF7ECFA0346002BB8
:1055700043D039687868FFF763FE3B689A693B68F7
:105580005B6A9A4239D13B68DB69002B19D03B68D2
:10559000DB687B623B685B6A3B623B68DA693B685D
:1055A0009A613B681A693B68DA603B680022DA61FD
:1055B0003B6800225A627A6A396A3868FFF750FFFE
:1055C0001BE03B6893F8293083F00103DBB2002B2A
:1055D00003D004217868FFF7B0FB4FF401717868BD
:1055E000FFF7E1FA3B6800229A613B68596A3B6821
:1055F000DB681A463868FFF733FF4FF48E7178681E
:10560000FFF7A0FA0346002B24D03B685B69FB61DF
:105610003B681B6AFA699A420DD93B6893F82830B7
:10562000DBB283F00103DBB2002B04D03968786869
:10563000FFF7D2FD0EE04FF48E717868FFF76DFA38
:105640003B685B69002B05D03B685B69194638688D
:10565000FFF71EFF4FF4A2717868FFF773FA034655
:10566000002B1CD04FF4A2717868FFF756FA3B6804
:1056700093F82930002B03D000217868FFF75DFBF9
:105680003B689B69002B0AD03B6800229A613B680B
:10569000596A3B68DB681A463868FFF7E1FE00BFCD
:1056A0002837BD4680BD000080B500AF02490348E1
:1056B000FFF709FF00BF80BD901A002000200040C6
:1056C00080B483B000AF0346FB71FB7903F01F0287
:1056D000064997F907305B09012000FA02F241F808
:1056E000232000BF0C37BD4680BC704700E100E0BE
:1056F00080B483B000AF03463960FB7197F907307F
:10570000002B0BDA3B68DAB20C49FB7903F00F038C
:10571000043B5201D2B20B441A7609E03B68DAB27C
:10572000074997F907305201D2B20B4483F800239E
:1057300000BF0C37BD4680BC704700BF00ED00E0E5
:1057400000E100E080B483B000AF78607B681B0BA1
:105750005BB218460C37BD4680BC704780B483B03E
:1057600000AF0346FB71114A97F90730002B00DAAE
:105770001F335B115BB252F8232097F9073059426F
:1057800003F01F0301F01F0158BF4B425BB222FA26
:1057900003F303F00103002B14BF01230023DBB24A
:1057A00018460C37BD4680BC704700BF00E100E0E2
:1057B00080B483B000AF78607B681B6800BF0C3793
:1057C000BD4680BC704780B483B000AF786039605C
:1057D0007B683A68C3F8042300BF0C37BD4680BC21
:1057E000704780B483B000AF786039607B683A68F6
:1057F000C3F8082300BF0C37BD4680BC704780B497
:1058000083B000AF78600B46FB70FB787A68134476
:1058100001221A6000BF0C37BD4680BC704780B5BE
:1058200082B000AF78600B467B807B887A68134437
:1058300000221A607B887A6813441846FFF7B8FF85
:1058400000BF0837BD4680BD80B483B000AF78602C
:105850000B467B807B887A6813441B68002B14BF3F
:1058600001230023DBB218460C37BD4680BC7047CD
:1058700080B483B000AF786039607B683A68C3F861
:10588000182500BF0C37BD4680BC704780B582B07C
:1058900000AF0723FB714FF08040FFF753FF034633
:1058A0001846FFF75BFF034683F00103DBB2002BD2
:1058B00012D04FF08040FFF745FF03461A46FB79B0
:1058C00019461046FFF714FF4FF08040FFF73AFFEC
:1058D00003461846FFF7F4FE00BF0837BD4680BDFB
:1058E00080B485B000AF134BDB68FB60114AFB68E6
:1058F00043F08073D360104B1B68BB600E4ABB68DB
:1059000043F0010313600C4B5B687B6000BF0A4BE4
:105910005A687B68D31AB3F50A5FF8D3064ABB68A6
:105920001360044AFB68D36000BF1437BD4680BCD7
:10593000704700BFF0ED00E0001000E080B485B0DB
:1059400000AF78600B4BFB600B4B1B79002B02D038
:105950000A4BFB6008E0084A7B681360064B012293
:105960001A71054B00225A71FB6818461437BD4660
:1059700080BC70470000AD0BBC1A00200C00AD0BC2
:1059800080B500AFFFF782FF01214FF08040FFF7A5
:105990006FFF00BF80BD80B582B000AF0346FB71D2
:1059A000FB79002B02D0012B13D023E04FF482713E
:1059B0004FF08040FFF733FF02214FF08040FFF7A8
:1059C00002FFFFF78DFF08214FF08040FFF717FF20
:1059D00010E04FF480714FF08040FFF720FF01216D
:1059E0004FF08040FFF7EFFE00214FF08040FFF7BF
:1059F00006FF00BF00BF0837BD4680BD80B500AFC1
:105A00004FF480714FF08040FFF71EFF0346002BDC
:105A100018D04FF480714FF08040FFF700FF012154
:105A20004FF08040FFF7DDFE134B5B7983F00103FD
:105A3000DBB2002B06D0104B01225A710E4B1B68B3
:105A4000002098474FF482714FF08040FFF7FCFE32
:105A50000346002B0ED04FF482714FF08040FFF7C9
:105A6000DEFE02214FF08040FFF7BBFE024B1B68B9
:105A70000120984700BF80BDBC1A002080B483B0CD
:105A800000AF0346FB71FB7903F01F02064997F94B
:105A900007305B09012000FA02F241F8232000BF21
:105AA0000C37BD4680BC704700E100E080B483B095
:105AB00000AF03463960FB7197F90730002B0BDA12
:105AC0003B68DAB20C49FB7903F00F03043B520147
:105AD000D2B20B441A7609E03B68DAB2074997F96B
