:1000000098180020410200007D020000410300001A
:100010008102000083020000850200000000000051
:100020000000000000000000000000008702000047
:100030008902000000000000BF0200006B140000F5
:10004000E52E00008F020000014F00008F0200002B
:100050008F0200008F020000413F00008F0200006D
:100060008F0200008F0200008F020000251900009F
:100070008F0200008F0200008F0200008F0200003C
:100080008F0200003D1900008F0200008F02000067
:100090008F0200008F0200008F0200008F0200001C
:1000A0008F0200008F0200008F0200008F0200000C
:1000B000912B00008F0200000000000000000000F3
:1000C0008F0200008F0200008F0200008F020000EC
:1000D000551900008F0200008F0200000000000090
:1000E0000000000000000000000000000000000010
:1000F0000000000000000000000000000000000000
:1001000000000000000000000000000000000000EF
:1001100000000000000000000000000000000000DF
:1001200000000000000000000000000000000000CF
:1001300000000000000000000000000000000000BF
:1001400000000000000000000000000000000000AF
:10015000000000000000000000000000000000009F
:10016000000000000000000000000000000000008F
:10017000000000000000000000000000000000007F
:10018000000000000000000000000000000000006F
:10019000000000000000000000000000000000005F
:1001A000000000000000000000000000000000004F
:1001B000000000000000000000000000000000003F
:1001C000000000000000000000000000000000002F
:1001D000000000000000000000000000000000001F
:1001E000000000000000000000000000000000000F
:1001F00000000000000000000000000000000000FF
:1002000010B5054C237833B9044B13B10448AFF350
:1002100000800123237010BD98180020000000000A
:10022000B03E010008B5034B1BB103490348AFF3CF
:10023000008008BD000000009C180020B03E0100B6
:100240000A490B4A0B4B9B1A03DD043BC858D0509C
:10025000FBDC0849084A0020521A02DD043A8850A3
:10026000FCDC01F09BFE07F0B1FA0000B83E010093
:1002700000000020981800200C230020FEE7FEE775
:10028000FEE7FEE7FEE7FEE7FEE7FEE7FEE7FEE746
:10029000EFF3108072B6704780F310887047364ACB
:1002A0001368012B04D04FF001031360334A106030
:1002B000334A116033484FF0805101607047EFF3CB
:1002C000108272B62C48016891B14FF000010160B4
:1002D0002A48016829B1EFF3098121E9F00F00688C
:1002E0000160274909680968B1E8F00F81F30988BE
:1002F00082F310884EF0040E7047214908601F49B0
:100300004FF0000008601C494FF0010008601E48D3
:100310001E49D0F8002041EA0201016019484FF05F
:10032000805101601A480068006800BF80F30888A7
:1003300061B662B6BFF34F8FBFF36F8F704700BFD8
:10034000EFF308801EF0040F01D0EFF3098020E9DD
:10035000F00F40F804ED1EF0040F02D080F309887E
:1003600001E080F3088800B509F0C0F85DF804EBFF
:100370004EF0040E70470000A01F0020981F0020C0
:100380009C1F002004ED00E020ED00E00000FFFFD6
:1003900008ED00E000000000000000000000000088
:1003A000A2EB0300704700BF02780B78012A28BF38
:1003B0009A42F5D16DE9044540EA0104CDE90267AE
:1003C0006FF0000C4FEA447212B380EA010414F09B
:1003D000070F6AD100F0070420F0070004F00305BE
:1003E00021F007014FEAC505F0E8042314F0040FDB
:1003F000F1E804670CFA05F462EA040266EA04060E
:100400000AD063EA0403624667EA0407664603E02B
:10041000F0E80423F1E8046782FA4CF582EA060466
:10042000A4FA8CF46CBB83FA4CF583EA0705A5FAB1
:100430008CF595B950E9022351E9026782FA4CF52F
:1004400082EA0604A4FA8CF483FA4CF583EA0705E1
:10045000A5FA8CF52543DBD09CB92DBAB5FA85F405
:1004600024F0070427FA04F1DDE9026723FA04F314
:1004700003F0FF0001F0FF01FDE80445A0EB0100DF
:10048000704724BAB4FA84F424F0070426FA04F17D
:10049000DDE9026722FA04F202F0FF0001F0FF0139
:1004A000FDE80445A0EB0100704714F0030F3CD1B8
:1004B00010F0030428D150F8082B51F8083B82FAB9
:1004C0004CF582EA0305A5FA8CF55DB950F8042CC9
:1004D00051F8043C82FA4CF582EA0305A5FA8CF542
:1004E000002DE8D02DBAB5FA85F424F0070423FADC
:1004F00004F122FA04F202F0FF0001F0FF01FDE82E
:100500000445A0EB010070474FEAC40420F003004B
:1005100050F8082B21F0030151F8083B0CFA04F4C1
:1005200062EA040263EA0403C9E710F003041AD084
:10053000A1EB040120F00300E40750F8042B06D0DF
:100540000FD28B785FFAA2F4E41A06D12BB1CB78E4
:100550005FFAB2F4E41A00D11BB920465DF8104BE3
:10056000704701F1040150F8042BCC0721F003017E
:1005700051F8043B48D824D222F07F4482FA4CF54B
:1005800094EA1325A5FA8CF50AD165B951F8043B14
:1005900084EA0204B4EB036F0ED150F8042BEBE7AE
:1005A0004FEA132355E035F07F454DD10878FDE83B
:1005B0000445C0F1000070474FEA126203F0FF03E8
:1005C00047E002EA1C4482FA4CF594EA1345A5FA86
:1005D0008CF50AD165B951F8043B84EA0204B4EB06
:1005E000034F0CD150F8042BEBE74FEA134330E0F4
:1005F00015EA1C4528D10B884FEA124229E04FEA40
:10060000124203EA1C4324E002F0FF0482FA4CF594
:1006100094EA1365A5FA8CF50AD165B951F8043B43
:1006200084EA0204B4EB032F09D150F8042BEBE762
:100630004FEA13630DE015F0FF0F05D10B684FEA89
:10064000122223F07F4304E04FF00000FDE8044550
:10065000704712BA1BBA82FA4CF482EA0304A4FA75
:100660008CF5B5FA85F402FA04F203FA04F34FEAC2
:100670001260FDE80445A0EB136070470000000025
:1006800090F800F06DE9024520F007016FF0000CD2
:1006900010F0070491F820F040F049804FF000047A
:1006A0006FF00700D1E9002391F840F000F1080055
:1006B00082FA4CF2A4FA8CF283FA4CF3A2FA8CF38D
:1006C0004BBBD1E9022382FA4CF200F10800A4FAF4
:1006D0008CF283FA4CF3A2FA8CF3E3B9D1E9042348
:1006E00082FA4CF200F10800A4FA8CF283FA4CF37F
:1006F000A2FA8CF37BB9D1E9062301F1200182FA39
:100700004CF200F10800A4FA8CF283FA4CF3A2FA3E
:100710008CF3002BC6D0002A04BF04301A4612BA4C
:10072000B2FA82F2FDE8024500EBD2007047D1E94F
:10073000002304F00305C4F100004FEAC50514F0DE
:10074000040F91F840F00CFA05F562EA05021CBFAF
:1007500063EA050362464FF00004A9E781F0004117
:1007600002E000BF83F0004330B54FEA41044FEA96
:10077000430594EA050F08BF90EA020F1FBF54EA31
:10078000000C55EA020C7FEA645C7FEA655C00F0CD
:10079000E2804FEA5454D4EB5555B8BF6D420CDD9E
:1007A0002C4480EA020281EA030382EA000083EA21
:1007B000010180EA020281EA0303362D88BF30BDC1
:1007C00011F0004F4FEA01314FF4801C4CEA113117
:1007D00002D0404261EB410113F0004F4FEA033376
:1007E0004CEA133302D0524263EB430394EA050F01
:1007F00000F0A780A4F10104D5F1200E0DDB02FA70
:100800000EFC22FA05F2801841F1000103FA0EF203
:10081000801843FA05F359410EE0A5F120050EF1C9
:10082000200E012A03FA0EFC28BF4CF0020C43FAFA
:1008300005F3C01851EBE37101F0004507D54FF007
:10084000000EDCF1000C7EEB00006EEB0101B1F557
:10085000801F1BD3B1F5001F0CD349085FEA30009D
:100860004FEA3C0C04F101044FEA445212F5800FA8
:1008700080F09A80BCF1004F08BF5FEA500C50F145
:10088000000041EB045141EA050130BD5FEA4C0C28
:10089000404141EB0101013C28BFB1F5801FE9D285
:1008A00091F0000F04BF01460020B1FA81F308BFA8
:1008B0002033A3F10B03B3F120020CDA0C3208DD74
:1008C00002F1140CC2F10C0201FA0CF021FA02F14F
:1008D0000CE002F11402D8BFC2F1200C01FA02F1BF
:1008E00020FA0CFCDCBF41EA0C019040E41AA2BFE4
:1008F00001EB0451294330BD6FEA04041F3C1CDAAC
:100900000C340EDC04F11404C4F1200220FA04F0CB
:1009100001FA02F340EA030021FA04F345EA030175
:1009200030BDC4F10C04C4F1200220FA02F001FA37
:1009300004F340EA0300294630BD21FA04F02946B9
:1009400030BD94F0000F83F4801306BF81F4801152
:100950000134013D4EE77FEA645C18BF7FEA655CC5
:1009600029D094EA050F08BF90EA020F05D054EA97
:10097000000C04BF1946104630BD91EA030F1EBF9C
:100980000021002030BD5FEA545C05D140004941A0
:1009900028BF41F0004130BD14F580043CBF01F593
:1009A000801130BD01F0004545F0FE4141F4700179
:1009B0004FF0000030BD7FEA645C1ABF1946104654
:1009C0007FEA655C1CBF0B46024650EA013406BF55
:1009D00052EA033591EA030F41F4002130BD00BF14
:1009E00090F0000F04BF0021704730B54FF48064D1
:1009F00004F132044FF000054FF0000150E700BF52
:100A000090F0000F04BF0021704730B54FF48064B0
:100A100004F1320410F0004548BF40424FF000019D
:100A20003EE700BF42004FEAE2014FEA31014FEAE0
:100A300002701FBF12F07F4393F07F4F81F060512F
:100A4000704732F07F4208BF704793F07F4F04BF7A
:100A500041F40021704730B54FF4607401F0004557
:100A600021F000411CE700BF50EA010208BF7047B7
:100A700030B54FF000050AE050EA010208BF7047A8
:100A800030B511F0004502D5404261EB41014FF411
:100A9000806404F132045FEA915C3FF4D8AE4FF019
:100AA00003025FEADC0C18BF03325FEADC0C18BFFC
:100AB000033202EBDC02C2F1200300FA03FC20FA4D
:100AC00002F001FA03FE40EA0E0021FA02F114449A
:100AD000BDE600BF70B54FF0FF0C4CF4E06C1CEAB3
:100AE00011541DBF1CEA135594EA0C0F95EA0C0F24
:100AF00000F0DEF82C4481EA030621EA4C5123EA97
:100B00004C5350EA013518BF52EA033541F48011C5
:100B100043F4801338D0A0FB02CE4FF00005E1FB78
:100B200002E506F00042E0FB03E54FF00006E1FBC2
:100B300003569CF0000F18BF4EF0010EA4F1FF0405
:100B4000B6F5007F64F5407404D25FEA4E0E6D4145
:100B500046EB060642EAC62141EA55514FEAC52056
:100B600040EA5E504FEACE2EB4F1FD0C88BFBCF5D2
:100B7000E06F1ED8BEF1004F08BF5FEA500E50F183
:100B8000000041EB045170BD06F0004646EA010149
:100B900040EA020081EA0301B4EB5C04C2BFD4EB7B
:100BA0000C0541EA045170BD41F480114FF0000E74
:100BB000013C00F3AB8014F1360FDEBF002001F0E2
:100BC000004170BDC4F10004203C35DA0C341BDC5C
:100BD00004F11404C4F1200500FA05F320FA04F02E
:100BE00001FA05F240EA020001F0004221F0004162
:100BF00010EBD37021FA04F642EB06015EEA430ED5
:100C000008BF20EAD37070BDC4F10C04C4F1200504
:100C100000FA04F320FA05F001FA04F240EA0200B7
:100C200001F0004110EBD37041F100015EEA430E88
:100C300008BF20EAD37070BDC4F1200500FA05F2A8
:100C40004EEA020E20FA04F301FA05F243EA020327
:100C500021FA04F001F0004121FA04F220EA020036
:100C600000EBD3705EEA430E08BF20EAD37070BD7C
:100C700094F0000F0FD101F00046400041EB01015C
:100C800011F4801F08BF013CF7D041EA060195F03E
:100C9000000F18BF704703F00046520043EB0303F8
:100CA00013F4801F08BF013DF7D043EA06037047E5
:100CB00094EA0C0F0CEA135518BF95EA0C0F0CD0F0
:100CC00050EA410618BF52EA4306D1D181EA030136
:100CD00001F000414FF0000070BD50EA410606BF30
:100CE0001046194652EA430619D094EA0C0F02D175
:100CF00050EA013613D195EA0C0F05D152EA0336BA
:100D00001CBF104619460AD181EA030101F00041D7
:100D100041F0FE4141F470014FF0000070BD41F020
:100D2000FE4141F4780170BD70B54FF0FF0C4CF4FA
:100D3000E06C1CEA11541DBF1CEA135594EA0C0F19
:100D400095EA0C0F00F0A7F8A4EB050481EA030E66
:100D500052EA03354FEA013100F088804FEA03334D
:100D60004FF0805545EA131343EA12634FEA02221B
:100D700045EA111545EA10654FEA00260EF00041DC
:100D80009D4208BF964244F1FD0404F5407402D22E
:100D90005B084FEA3202B61A65EB03055B084FEABF
:100DA00032024FF480104FF4002CB6EB020E75EBBC
:100DB000030E22BFB61A754640EA0C005B084FEAE4
:100DC0003202B6EB020E75EB030E22BFB61A754661
:100DD00040EA5C005B084FEA3202B6EB020E75EBAC
:100DE000030E22BFB61A754640EA9C005B084FEA24
:100DF0003202B6EB020E75EB030E22BFB61A754631
:100E000040EADC0055EA060E18D04FEA051545EA1F
:100E100016754FEA06164FEAC30343EA52734FEAC8
:100E2000C2025FEA1C1CC0D111F4801F0BD141EA41
:100E300000014FF000004FF0004CB6E711F4801FA6
:100E400004BF01430020B4F1FD0C88BFBCF5E06F86
:100E50003FF6AFAEB5EB030C04BFB6EB020C5FEA96
:100E6000500C50F1000041EB045170BD0EF0004EEB
:100E70004EEA113114EB5C04C2BFD4EB0C0541EA1D
:100E8000045170BD41F480114FF0000E013C90E61A
:100E900045EA060E8DE60CEA135594EA0C0F08BFDE
:100EA00095EA0C0F3FF43BAF94EA0C0F0AD150EADD
:100EB00001347FF434AF95EA0C0F7FF425AF104670
:100EC00019462CE795EA0C0F06D152EA03353FF498
:100ED000FDAE1046194622E750EA410618BF52EA15
:100EE00043067FF4C5AE50EA41047FF40DAF52EAE9
:100EF00043057FF4EBAE12E74FEA410212F5001210
:100F000015D211D56FF47873B3EB625212D94FEA50
:100F1000C12343F0004343EA505311F0004F23FA3A
:100F200002F018BF404270474FF00000704750EA8F
:100F3000013005D111F0004008BF6FF0004070474C
:100F40004FF00000704700BF7BB972B90029BEBFE7
:100F500000204FF0004106E008BF00281CBF6FF0E2
:100F600000414FF0FF3000F0BFB9ADF1080C6DE962
:100F700004CE002909DB002B1ADB00F04DF8DDF868
:100F800004E0DDE9022304B07047404261EB410117
:100F9000002B1BDB00F040F8DDF804E0DDE9022364
:100FA00004B0404261EB4101524263EB430370479E
:100FB000524263EB430300F02FF8DDF804E0DDE973
:100FC000022304B0404261EB41017047524263EB9F
:100FD000430300F021F8DDF804E0DDE9022304B06A
:100FE000524263EB4303704753B94AB9002908BF23
:100FF00000281CBF4FF0FF314FF0FF3000F074B9F4
:10100000ADF1080C6DE904CE00F006F8DDF804E05F
:10101000DDE9022304B070472DE9F047089E0D4634
:1010200004468846002B4DD18A42944668D9B2FACC
:1010300082F252B101FA02F3C2F1200120FA01F169
:101040000CFA02FC41EA030894404FEA1C45210CCB
:10105000B8FBF5FE1FFA8CF705FB1E8341EA03433C
:101060000EFB07F199420BD91CEB03030EF1FF3085
:1010700080F01E81994240F21B81AEF1020E634462
:101080005B1AA4B2B3FBF5F005FB103344EA03444A
:1010900000FB07F7A7420AD91CEB040400F1FF3359
:1010A00080F00881A74240F2058164440238E41BC5
:1010B00040EA0E4000211EB1D4400023C6E900439F
:1010C000BDE8F0878B4208D9002E00F0EE800021A9
:1010D000C6E900050846BDE8F087B3FA83F10029A8
:1010E0004AD1AB4202D3824200F2F980841A65EB06
:1010F000030301209846002EE2D0C6E90048DFE74E
:1011000002B9FFDEB2FA82F2002A40F09180A1EB30
:101110000C054FEA1C471FFA8CFE0121B5FBF7F3C3
:1011200007FB1350250C45EA00450EFB03F0A842CF
:1011300008D91CEB050503F1FF3802D2A84200F2E2
:10114000CB8043462D1AA4B2B5FBF7F007FB105530
:1011500044EA05440EFB00FEA64508D91CEB040436
:1011600000F1FF3502D2A64500F2BB802846A4EB71
:101170000E0440EA03409EE7C1F120078B4022FAAB
:1011800007FC4CEA030C20FA07F405FA01F31C43B0
:10119000FD404FEA1C4900FA01F3B5FBF9F8200CB9
:1011A0001FFA8CFE09FB185540EA054508FB0EF0B6
:1011B000A84202FA01F20BD91CEB050508F1FF3A2F
:1011C00080F08880A84240F28580A8F1020865443A
:1011D0002D1AA4B2B5FBF9F009FB105544EA0545F8
:1011E00000FB0EFEAE4508D91CEB050500F1FF34EF
:1011F0006CD2AE456AD90238654440EA0840A0FB8B
:101200000294A5EB0E05A542C846A64656D353D078
:101210005EB1B3EB080265EB0E0505FA07F722FA9B
:1012200001F3CD401F43C6E900750021BDE8F087FA
:10123000C2F1200320FA03F10CFA02FC25FA03F3B1
:1012400095400D434FEA1C471FFA8CFEB3FBF7F1A4
:1012500007FB11302B0C43EA004301FB0EF09842D0
:1012600004FA02F408D91CEB030301F1FF382FD272
:1012700098422DD9023963441B1AADB2B3FBF7F083
:1012800007FB103345EA034500FB0EF3AB4208D9D8
:101290001CEB050500F1FF3816D2AB4214D9023819
:1012A0006544ED1A40EA014138E73146304607E728
:1012B0008646E5E61846FAE64B45A9D2B9EB0208A0
:1012C00064EB0C0E0138A3E74046EAE7204694E7BA
:1012D0004146D1E7D0467BE7023B654432E708460A
:1012E00009E76444023842E7704700BF80B586B022
:1012F00000AF01237B612C4A07F10C0392E8030045
:10130000186004331980294A3B4607CA03C31A8070
:101310000233120C1A7007F10C03184604F070FE29
:101320000346234A1360224B1B68002B07D107F1A9
:101330000C0319461F4807F097FD01232FE01C4BB3
:101340001B684FF48071184604F0A2FE184B186811
:101350003A460A23002104F0B9FF0021112008F0C9
:10136000FFFE16E00121112008F01AFF4FF4FA7079
:1013700004F0A6F80021112008F012FF4FF4FA70D3
:1013800004F09EF80A4B18683A460A23002104F03C
:101390009DFF7B695A1C7A61002BE3D1002318461C
:1013A0001837BD4680BD00BFB0060100B806010079
:1013B000B41800209C06010080B483B000AF03463F
:1013C0003960FB7197F90730002B0BDA3B68DAB212
:1013D0000C49FB7903F00F03043B5201D2B20B44DA
:1013E0001A7609E03B68DAB2074997F907305201EB
:1013F000D2B20B4483F8002300BF0C37BD4680BC3B
:10140000704700BF00ED00E000E100E080B483B071
:1014100000AF7860034A7B68136000BF0C37BD469D
:1014200080BC704710E000E080B483B000AF78600B
:10143000034A7B68536000BF0C37BD4680BC7047D1
:1014400010E000E080B400AF034B00229A6000BFC0
:10145000BD4680BC704700BF10E000E080B500AF23
:10146000002001F00CFD00BF80BD80B500AF05F08D
:10147000F5F905F051FA05F011FA00BF80BD80B40E
:1014800083B000AF0346FB7100BF0C37BD4680BC84
:101490007047000080B500AF0D4801F0C3FC01F0BB
:1014A000E3FCFFF7DBFF0F214FF0FF30FFF784FF76
:1014B000084B1B68084AA2FB03235B091846FFF789
:1014C000B3FFFFF7BFFF0720FFF7A0FF00BF80BDFE
:1014D0007F140000000000201F85EB5180B500AF95
:1014E0000020FEF7D9FE0A4B1B69094A43F00403AA
:1014F0001361FFF7CFFF0749074807F04DFD0EF0D6
:10150000A1F9064807F058FC06F02CF900BF80BD91
:1015100000ED00E0000001200C230020C4060100C3
:1015200080B483B000AF0346FB71FB7903F01F0268
:10153000064997F907305B09012000FA02F241F8E9
:10154000232000BF0C37BD4680BC704700E100E09F
:1015500080B483B000AF03463960FB7197F9073060
:10156000002B0BDA3B68DAB20C49FB7903F00F036E
:10157000043B5201D2B20B441A7609E03B68DAB25E
:10158000074997F907305201D2B20B4483F8002380
:1015900000BF0C37BD4680BC704700BF00ED00E0C7
:1015A00000E100E080B483B000AF78607B681B6826
:1015B00000BF0C37BD4680BC704780B483B000AF1D
:1015C000786039607B683A68C3F8042300BF0C3741
:1015D000BD4680BC704780B483B000AF786039608E
:1015E0007B683A68C3F8082300BF0C37BD4680BC4F
:1015F000704780B483B000AF786039607B68D3F8FF
:1016000004233B68134018460C37BD4680BC704726
:1016100080B483B000AF78600B467B807B887A68AB
:1016200013441B68002B14BF01230023DBB21846B0
:101630000C37BD4680BC704780B582B000AF786083
:101640000B467B807B887A68134400221A607B8873
:101650007A6813441846FFF7A5FF00BF0837BD4658
:1016600080BD80B483B000AF786039607B683A6831
:10167000C3F8082500BF0C37BD4680BC704780B456
:1016800083B000AF78600B46FB70FA787B68134438
:101690001A460123136000BF0C37BD4680BC70475B
:1016A00080B483B000AF786039607B683A68C3F873
:1016B000442300BF0C37BD4680BC704780B483B064
:1016C00000AF786039607B683A68C3F8482300BF90
:1016D0000C37BD4680BC704780B586B000AFF8605F
:1016E000B9607A60FB685B7919462A4A7B6842F8E0
:1016F0002130FB685B791946274A0B465B000B4497
:1017000013441B78002B03D0244B7B617B693DE0A5
:10171000FB6893F90420BB689B7819461046FFF7D5
:1017200017FFFB6893F904301846FFF7F9FEFB68D2
:101730001A68BB681B8819461046FFF792FFFB68C2
:101740005B791946BB681879134A0B465B000B445A
:101750001344013302461A70FB685B791946BB6873
:10176000D8780D4A0B465B000B4413440233024603
:101770001A70FB685B791946074A0B465B000B44FD
:10178000134401221A70064B7B617B691846183797
:10179000BD4680BDB8180020C41800200500AD0B60
:1017A0000000AD0B80B582B000AF78607B681B682D
:1017B00000211846FFF763FF7B685B791946054AED
:1017C0000B465B000B44134402221A7000BF08371B
:1017D000BD4680BDC418002080B584B000AF7860DD
:1017E0000B46FB704FF48073FB810123BB607B6869
:1017F0001B68FA8911461846FFF71EFF7B681B68B5
:10180000B9681846FFF74CFFFB78002B05D07B68C2
:101810001B68B9681846FFF7D0FE00BF1037BD46F9
:1018200080BD000080B588B000AFF860B9607A6014
:101830004FF48033BB614FF4A073FB820023FB6144
:101840002CE0B969F868FFF7D4FE0346002B1CD0E2
:10185000FB8A1946F868FFF7DBFE0346002B14D01D
:10186000B969F868FFF72AFFB969F868FFF7B3FEAE
:10187000FB8A1946F868FFF7DFFE294ABB6852F871
:101880002330FA69D2B210469847BB695B00BB614E
:10189000FB8A0433FB82FB690133FB61FA697B68D5
:1018A0009A42CED34FF48073FB820121F868FFF790
:1018B000A0FE0346002B12D0FB8A1946F868FFF7FA
:1018C000A7FE0346002B0AD0FB8A1946F868FFF7EB
:1018D000B3FE134ABB6852F82330042098474FF4F4
:1018E0008273FB820221F868FFF783FE0346002B18
:1018F00012D0FB8A1946F868FFF78AFE0346002BD0
:101900000AD0FB8A1946F868FFF796FE044ABB68BE
:1019100052F823300520984700BF2037BD4680BDD0
:10192000B818002080B500AF032200210248FFF75D
:1019300079FF00BF80BD00BF00B0004080B500AFA0
:10194000042201210248FFF76DFF00BF80BD00BFE8
:101950000010014080B500AF042202210248FFF7C9
:1019600061FF00BF80BD00BF0040024080B483B073
:1019700000AF1E4B1B68B3F1FF3F0AD11C4B1B6825
:10198000DBB27B601B4B1B681B0903F00F033B6042
:1019900005E0164B1B687B60174B1B683B607B6840
:1019A000062B1DD13B68033B042B17D801A252F82C
:1019B00023F000BFC9190000CD190000D1190000A3
:1019C000D5190000D919000001230AE0012308E01D
:1019D000012306E0012304E0012302E0012300E0EB
:1019E000002318460C37BD4680BC704730010010FC
:1019F000E00F00F0E80F00F03401001080B483B075
:101A000000AF184B1B68DBB27B60174B1B681B09D0
:101A100003F00F033B607B68062B1DD13B68033B43
:101A2000042B17D801A252F823F000BF411A00007E
:101A3000451A0000491A00004D1A0000511A000012
:101A400001230AE0002308E0002306E0002304E06D
:101A5000002302E0002300E0002318460C37BD46B7
:101A600080BC7047E00F00F0E80F00F080B483B056
:101A700000AF1E4B1B68B3F1FF3F0AD11C4B1B6824
:101A8000DBB27B601B4B1B681B0903F00F033B6041
:101A900005E0164B1B687B60174B1B683B607B683F
:101AA000062B1DD13B68033B042B17D801A252F82B
:101AB00023F000BFC91A0000CD1A0000D11A00009F
:101AC000D51A0000D91A000001230AE0012308E01A
:101AD000012306E0012304E0012302E0012300E0EA
:101AE000002318460C37BD4680BC704730010010FB
:101AF000E00F00F0E80F00F03401001080B483B074
:101B000000AF184B1B68DBB27B60174B1B681B09CF
:101B100003F00F033B607B68062B1DD13B68033B42
:101B2000042B17D801A252F823F000BF411B00007C
:101B3000451B0000491B00004D1B0000511B00000D
:101B400001230AE0002308E0002306E0002304E06C
:101B5000002302E0002300E0002318460C37BD46B6
:101B600080BC7047E00F00F0E80F00F080B483B055
:101B700000AF1E4B1B68B3F1FF3F0AD11C4B1B6823
:101B8000DBB27B601B4B1B681B0903F00F033B6040
:101B900005E0164B1B687B60174B1B683B607B683E
:101BA000062B1DD13B68033B042B17D801A252F82A
:101BB00023F000BFC91B0000CD1B0000D11B00009B
:101BC000D51B0000D91B000001230AE0012308E017
:101BD000012306E0012304E0012302E0012300E0E9
:101BE000002318460C37BD4680BC704730010010FA
:101BF000E00F00F0E80F00F03401001080B483B073
:101C000000AF184B1B68DBB27B60174B1B681B09CE
:101C100003F00F033B607B68062B1DD13B68033B41
:101C2000042B17D801A252F823F000BF411C00007A
:101C3000451C0000491C00004D1C0000511C000008
:101C400001230AE0002308E0002306E0002304E06B
:101C5000002302E0002300E0002318460C37BD46B5
:101C600080BC7047E00F00F0E80F00F080B483B054
:101C700000AF184B1B68DBB27B60174B1B681B095E
:101C800003F00F033B607B68062B1DD13B68033BD1
:101C9000042B17D801A252F823F000BFB11C00009A
:101CA000B51C0000B91C0000BD1C0000C11C0000D8
:101CB00001230AE0002308E0002306E0002304E0FB
:101CC000002302E0002300E0002318460C37BD4645
:101CD00080BC7047E00F00F0E80F00F080B483B0E4
:101CE00000AF1E4B1B68B3F1FF3F0AD11C4B1B68B2
:101CF000DBB27B601B4B1B681B0903F00F033B60CF
:101D000005E0164B1B687B60174B1B683B607B68CC
:101D1000062B1DD13B68033B042B17D801A252F8B8
:101D200023F000BF391D00003D1D0000411D0000D3
:101D3000451D0000491D000000230AE0002308E0C3
:101D4000012306E0012304E0012302E0012300E077
:101D5000002318460C37BD4680BC70473001001088
:101D6000E00F00F0E80F00F03401001080B483B001
:101D700000AF1E4B1B68B3F1FF3F0AD11C4B1B6821
:101D8000DBB27B601B4B1B681B0903F00F033B603E
:101D900005E0164B1B687B60174B1B683B607B683C
:101DA000062B1DD13B68033B042B17D801A252F828
:101DB00023F000BFC91D0000CD1D0000D11D000093
:101DC000D51D0000D91D000001230AE0012308E011
:101DD000012306E0012304E0012302E0012300E0E7
:101DE000002318460C37BD4680BC704730010010F8
:101DF000E00F00F0E80F00F03401001080B483B071
:101E000000AF1E4B1B68B3F1FF3F0AD11C4B1B6890
:101E1000DBB27B601B4B1B681B0903F00F033B60AD
:101E200005E0164B1B687B60174B1B683B607B68AB
:101E3000062B1DD13B68033B042B17D801A252F897
:101E400023F000BF591E00005D1E0000611E00004F
:101E5000651E0000691E000001230AE0012308E05E
:101E6000012306E0012304E0012302E0012300E056
:101E7000002318460C37BD4680BC70473001001067
:101E8000E00F00F0E80F00F03401001080B483B0E0
:101E900000AF164B1B687B60154B1B683B607B6873
:101EA000062B1DD13B68033B042B17D801A252F827
:101EB00023F000BFC91E0000CD1E0000D11E00008F
:101EC000D51E0000D91E000000230AE0002308E010
:101ED000002306E0012304E0012302E0012300E0E7
:101EE000002318460C37BD4680BC704730010010F7
:101EF0003401001080B483B000AF164B1B687B60C8
:101F0000154B1B683B607B68062B1DD13B68033B70
:101F1000042B17D801A252F823F000BF311F000094
:101F2000351F0000391F00003D1F0000411F000049
:101F300000230AE0002308E0002306E0002304E079
:101F4000012302E0012300E0002318460C37BD46C0
:101F500080BC7047300100103401001080B500AF24
:101F6000FFF7C8FF0346002B07D04FF010234FF0B8
:101F70008042D3F80832C2F8583500BF80BD000057
:101F800080B400AF034B044A1A6000BFBD4680BC5A
:101F9000704700BF000000200090D00380B500AF64
:101FA000FFF7E4FC0346002B06D07F4B1B681B0A9F
:101FB0007E4A03F01F031360FFF720FD0346002B4A
:101FC00002D07B4B7B4A1A60FFF750FD0346002B83
:101FD00006D0794B1B685B0B784A03F0070313604C
:101FE000FFF78CFD0346002B05D0754BDB68744A68
:101FF00023F08073D360FFF7B9FD0346002B0ED0AA
:102000004FF080430022C3F80C214FF080430022A0
:10201000C3F810214FF080430022C3F83825FFF7A2
:10202000EDFD0346002B02D0664B03221A60FFF73A
:102030001DFE0346002B0BD0634B05221A60634B39
:1020400001221A60624B00221A60624B3F221A6022
:10205000FFF744FE0346002B76D04FF080535E4AD4
:10206000D3F80434C2F820354FF080535A4AD3F8DD
:102070000834C2F824354FF08053574AD3F80C3453
:10208000C2F828354FF08053534AD3F81034C2F8C1
:102090002C354FF08053504AD3F81434C2F8303501
:1020A0004FF080534C4AD3F81834C2F834354FF00F
:1020B0008053494AD3F81C34C2F840354FF080535E
:1020C000454AD3F82034C2F844354FF08053424A91
:1020D000D3F82434C2F848354FF080533E4AD3F841
:1020E0002834C2F84C354FF080533B4AD3F82C3497
:1020F000C2F850354FF08053374AD3F83034C2F825
:1021000054354FF08053344AD3F83434C2F8603534
:102110004FF08053304AD3F83834C2F864354FF06A
:1021200080532D4AD3F83C34C2F868354FF08053C1
:10213000294AD3F84034C2F86C354FF08053264A10
:10214000D3F84434C2F87035FFF710FE0346002B75
:1021500005D0224B1B68224A03F04F031360FFF7A0
:102160004DFE0346002B0DD04FF08043D3F80034D2
:1021700003F00103002B05D04FF080436FF0010204
:10218000C3F80024FFF782FE0346002B05D0154B51
:102190001B68144A43F480631360FFF7DFFEFFF708
:1021A000EFFE00BF80BD00BF24030010403501409A
:1021B00074C007400DF0ADBA440200103C05004069
:1021C000F0ED00E0A00500401056004088560040A9
:1021D000185600401456004000C00040580200103D
:1021E000E40E00403C17004080B483B000AF0346CB
:1021F000FB71FB7903F01F02064997F907305B0971
:10220000012000FA02F241F8232000BF0C37BD463E
:1022100080BC704700E100E080B483B000AF0346AB
:102220003960FB7197F90730002B0BDA3B68DAB2A3
:102230000C49FB7903F00F03043B5201D2B20B446B
:102240001A7609E03B68DAB2074997F9073052017C
:10225000D2B20B4483F8002300BF0C37BD4680BCCC
:10226000704700BF00ED00E000E100E080B483B003
:1022700000AF78607B681B0B5BB218460C37BD461D
:1022800080BC704780B483B000AF78607B681B6807
:1022900000BF0C37BD4680BC704780B483B000AF30
:1022A00078600B46FB70FB787A68134401221A6051
:1022B00000BF0C37BD4680BC704780B483B000AF10
:1022C00078600B46FB70FA787B68134418460C372D
:1022D000BD4680BC704780B582B000AF78600B46C9
:1022E0007B807B887A68134400221A607B887A6836
:1022F00013441846FFF7C6FF00BF0837BD4680BD30
:1023000080B483B000AF78600B467B807B887A68AE
:1023100013441B68002B14BF01230023DBB21846B3
:102320000C37BD4680BC704780B483B000AF786086
:1023300039607B683A68C3F8002200BF0C37BD469D
:1023400080BC704780B483B000AF786039607B6830
:102350003A68C3F8002300BF0C37BD4680BC704705
:1023600080B483B000AF78607B680122C3F8002599
:1023700000BF0C37BD4680BC704780B485B000AF4D
:10238000786039600023FB730DE0FB7B9B003A68AB
:102390001344FA7B19687B6802F5AC7243F822108B
:1023A000FB7B0133FB73FB7B032BEED900BF00BF2C
:1023B0001437BD4680BC704780B483B000AF7860EE
:1023C000084611461A460346FB700B46BB7013467F
:1023D0003B80FA787B68C3F80C25BA787B68C3F831
:1023E00004253A887B68C3F8082500BF0C37BD4632
:1023F00080BC704780B584B000AFF8600B467A604F
:10240000FB727B681A68FB7A1946F86800F019F8C5
:102410007B689A88FB7A1946F86800F025F87B6893
:102420009A68FB7A1946F86800F033F87B68DA6836
:10243000FB7A1946F86800F040F800BF1037BD4637
:1024400080BD80B485B000AFF8600B467A60FB7247
:10245000FB7A7A68F96829335B010B441A6000BF84
:102460001437BD4680BC704780B483B000AF78603D
:102470000B46FB7013463B80FB783A88796829331A
:102480005B010B4404331A6000BF0C37BD4680BCAF
:10249000704780B485B000AFF8600B467A60FB727D
:1024A000FB7AFA685B01134403F5A5637A681A6046
:1024B00000BF1437BD4680BC704780B485B000AF04
:1024C000F8600B467A60FB72FB7AFA685B01134492
:1024D00003F22C537A681A6000BF1437BD4680BCE3
:1024E000704780B483B000AF78600B46FB70134632
:1024F000BB70FA78BB781B021A437B68C3F81025BF
:1025000000BF0C37BD4680BC704780B483B000AFBD
:1025100078600B467B807A887B68C3F8142500BFFF
:102520000C37BD4680BC704780B582B000AF786084
:10253000786800F08DF84FF0A04318460837BD4684
:1025400080BD80B584B000AF7860084611461A4659
:102550000346FB700B46BB7013467B703B1D184651
:10256000FFF7E2FFF8600023BB60FA78BB785B00FE
:102570001A437B789B001A433B7E1B021A433B7F26
:102580001B041343BA681343BB607A68FB6802F507
:10259000E072B96843F8221000BF1037BD4680BD15
:1025A00080B584B002AF78600023019300230093CC
:1025B0000023012201217868FFF7C3FF00BF08371D
:1025C000BD4680BD80B584B000AF78603B1D184625
:1025D000FFF7AAFFF8607B68012202FA03F31946AD
:1025E000F86800F019F800BF1037BD4680BD80B50F
:1025F00084B000AF78603B1D1846FFF795FFF86088
:102600007B68012202FA03F31946F86800F012F819
:1026100000BF1037BD4680BD80B483B000AF786086
:1026200039607B683A68C3F8082500BF0C37BD469F
:1026300080BC704780B483B000AF786039607B683D
:102640003A68C3F80C2500BF0C37BD4680BC704704
:1026500080B485B000AF78607B681B68FB60FB6866
:1026600003F01F027B681A60FB685B091846143789
:10267000BD4680BC704780B588B000AF78603960D7
:102680000023FB774EE0FB7F3A68D35CBB77BB7FD0
:10269000FF2B3BD0BB7F03F08003002B14BF012333
:1026A00000237B77BA7FFB7F22F080029B0007F13B
:1026B00020010B4443F8142C3B681B7B83F001037F
:1026C000DBB2002B2BD07B7F002B0AD0FB7F9B0043
:1026D00007F12002134453F8143C1846FFF772FF29
:1026E00009E0FB7F9B0007F12002134453F8143CE0
:1026F0001846FFF77CFFFB7F9B0007F12002134485
:1027000053F8143C1846FFF74BFF08E0FB7F9B0093
:1027100007F1200213444FF0FF3243F8142CFB7FE3
:102720000133FB77FB7F032BADD97B681B6807F177
:102730000C0211461846FFF720FE00BF2037BD46A9
:1027400080BD000080B586B000AFF860B9607A60E7
:102750003B60FB681B791A4613465B0013449B00E1
:102760003C4A13447B617B691B7ADBB2002B03D0AC
:10277000394B3B613B6969E07B697A681A607B6928
:102780003A685A60B968F868FFF775FFFB681B681C
:102790001846FFF7E5FDFB681868BB685979BB6808
:1027A0009A79BB681B89FFF707FEFB681868BB684E
:1027B000997ABB68DB7A1A46FFF793FEFB681B68C1
:1027C00000211846FFF7B0FDFB681B680021184682
:1027D000FFF7B8FDFB681B684FF48E711846FFF7D2
:1027E0007AFDFB681B684FF488711846FFF773FD8C
:1027F000FB681B684FF48A711846FFF76CFDFB6895
:102800001B684FF482711846FFF765FD7B691B68F2
:10281000002B15D0FB681B681846FFF727FD034601
:102820001A46BB681B7919461046FFF7F5FCFB6892
:102830001B681846FFF71AFD03461846FFF7D4FC3D
:102840007B6901221A72054B3B613B6918461837B8
:10285000BD4680BDD01800200500AD0B0000AD0BBB
:1028600080B586B000AFF860B96011461A460B46D5
:10287000FB711346BB71BB6802221A72BB68FA79FE
:102880005A72BB681B68002B22D082237B61FB79C4
:1028900003F00403002B03D07B6943F010037B613A
:1028A000FB7903F00803002B03D07B6943F020037E
:1028B0007B61FB7903F01003002B03D07B6923F0CD
:1028C00080037B61FB681B6879691846FFF73AFD56
:1028D000FB681B684FF482711846FFF7FCFC97F900
:1028E0000730002B09DAFB681B68BA7911461846D5
:1028F000FFF7E3FC38613B6907E0FB681B68BA79C6
:1029000011461846FFF7C9FC002318461837BD4684
:1029100080BD000080B588B000AFF860B9603B6052
:102920001346FB80FB681B791A4613465B00134471
:102930009B00294A1344BB61FB681B68BA680021ED
:102940001846FFF757FDFB681B68BA680121184657
:10295000FFF750FDFB8803F00103002B14BF012398
:102960000023FB75FB681868FB885B089AB2FB7D47
:102970009BB213449BB21946FFF7C7FD3B6803F0B7
:102980000103002B02D01023FB610EE03B6803F033
:102990000203002B07D0FB7D002B01D0082300E0B1
:1029A0000423FB6101E00023FB61FB681B68F969FC
:1029B0001846FFF7B9FC3B68DAB2FB7D002B01D06B
:1029C0000C2300E00823B969F868FFF749FF0346C4
:1029D00018462037BD4680BDD018002080B584B091
:1029E00000AF78600B46FB700023FB737B681B68AD
:1029F00000211846FFF798FC7B681B6804211846E5
:102A0000FFF74BFC786800F017F80346002B02D064
:102A10000123FB730BE0786800F00EF80346002BEF
:102A200002D00123FB7302E0FB78002BF3D1FB7B88
:102A300018461037BD4680BD80B584B000AF7860C1
:102A40007B681B791A4613465B0013449B00104AAF
:102A50001344BB600023FB73BB681B7ADBB2022B01
:102A600001D00123FB737B681B684FF48271184609
:102A7000FFF746FC0346002B04D0BB6801221A7204
:102A80000123FB73FB7B18461037BD4680BD00BF9A
:102A9000D018002080B582B000AF786039604FF464
:102AA00088717868FFF72CFC0346002B15D04FF493
:102AB00088717868FFF70FFC3B685B7A03F00403CA
:102AC000002B0AD03B681B68002B06D03B681B68B4
:102AD0003A6852681146012098474FF48A71786825
:102AE000FFF70EFC0346002B15D04FF48A7178686F
:102AF000FFF7F1FB3B685B7A03F00803002B0AD079
:102B00003B681B68002B06D03B681B683A6852681C
:102B10001146022098474FF48E717868FFF7F0FB5A
:102B20000346002B15D04FF48E717868FFF7D3FB66
:102B30003B685B7A03F01003002B0AD13B681B68EB
:102B4000002B06D03B681B683A685268114600208B
:102B500098474FF482717868FFF7D2FB0346002B49
:102B600012D04FF482717868FFF7B5FB3B68012201
:102B70001A723B681B68002B06D03B681B683A68DA
:102B8000526811460320984700BF0837BD4680BDF4
:102B900080B500AF02490348FFF77CFF00BF80BD4E
:102BA000D018002000C0014080B483B000AF0346BD
:102BB000FB71FB7903F01F02064997F907305B09A7
:102BC000012000FA02F241F8232000BF0C37BD4675
:102BD00080BC704700E100E080B483B000AF0346E2
:102BE0003960FB7197F90730002B0BDA3B68DAB2DA
:102BF0000C49FB7903F00F03043B5201D2B20B44A2
:102C00001A7609E03B68DAB2074997F907305201B2
:102C1000D2B20B4483F8002300BF0C37BD4680BC02
:102C2000704700BF00ED00E000E100E080B483B039
:102C300000AF78607B681B0B5BB218460C37BD4653
:102C400080BC704780B483B000AF0346FB71114A6B
:102C500097F90730002B00DA1F335B115BB252F893
:102C6000232097F90730594203F01F0301F01F0199
:102C700058BF4B425BB222FA03F303F00103002B6F
:102C800014BF01230023DBB218460C37BD4680BCBD
:102C9000704700BF00E100E080B483B000AF78600F
:102CA0007B681B6800BF0C37BD4680BC704780B492
:102CB00083B000AF786039607B683A68C3F804235A
:102CC00000BF0C37BD4680BC704780B483B000AFF6
:102CD000786039607B683A68C3F8082300BF0C3716
:102CE000BD4680BC704780B483B000AF78600B46AF
:102CF000FB70FB787A68134401221A6000BF0C371E
:102D0000BD4680BC704780B582B000AF78600B468E
:102D10007B807B887A68134400221A607B887A68FB
:102D200013441846FFF7B8FF00BF0837BD4680BD03
:102D300080B483B000AF78600B467B807B887A6874
:102D400013441B68002B14BF01230023DBB2184679
:102D50000C37BD4680BC704780B483B000AF78604C
:102D600039607B683A68C3F8182500BF0C37BD4648
:102D700080BC704780B582B000AF0723FB714FF075
:102D80008040FFF753FF03461846FFF75BFF0346FB
:102D900083F00103DBB2002B12D04FF08040FFF72D
:102DA00045FF03461A46FB7919461046FFF714FF04
:102DB0004FF08040FFF73AFF03461846FFF7F4FE56
:102DC00000BF0837BD4680BD80B485B000AF134B4F
:102DD000DB68FB60114AFB6843F08073D360104BE3
:102DE0001B68BB600E4ABB6843F0010313600C4BC9
:102DF0005B687B6000BF0A4B5A687B68D31AB3F5E7
:102E00000A5FF8D3064ABB681360044AFB68D360C4
:102E100000BF1437BD4680BC704700BFF0ED00E036
:102E2000001000E080B485B000AF78600B4BFB6011
:102E30000B4B1B79002B02D00A4BFB6008E0084AC1
:102E40007B681360064B01221A71054B00225A71F0
:102E5000FB6818461437BD4680BC70470000AD0BB8
:102E6000DC1800200C00AD0B80B500AFFFF782FF2F
:102E700001214FF08040FFF76FFF00BF80BD80B59C
:102E800082B000AF0346FB71FB79002B02D0012B0F
:102E900013D023E04FF482714FF08040FFF733FFEF
:102EA00002214FF08040FFF702FFFFF78DFF08215E
:102EB0004FF08040FFF717FF10E04FF480714FF0A4
:102EC0008040FFF720FF01214FF08040FFF7EFFE29
:102ED00000214FF08040FFF706FF00BF00BF08371A
:102EE000BD4680BD80B500AF4FF480714FF080408B
:102EF000FFF71EFF0346002B18D04FF480714FF0F0
:102F00008040FFF700FF01214FF08040FFF7DDFE1A
:102F1000134B5B7983F00103DBB2002B06D0104B1F
:102F200001225A710E4B1B68002098474FF48271A2
:102F30004FF08040FFF7FCFE0346002B0ED04FF40D
:102F400082714FF08040FFF7DEFE02214FF080409B
:102F5000FFF7BBFE024B1B680120984700BF80BDF6
:102F6000DC18002080B483B000AF0346FB71FB790E
:102F700003F01F02064997F907305B09012000FAA8
:102F800002F241F8232000BF0C37BD4680BC7047D9
:102F900000E100E080B483B000AF03463960FB710C
:102FA00097F90730002B0BDA3B68DAB20C49FB7952
:102FB00003F00F03043B5201D2B20B441A7609E02E
:102FC0003B68DAB2074997F907305201D2B20B4495
:102FD00083F8002300BF0C37BD4680BC704700BF9C
:102FE00000ED00E000E100E080B483B000AF786065
:102FF0007B681B0B5BB218460C37BD4680BC704724
:1030000080B483B000AF78607B681B6800BF0C376A
:10301000BD4680BC704780B483B000AF78600B467B
:103020007B807B887A6813441B68002B14BF0123C4
:103030000023DBB218460C37BD4680BC704780B514
:1030400082B000AF78600B467B807B881946786839
:1030500000F011F803461A46002313607B881946D6
:10306000786800F008F803461846FFF7C9FF00BF6C
:103070000837BD4680BD80B483B000AF78600B4692
:103080007B807A887B68134418460C37BD4680BC29
:10309000704780B483B000AF786039607B683A686D
:1030A000C3F8042300BF0C37BD4680BC704780B412
:1030B00083B000AF786039607B683A68C3F8082352
:1030C00000BF0C37BD4680BC704780B483B000AFF2
:1030D000786039607B68D3F804233B681340184656
:1030E0000C37BD4680BC704780B483B000AF7860B9
:1030F00039607B683A6802F5A27253F8223043F0D7
:1031000001017B683A6802F5A27243F8221000BF01
:103110000C37BD4680BC704780B483B000AF786088
:1031200039607B683A6802F5A27253F8223023F0C6
:1031300001017B683A6802F5A27243F8221000BFD1
:103140000C37BD4680BC704780B485B000AFF860D6
:10315000B9607A60FB70FB68BA6802F5A27253F836
:10316000223023F4473323F44073FA68B96801F539
:10317000A27142F82130FB68BA6802F5A27253F8D6
:1031800022207B681B0203F4F851FB781B0403F434
:1031900040330B4342EA0301FB68BA6802F5A272AE
:1031A00043F8221000BF1437BD4680BC704780B47E
:1031B00083B000AF786039607B683A6802F5A2722C
:1031C00053F822301B0A03F01F0318460C37BD4684
:1031D00080BC704780B483B000AF786039607B6892
:1031E0003A6802F5A27253F822301B0C03F0030375
:1031F000DBB218460C37BD4680BC704780B483B044
:1032000000AF786039607B683A6802F5A2720021ED
:1032100043F8221000BF0C37BD4680BC704780B415
:1032200083B000AF0346FB71FB799B0003F580730D
:103230009BB218460C37BD4680BC704780B582B043
:1032400000AF7860786800F041F94FF0A04318466D
:103250000837BD4680BD80B584B000AF78600846B1
:1032600011461A460346FB700B46BB7013467B7033
:103270003B1D1846FFF7E2FFF8600023BB60FA78B9
:10328000BB785B001A437B789B001A433B7E1B0292
:103290001A433B7F1B041343BA681343BB607A682D
:1032A000FB6802F5E072B96843F8221000BF1037DE
:1032B000BD4680BD80B584B002AF78600B46FB7020
:1032C000FB780022019200220092002200217868FF
:1032D000FFF7C1FF00BF0837BD4680BD80B584B091
:1032E00002AF7860002301930023009300230122A2
:1032F00000217868FFF7AFFF00BF0837BD4680BDEB
:1033000080B584B000AF78603B1D1846FFF796FF8C
:10331000F8607A68FB6802F5E07253F8223023F017
:103320000203BB607A68FB6802F5E072B96843F893
:10333000221000BF1037BD4680BD80B584B000AFFD
:1033400078600B46FB703B1D1846FFF777FFF8606F
:103350007A68FB6802F5E07253F8223023F44033B8
:10336000BB60FB781B0419467A68BB681943FB688D
:1033700002F5E07243F8221000BF1037BD4680BD51
:1033800080B584B000AF78603B1D1846FFF756FF4C
:10339000F860F86800F021F802467B6822FA03F32F
:1033A00003F0010318461037BD4680BD80B584B0D8
:1033B00000AF78603B1D1846FFF740FFF8607A6861
:1033C000FB6802F5E07253F822301B0C03F0030394
:1033D000DBB218461037BD4680BD80B483B000AF65
:1033E00078607B68D3F8103518460C37BD4680BC32
:1033F000704780B487B000AFF860B9607A604FF072
:10340000A0433B61FB687B611BE07B699B0007F18C
:103410001802134453F8083CD3F820257B681A603F
:103420007B699B0007F11802134453F8083C7A6843
:103430001268C3F820257B6804337B607B69013305
:103440007B61FA68BB6813447A699A42DDD300BF96
:1034500000BF1C37BD4680BC704780B584B000AF4C
:1034600078603B1D1846FFF7E9FEF8607B68012293
:1034700002FA03F31A46FB68C3F8202500BF103791
:10348000BD4680BD80B485B000AF78607B685B09C5
:10349000BB600023FB60BB68002B03D14FF0FF3300
:1034A000FB6000BF7B6803F01F037B60FA687B68EA
:1034B00022FA03F303F00103002B14BF01230023BE
:1034C000DBB218461437BD4680BC704780B485B067
:1034D00000AF78607B681B68FB60FB6803F01F022D
:1034E0007B681A60FB685B0918461437BD4680BCD0
:1034F000704780B485B000AF786039603B68FB608E
:103500007B68DB08BB607B6803F007037B60FA68BD
:10351000BB6813441B781A467B6822FA03F303F056
:103520000103002B14BF01230023DBB2184614371C
:10353000BD4680BC704780B485B000AF786039600C
:103540003B68FB607B68DB08BB607B6803F00703BC
:103550007B60FA68BB6813441B785AB201217B6810
:1035600001FA03F35BB2134359B2FA68BB68134420
:10357000CAB21A7000BF1437BD4680BC704780B411
:1035800085B000AF786039603B68FB607B68DB0822
:10359000BB607B6803F007037B60FA68BB68134479
:1035A0001B785AB201217B6801FA03F35BB2DB435B
:1035B0005BB2134059B2FA68BB681344CAB21A70BE
:1035C00000BF1437BD4680BC7047000080B483B094
:1035D00000AF78600D4A7B681344243393F90030C0
:1035E000002B09DB094A7B681344243393F900302C
:1035F000072B01DC012300E0002303F00103DBB211
:1036000018460C37BD4680BC704700BFE418002048
:1036100080B483B000AF7860074A7B6813442433DA
:1036200093F90030072BCCBF01230023DBB21846EF
:103630000C37BD4680BC7047E418002080B483B0CE
:1036400000AF7860074A7B681344243393F9003055
:10365000DB43DBB2DB09DBB218460C37BD4680BC6E
:10366000704700BFE418002080B485B000AFF86058
:10367000B9607A60FB70BB6859B20F4AFB681344AB
:1036800024330A461A700C49BB687A6841F8232033
:10369000FB7883F00103DBB2002B08D0BB68083B4A
:1036A000FA6851B2044A13440A4683F8442000BF22
:1036B0001437BD4680BC7047E418002080B483B046
:1036C00000AF7860054A7B6813442433FF221A70E8
:1036D00000BF0C37BD4680BC704700BFE418002017
:1036E00080B582B000AF786003497868FFF723FFA8
:1036F00000BF0837BD4680BD2919002080B582B0C3
:1037000000AF786003497868FFF739FF00BF0837DA
:10371000BD4680BD2919002080B582B000AF786019
:1037200004497868FFF7E5FE034618460837BD46AA
:1037300080BD00BF2919002080B483B000AF78603D
:10374000054A7B681344243393F9003018460C373C
:10375000BD4680BC704700BFE418002080B483B031
:1037600000AF78600C4A7B6852F82330B3F1FF3F1A
:103770000BD0094A7B6852F8233013F1020F04D0B2
:10378000054A7B6852F8233000E0002318460C37C6
:10379000BD4680BC704700BFE418002080B485B0EF
:1037A00000AF7860074A7B681344443393F90030D4
:1037B000FB73FB7B23F0C00318461437BD4680BC67
:1037C000704700BFE418002080B485B000AF786077
:1037D000074A7B681344443393F90030FB73FB7B47
:1037E0009B09DBB218461437BD4680BC704700BF4A
:1037F000E418002080B485B000AF0346FB710023BD
:10380000FB73FB79094A52F82330B3F1FF3F07D12C
:10381000FB79064A6FF0010142F823100123FB7384
:10382000FB7B18461437BD4680BC7047E418002067
:1038300080B584B000AF0346FB71FF23FB73FB79B7
:10384000002B0BD007F10D03184600F02DF90346AD
:103850000F4A934215D17B7BFB7312E00823BB73A5
:103860000CE0BB7B1846FFF7C5FF0346002B02D0D8
:10387000BB7BFB7305E0BB7B0133BB73BB7B082BBE
:10388000EFD997F90F3018461037BD4680BD00BFFD
:103890000000AD0B80B582B000AF0346FB71FB7931
:1038A0000B4A4FF0FF3142F82310FB79072B07D961
:1038B000FB79083B064A1344FF2283F8442003E0C7
:1038C000FB79184600F0CEF800BF0837BD4680BD32
:1038D000E418002080B584B000AF0346FB71304B84
:1038E00093F84930002B03D02E4BBB60BB6853E0EC
:1038F0000023FB730DE0FB7B1846FFF7C3FD034677
:10390000002B03D0FB7B1846FFF7D8FEFB7B01336F
:10391000FB73FB7B1F2BEED90023FB7312E0FB7BB9
:103920001F4A4FF0FF3142F82310FB7B072B06D9CB
:10393000FB7B083B1A4A1344FF2283F84420FB7B9D
:103940000133FB73FB7B082BE9D9042200211648C5
:103950000CF09CFC1548FFF747FB03461A46FB7921
:1039600019461046FFF716FB1048FFF73DFB0346CC
:103970001846FFF7F7FA4FF4BE710C48FFF75FFBEC
:103980004FF000410948FFF784FB054B012283F803
:103990004920074BBB60BB6818461037BD4680BD49
:1039A000E41800200500AD0B29190020006000403C
:1039B0000000AD0B80B483B000AF0346FB71084B31
:1039C000DA6CFB79012101FA03F31340002B14BFD9
:1039D00001230023DBB218460C37BD4680BC70477C
:1039E000E418002080B483B000AF0346FB71FB797C
:1039F000012202FA03F3DBB2002B14BF01230023E0
:103A0000DBB218460C37BD4680BC704780B483B02B
:103A100000AF0346FB71074BDA6CFB79012101FA19
:103A200003F31343034AD36400BF0C37BD4680BC85
:103A3000704700BFE418002080B483B000AF034695
:103A4000FB71074BDA6CFB79012101FA03F3DB43CD
:103A50001340034AD36400BF0C37BD4680BC704797
:103A6000E418002080B584B000AF0346FB710C4B16
:103A7000FB60FB791846FFF7B5FF034683F00103AF
:103A8000DBB2002B02D0074BFB6003E0FB7918464A
:103A9000FFF7D2FFFB6818461037BD4680BD00BF58
:103AA0000000AD0B0400AD0B80B586B000AF7860B0
:103AB0001D4B7B61FF233B610023FB7329E0FB7BF4
:103AC0003A6922FA03F303F00103002B12D0FB7BC7
:103AD0001846FFF76FFF034683F00103DBB2002BAC
:103AE00008D0FB7B1846FFF791FF7B68FA7B1A70C2
:103AF0000E4B7B617B690D4A93420ED0FB7B01220A
:103B000002FA03F3DB433A6913403B61FB7B013369
:103B1000FB733B69002BD2D100E000BF7B691846E4
:103B20001837BD4680BD00BF0200AD0B0000AD0BD5
:103B300080B586B000AFF860B9607A60FB70444B26
:103B40007B61FB78002B0BD0BB689B78C3F34003F1
:103B5000DBB283F00103DBB2002B01D03D4B72E0FE
:103B6000F868FFF76BFD0346002B02D03A4B7B61F0
:103B700068E0FF23FB74FB78002B03D097F820301C
:103B8000FB7409E0BB689B78C3F34003DBB21846C3
:103B9000FFF74EFE0346FB7497F91330B3F1FF3F76
:103BA0004ED097F91310BB689B78C3F34003DBB288
:103BB0007A68F868FFF758FDBB689B78C3F3800309
:103BC000DBB283F00103DBB2002B13D0BB689B7820
:103BD00003F00103DBB2002B03D0F868FFF790FB82
:103BE00005E0BB685B781946F868FFF763FBF86887
:103BF000FFF776FDBB689B7803F00203DBB2002B76
:103C000008D097F91310BB681B78FA681348FFF7C0
:103C10009BFA17E097F91330083B114A134493F9C4
:103C20004410BB681B789B015AB297F91330083BCC
:103C30000A4351B20A4A13440A4683F8442001E079
:103C4000084B7B617B6918461837BD4680BD00BFB5
:103C50000000AD0B0400AD0B0B00AD0B006000408D
:103C6000E41800200200AD0B80B588B002AFF86008
:103C7000B9607A600023009300237A68B968F86815
:103C8000FFF756FF78617B6918461837BD4680BD3F
:103C900080B588B000AF78600B46FB707868FFF79E
:103CA000B7FC0346002B24D07868FFF745FD034698
:103CB000083B1846FFF788FD0346FB73FB7B032B8D
:103CC0000AD17868FFF75CFB0346002B01D0032381
:103CD00000E00223FB7706E0FB7B012B01D10223EE
:103CE00000E00323FB77FB7F19467868FFF725FB8D
:103CF00031E07868FFF76AFC0346002B2BD0786828
:103D0000FFF71AFD0346BB61BB69DBB21846FFF73C
:103D100086FA0346FB82BB6919461148FFF7E4F9AE
:103D2000FB8A19460E48FFF78AF9FB78002B12D060
:103D30007868FFF701FD03461846FFF70FFD38616D
:103D40003B69002B07D00122BB6902FA03F3194635
:103D50000348FFF79EF900BF2037BD4680BD00BF76
:103D60000060004080B584B000AF78607868FFF7ED
:103D70004FFC0346002B04D000217868FFF7DDFAE2
:103D800017E07868FFF722FC0346002B11D0786813
:103D9000FFF7D2FC0346FB60FB6819460748FFF7B4
:103DA000BBF90122FB6802FA03F319460348FFF747
:103DB0007EF900BF1037BD4680BD00BF00600040E7
:103DC00080B582B000AF78607868FFF7CBFF786885
:103DD000FFF7FCFB0346002B07D07868FFF7ACFC2D
:103DE000034619461148FFF709FA7868FFF794FC73
:103DF0000346002B05D07868FFF770FA7868FFF764
:103E00007DFC7868FFF71AFC0346002B07D0786822
:103E1000FFF792FC0346DBB21846FFF73BFD7868DC
:103E2000FFF74CFC00BF0837BD4680BD0060004076
:103E300080B584B000AF78607A6801210020FFF778
:103E4000D8FA0023FB600BE0FB689B007A68134400
:103E50001B68002B01D0012306E0FB680133FB60E7
:103E6000FB68002BF0D0002318461037BD4680BDFC
:103E700080B586B000AF786000237B6150E02F4AA8
:103E80007B691344443393F90030B3F1FF3F43D0CF
:103E90007869FFF783FC386179683869FFF729FB97
:103EA0000346002B39D07869FFF78EFC0346FB737D
:103EB0003869FFF77BFA0346BB73BB7B022B01D14A
:103EC000032300E002237B737B7B19463869FFF7ED
:103ED00034FA3869FFF7C1FA3869FFF72DFC034659
:103EE0001846FFF73BFCB860BB68002B15D0FB7B86
:103EF000032B0BD0BB7B022B02D1FB7B012B05D00C
:103F0000BB7B032B09D1FB7B022B06D1FA7BBB6861
:103F100011463869984700E000BF7B6901337B6137
:103F20007B69002BABD07868FFF782FF0346002B3C
:103F3000A2D100BF00BF1837BD4680BDE4180020E5
:103F400080B588B000AF0023FB6100233B604FF4D5
:103F50008073FB8201233B610023BB6120E0FB8A6D
:103F600019463948FFF757F80346002B0FD0396937
:103F70003548FFF7AAF80346002B08D0FB8A1946FC
:103F80003148FFF75CF8FA693B691343FB613B6911
:103F90005B003B61FB8A0433FB82BB690133BB617D
:103FA000BB69072BDBD94FF4BE712748FFF733F805
:103FB0000346002B0ED04FF4BE712348FFF73FF8A5
:103FC000FB6943F00043FB613B461A460121002098
:103FD000FFF70FFAFB69DBB2002B29D001233B610D
:103FE0000023BB6121E03A69FB691340002B16D026
:103FF000B9691548FFF7DBF8F860B9691248FFF7AF
:10400000E9F80346FB72B869FFF7A8FB78607B68A4
:10401000002B04D0FA7A7B681146F86898473B6910
:104020005B003B61BB690133BB61BB69072BDAD91C
:10403000FB69002B03DA3B461846FFF719FF00BF68
:104040002037BD4680BD00BF0060004080B483B013
:1040500000AF78600B46FB70FA787B68C3F80C25DC
:1040600000BF0C37BD4680BC704780B483B000AF42
:1040700078600B46FB70FB787A68134401221A6063
:1040800000BF0C37BD4680BC704780B483B000AF22
:10409000786039607B683A68C3F8042500BF0C3744
:1040A000BD4680BC704780B483B000AF78600B46DB
:1040B000FB707B68D3F80825FB78012101FA03F334
:1040C0001A437B68C3F8082500BF0C37BD4680BC87
:1040D0007047000080B483B000AF78600B46FB707F
:1040E000FA787B6802F5C072034943F8221000BFDA
:1040F0000C37BD4680BC70473546526EB0B588B0AF
:1041000000AFF860B9607A60FB681B795B001D4AFC
:104110001344FB61FB691B78002B2CD1FB69012246
:104120001A70FB681A68BB681B7819461046FFF7BF
:104130008DFFBB685B6800221C4615464FF00000EF
:104140004FF00001E90341EA5441E0034FF47A7271
:104150004FF00003FCF748FF02460B46C7E9042373
:10416000FB681B683A6911461846FFF78EFF064B3D
:10417000BB61BB6902E0054BBB61BB6918462037D8
:10418000BD46B0BD341900200000AD0B0500AD0BDD
:1041900080B584B000AF78607B681B795B00084A0B
:1041A0001344FB607B681B6800211846FFF75DFF26
:1041B000FB6802221A7000BF1037BD4680BD00BFE9
:1041C0003419002080B584B000AF78607B681B791B
:1041D0005B000D4A1344BB600023FB7309E07B685E
:1041E0001B68FA7B11461846FFF774FFFB7B01330F
:1041F000FB73BB685B78FA7B9A42F0D300BF00BFC9
:104200001037BD4680BD00BF3419002080B584B092
:1042100000AF786039607B681B795B00114A1344FA
:10422000BB60BB685B78072B14D8BB685A783B68C7
:104230001A70BB685B780133DAB2BB685A707B686E
:104240001A683B681B7819461046FFF72CFF064B8F
:10425000FB6001E0054BFB60FB6818461037BD466C
:1042600080BD00BF341900200000AD0B0200AD0B73
:1042700080B483B000AF0346FB71FB7903F01F02EB
:10428000064997F907305B09012000FA02F241F86C
:10429000232000BF0C37BD4680BC704700E100E022
:1042A00080B483B000AF0346FB71FB7903F01F02BB
:1042B000074997F907305B09012000FA02F2203321
:1042C00041F8232000BF0C37BD4680BC704700BFBB
:1042D00000E100E080B483B000AF03463960FB71B9
:1042E00097F90730002B0BDA3B68DAB20C49FB79FF
:1042F00003F00F03043B5201D2B20B441A7609E0DB
:104300003B68DAB2074997F907305201D2B20B4441
:1043100083F8002300BF0C37BD4680BC704700BF48
:1043200000ED00E000E100E080B483B000AF786011
:104330007B681B0B5BB218460C37BD4680BC7047D0
:1043400080B582B000AF0346FB7197F9073018467D
:10435000FFF7A6FF00BF0837BD4680BD80B483B01D
:1043600000AF78607B681B6800BF0C37BD4680BC1F
:10437000704780B582B000AF78600B467B807B8849
:104380007A68134400221A607B887A6813441846BE
:10439000FFF7E4FF00BF0837BD4680BD80B483B09F
:1043A00000AF78600B467B807B887A6813441B687B
:1043B000002B14BF01230023DBB218460C37BD4687
:1043C00080BC704780B483B000AF786039607B6890
:1043D0003A68C3F8042300BF0C37BD4680BC704761
:1043E00080B483B000AF786039607B68D3F8042371
:1043F0003B68134018460C37BD4680BC704780B4FC
:1044000083B000AF786039607B683A68C3F80823EE
:1044100000BF0C37BD4680BC704780B485B000AF8C
:1044200078607B68D3F88034FB607B68FA68C3F8F7
:104430008024FB6818461437BD4680BC704780B4A2
:1044400083B000AF78607B680422C3F8002500BF0A
:104450000C37BD4680BC704780B483B000AF786035
:104460007B680022C3F8002500BF0C37BD4680BC26
:10447000704780B485B000AFF860B9607A60FB68BF
:104480007A68C3F81425FB68BA68C3F80C2500BF26
:104490001437BD4680BC704780B582B000AF7860ED
:1044A0004FF0FF324FF0FF317868FFF7E2FF00BFB7
:1044B0000837BD4680BD80B483B000AF78607B68AC
:1044C000D3F80C3518460C37BD4680BC704780B415
:1044D00083B000AF78607B68D3F8143518460C378A
:1044E000BD4680BC704780B483B000AF78607B6805
:1044F000D3F8083518460C37BD4680BC704780B4E9
:1045000083B000AF78607B68D3F8103518460C375D
:10451000BD4680BC704780B485B000AFF860B9601C
:104520007A60FB68BA68C3F80825FB687A68C3F844
:10453000102500BF1437BD4680BC704780B582B0DF
:1045400000AF78604FF0FF324FF0FF317868FFF72F
:10455000E2FF00BF0837BD4680BD80B483B000AF26
:1045600078607B68D3F81835DBB218460C37BD4647
:1045700080BC704780B483B000AF78600B46FB709E
:10458000FA787B68C3F81C2500BF0C37BD4680BC99
:10459000704780B483B000AF78600B46FB70FB7847
:1045A0007A68134401221A6000BF0C37BD4680BCF4
:1045B000704780B483B000AF786039603B685A7848
:1045C0003B681B781343DBB21A467B68C3F86C2543
:1045D00000BF0C37BD4680BC704780B483B000AFCD
:1045E000786039607B683A68C3F8242500BF0C37CF
:1045F000BD4680BC704780B582B000AF78607868F7
:1046000000F090F84FF0A04318460837BD4680BD33
:1046100080B584B000AF7860084611461A4603465C
:10462000FB700B46BB7013467B703B1D1846FFF7B3
:10463000E2FFF8600023BB60FA78BB785B001A43A6
:104640007B789B001A433B7E1B021A433B7F1B0473
:104650001343BA681343BB607A68FB6802F5E072E3
:10466000B96843F8221000BF1037BD4680BD80B541
:1046700084B002AF786000230193002300930023ED
:10468000012201217868FFF7C3FF00BF0837BD464C
:1046900080BD80B584B002AF78600B46FB70FB78BC
:1046A0000022019200220092002200217868FFF788
:1046B000AFFF00BF0837BD4680BD80B584B002AFF4
:1046C000786000230193002300930023012200213E
:1046D0007868FFF79DFF00BF0837BD4680BD80B5F5
:1046E00084B000AF78603B1D1846FFF784FFF86088
:1046F0007B68012202FA03F31946F86800F004F817
:1047000000BF1037BD4680BD80B483B000AF786075
:1047100039607B683A68C3F8082500BF0C37BD468E
:1047200080BC704780B485B000AF78607B681B6840
:10473000FB60FB6803F01F027B681A60FB685B0983
:1047400018461437BD4680BC704780B582B000AFB4
:10475000786039603B681B68B3F1FF3F09D03B6864
:104760001B681846FFF7BBFF3B681B681846FFF73E
:104770007EFF3B685B68B3F1FF3F05D03B685B6839
:1047800000211846FFF785FF7B681A683B685B6964
:1047900019461046FFF721FF7B681A683B681933FA
:1047A00019461046FFF705FF7B6818683B681968D3
:1047B0003B685B681A46FFF75CFE3B685B7E012B3B
:1047C00022D13B689B68B3F1FF3F05D03B689B68F3
:1047D00000211846FFF75DFF3B68DB68B3F1FF3F40
:1047E00009D03B68DB681846FFF779FF3B68DB6858
:1047F0001846FFF73CFF7B6818683B68D9683B6840
:104800009B681A46FFF787FE00BF0837BD4680BD8C
:1048100080B582B000AF78600B46FB707B681B6888
:104820004FF48E711846FFF7A4FD7B681B684FF4A8
:10483000A2711846FFF79DFD7B681B680E4918465C
:10484000FFF7C0FD7B681B681846FFF76DFD034648
:104850001A46FB7819461046FFF73CFD7B681B683B
:104860001846FFF761FD03461846FFF701FD00BF3C
:104870000837BD4680BD00BF8000020080B582B011
:1048800000AF78607B681B6808491846FFF7B7FDE2
:104890007B681B681846FFF747FD03461846FFF77D
:1048A0004FFD00BF0837BD4680BD00BF8402020037
:1048B00080B586B000AF78607B681B681846FFF74C
:1048C000FAFD78617B681B681846FFF700FE3861C7
:1048D0007B681B681846FFF706FEF8607B681B685C
:1048E0001846FFF70CFEB8607B681B681846FFF798
:1048F000D3FD7B681B681846FFF720FE7B69B3F188
:10490000FF3F02D07869FFF7D8FE3B69B3F1FF3F64
:1049100002D03869FFF7D1FEBB68B3F1FF3F02D088
:10492000B868FFF7CAFEFB68B3F1FF3F02D0F86832
:10493000FFF7C3FE00BF1837BD4680BD80B586B007
:1049400000AFF860B9607A60FB681B791A462C23C7
:1049500002FB03F31E4A13447B611E4B3B617B69E0
:1049600093F82A30002B03D01B4B3B613B692BE0B3
:10497000B968F868FFF7E9FE7B697A685A60BB6836
:104980001A697B691A607B695B68002B05D0BB687C
:104990001B7E1946F868FFF73BFFFB681B6818464B
:1049A000FFF74DFD7B6900229A617B690022DA6185
:1049B0007B69002283F829207B6900225A617B6988
:1049C000012283F82A203B6918461837BD4680BD6E
:1049D000381900200000AD0B0500AD0B80B584B088
:1049E00000AF78607B681B791A462C2302FB03F327
:1049F0000E4A1344FB607B681B681846FFF72CFDCA
:104A0000FB685B68002B02D07868FFF737FF786897
:104A1000FFF74EFFFB68002283F82A20FB68002284
:104A20005A6000BF1037BD4680BD00BF3819002056
:104A300080B584B000AF786039604FF48E717868CB
:104A4000FFF797FC3B689A683B681B6A13441B7826
:104A5000FB733B681B6A5A1C3B681A62FB7B194656
:104A60007868FFF787FD00BF1037BD4680BD80B571
:104A700082B000AF78607B681B684FF49271184673
:104A8000FFF777FC7B681B6800211846FFF781FD64
:104A900000BF0837BD4680BD90B583B000AF7860D9
:104AA00039603B689B69002B08D14FF484717868AA
:104AB000FFF75FFC7868FFF750FD13E04FF4847157
:104AC0007868FFF756FC3B68DA683B685B6AD41885
:104AD0007868FFF742FD034623703B685B6A5A1C07
:104AE0003B685A620C37BD4690BD000080B588B067
:104AF00000AFF860B9607A60FB681B791A462C2316
:104B000002FB03F3674A1344BB610023FB77BB69D5
:104B10005B68002B06D0FB681B684FF401711846D8
:104B2000FFF76DFCBB699B69002B14D0BB69DB6987
:104B3000002B0ED0BB695B68002B06D0FB681B689E
:104B40004FF401711846FFF73DFC574B7B617B69C1
:104B5000A3E00123FB77FB7F83F00103DBB2002B93
:104B60000CD0BB697A689A61BB69BA68DA60BB69C4
:104B700000225A62BB690022DA6105E0BB69BA68AB
:104B80001A61BB697A68DA61BB6993F8293083F0EE
:104B90000103DBB2002B08D0FB7F83F00103DBB203
:104BA000002B02D0F868FFF762FFBB695B68002B3F
:104BB00069D1FB681B684FF4A2711846FFF7D9FB57
:104BC000FB681B684FF492711846FFF7E7FB03463A
:104BD000FB74FB681B684FF484711846FFF7DEFB1B
:104BE0000346BB74FB681B684FF4A2711846FFF7BD
:104BF000D5FB03467B74BB7C83F00103DBB2002B47
:104C00000BD07B7C83F00103DBB2002B05D0FB7C57
:104C100083F00103DBB2002BD2D1FB7C002B0ED141
:104C20007B7C002B0BD1FB681B68B9691846FFF72A
:104C300033FFBB699A69BB695B6A9A42C0D8BB699A
:104C400000229A61FB7C002B03D0184B7B617B69AF
:104C500023E07B7C002B03D0154B7B617B691CE040
:104C6000BB6993F82930002B06D0FB681B68002134
:104C70001846FFF78EFC0DE0FB681B680421184600
:104C8000FFF787FC06E0FB681B684FF401711846CC
:104C9000FFF798FB074B7B617B6918462037BD46C1
:104CA00080BD00BF381900200B00AD0B0100AD0B1B
:104CB0000800AD0B0000AD0B80B588B000AFF86008
:104CC000B9607A6001233B74BB68BB617B687B6120
:104CD000FB685B68FA68116807F110021046984794
:104CE00000BF2037BD4680BD80B586B000AF78607C
:104CF000396000233B723B683B617B689B68FB60CB
:104D00007B6800225A617B685B687A68116807F1EA
:104D100008021046984700BF1837BD4680BD80B5D1
:104D20008AB000AF786039604FF400717868FFF79F
:104D300057FB0346002B39D04FF492717868FFF788
:104D40002DFB0346002B31D04FF492717868FFF7AA
:104D500010FB4FF401717868FFF751FB3B6893F843
:104D6000293083F00103DBB2002B03D004217868E3
:104D7000FFF70FFC02233B737868FFF74EFB0346F7
:104D8000BB613B689B697B613B68DB683B613B685F
:104D900000229A613B680022DA613B685B683A68EE
:104DA000116807F10C021046984752E00421786818
:104DB000FFF716FB0346002B4BD04FF48471786845
:104DC000FFF7ECFA0346002B43D039687868FFF709
:104DD00063FE3B689A693B685B6A9A4239D13B68DB
:104DE000DB69002B19D03B68DB687B623B685B6A40
:104DF0003B623B68DA693B689A613B681A693B68C9
:104E0000DA603B680022DA613B6800225A627A6A03
:104E1000396A3868FFF750FF1BE03B6893F8293088
:104E200083F00103DBB2002B03D004217868FFF785
:104E3000B0FB4FF401717868FFF7E1FA3B6800229C
:104E40009A613B68596A3B68DB681A463868FFF725
:104E500033FF4FF48E717868FFF7A0FA0346002BFA
:104E600024D03B685B69FB613B681B6AFA699A4224
:104E70000DD93B6893F82830DBB283F00103DBB235
:104E8000002B04D039687868FFF7D2FD0EE04FF4AC
:104E90008E717868FFF76DFA3B685B69002B05D06F
:104EA0003B685B6919463868FFF71EFF4FF4A27133
:104EB0007868FFF773FA0346002B1CD04FF4A271F9
:104EC0007868FFF756FA3B6893F82930002B03D037
:104ED00000217868FFF75DFB3B689B69002B0AD0D7
:104EE0003B6800229A613B68596A3B68DB681A4656
:104EF0003868FFF7E1FE00BF2837BD4680BD0000DF
:104F000080B500AF02490348FFF709FF00BF80BD2D
:104F1000381900200020004080B483B000AF7860D2
:104F20007B687A685A607B685A687B681A6000BF41
:104F30000C37BD4680BC704780B483B000AF78604A
:104F40007B681B687A6852685A607B685B687A681D
:104F500012681A607B687A685A607B685A687B6856
:104F60001A6000BF0C37BD4680BC704780B582B068
:104F700000AF00F019F97860FBF78AF938607868BB
:104F800001F090FF7B684C33184602F075FD7B689A
:104F9000042283F83420786802F010FB3868FBF7AD
:104FA0007BF901F047FE00BF0837BD4680BD000019
:104FB00080B584B000AF78607B68FB60FB68002B35
:104FC00004D1862219491A4804F0C8F8FB6893F8FE
:104FD000343003F00703022B04D08722134915480D
:104FE00004F0BCF8F86801F0C5FB0346012B04D0BF
:104FF00088220E49104804F0B1F8FBF749F9B8606F
:10500000FB686FF001021A63FB6814331846FFF760
:1050100093FFF86801F0DCFEB868FBF73DF901F09A
:1050200009FE00BF1037BD4680BD00BFCC2F010078
:10503000CC060100E00601001C07010080B586B027
:1050400002AFF860B9607A603B60FB6814331846C1
:10505000FFF762FFFB687A681A62FB683A685A6277
:10506000FB68BA699A62FB68FA69DA62FB68986A57
:10507000FB68DB6A1A46232103F006F9FB68186A0D
:10508000FB68596AFB689A6AFB68DB6A043B1A444E
:10509000244B04F089F80246FB68DA6197F8203067
:1050A0001F2B04D9BD222049204804F057F8FB6883
:1050B00097F8202083F83520FB6800229A63FB686C
:1050C0000022DA63FB68002283F84020FB687A6ADA
:1050D0005A64FB687A6A9A64FB6800221A63FB6868
:1050E000002283F83420FB6800229A67FB680022C4
:1050F000DA67FB6803F14C00F96800230193002391
:105100000093FB680A4A02F079FC0A4B1B68002BEB
:1051100003D0084B1B68F8689847002318461037DF
:10512000BD4680BD6D4F0000DC2F0100600701000F
:10513000B14F00006C19002080B588B004AFF86052
:10514000B9607A603B60FB68002B05D140F23312F6
:105150001249134804F002F8BB69002B05D14FF443
:105160009A720E490F4803F0F9FFBA680121F868F6
:1051700001F0A4F97B6A039397F820300293FB694E
:105180000193BB6900933B687A68B968F868FFF7D8
:1051900055FF034618461037BD4680BDEC2F010071
:1051A000CC0601008407010080B400AF024B1B68ED
:1051B0001846BD4680BC7047A01A002080B582B05A
:1051C00000AF78607B68002B05D14FF4B3721C49A7
:1051D0001C4803F0C3FF7B6893F8343003F00703E7
:1051E000002B05D040F267121549174803F0B6FFAF
:1051F000786801F0BFFA0346012B05D04FF4B47272
:105200000F49124803F0AAFF7B6893F835301A461D
:10521000012393401A467B689A637B68022283F8D5
:105220003420786800F042FAFFF7BEFF0346002BF7
:1052300001D001F0FFFC002318460837BD4680BDB1
:10524000FC2F0100CC0601009C0701001C07010097
:1052500080B584B000AF78607B68002B05D140F248
:1052600091122349234803F079FF786801F082FA0C
:105270000346012B05D04FF4C9721D491E4803F0A7
:105280006DFF786801F058FA0346002B05D140F213
:1052900093121749194803F061FF7B6893F8343083
:1052A00003F00703042B01D100231CE07B6893F873
:1052B000343003F00703002B02D0786801F0F2FDD0
:1052C000FAF7E6FFF8607B684C33184602F0D4FB2F
:1052D0007B68042283F83420786802F06FF9F8685C
:1052E000FAF7DAFF002318461037BD4680BD00BF2D
:1052F00010300100CC0601001C070100D40701009A
:1053000080B58AB004AFF860B9607A603B60F96834
:10531000012001F067F978617B69002B01D100233E
:105320001BE0386803F06AFE38613B69002B04D14A
:10533000786901F0C3F900230FE07B6A039397F8C3
:10534000203002933B6801933B6900937B68BA6805
:10535000F9687869FFF772FE7B6918461837BD4611
:1053600080BD000080B584B000AF78607B68002B02
:1053700005D14FF4FC722349234803F0EFFE78680F
:1053800001F0F8F90346012B05D040F2F9121D494E
:105390001E4803F0E3FE786801F0CEF90346002BC7
:1053A00005D04FF4FD721749194803F0D7FE7B680A
:1053B00093F8343003F00703042B01D100231CE0E1
:1053C0007B6893F8343003F00703002B02D0786831
:1053D00001F068FDFAF75CFFF8607B684C33184613
:1053E00002F04AFB7B68042283F83420786802F0DC
:1053F000E5F8F868FAF750FF002318461037BD4665
:1054000080BD00BF24300100CC0601001C07010054
:105410000408010080B584B000AF7860FFF7C4FED7
:10542000F860FB68002B05D140F241221B491C4863
:1054300003F094FEF86801F09DF90346012B05D0B6
:1054400040F242221549174803F088FEFAF720FF80
:10545000B860FB6800221A63F86800F0BFF8FB68C8
:105460004C333A1D0021184602F0AEFCFB684C3369
:10547000184602F049FBB868FAF70EFF01F0DAFBB4
:10548000FB681B6B13F1020F02D1FB6800221A6349
:10549000FB681B6B18461037BD4680BD38300100D5
:1054A000CC0601001C07010080B582B000AF786017
:1054B0007868FFF7AFFF034618460837BD4680BD42
:1054C00080B584B000AF7860786801F063FAF86066
:1054D000F868FFF79FFF034618461037BD4680BDAA
:1054E00080B586B000AFF860B9607A60FB68002BC9
:1054F00005D140F2D7223649364803F02FFEF8682E
:1055000001F038F90346012B05D04FF436723049CB
:10551000314803F023FEBB68022B09D0BB68022B85
:105520004FDCBB68002B34D0BB68012B36D048E081
:10553000FAF7AEFE3861FB6893F8343003F00703E6
:10554000012B14D1F86801F0ADFC7B681A78FB6878
:1055500083F83520FB6893F835301A4601239340D1
:105560001A46FB689A63F86801F032FC0DE07B682C
:105570001A78FB6883F83520FB6893F835301A46B3
:10558000012393401A46FB689A633869FAF784FE50
:1055900018E0F868FFF712FE034614E0F86801F01F
:1055A000CBF80346012B04D1F868FFF751FE786170
:1055B00003E0F868FFF7D6FE786101F03BFB7B69FA
:1055C00001E000BF002318461837BD4680BD00BF6C
:1055D00048300100CC0601001C07010080B584B0F2
:1055E00000AF78607B68002B05D140F24E322A492B
:1055F0002A4803F0B3FD786801F0BCF80346012B9C
:1056000005D040F24F322449254803F0A7FDFFF7AB
:10561000CBFD02467B68934205D04FF454721E497D
:10562000204803F09BFD7B6893F8343003F00703B8
:10563000FB60FB68012B05D0FB68032B02D04FF009
:10564000FF3324E0FAF724FEB860786801F02AFC02
:105650007B6893F834305BB223F007035BB243F00E
:1056600002035BB2DAB27B6883F834207B684C3388
:10567000184602F05FFBB868FAF70EFE0A4B1B688B
:10568000002B03D0084B1B68786898470023184606
:105690001037BD4680BD00BF5C300100CC06010064
:1056A0001C070100500801006419002080B584B077
:1056B00000AF78607B68002B05D140F27A321D493B
:1056C0001D4803F04BFD786801F054F80346012BA8
:1056D00005D040F27B321749184803F03FFD7B6844
:1056E00093F8343003F00703022B02D04FF0FF335E
:1056F0001BE0FAF7CDFDF8607B6814331846FFF71E
:105700001BFC7B684C33184602F014FB786801F0F0
:105710005FFBF868FAF7C0FD094B1B68002B03D04C
:10572000074B1B6878689847002318461037BD461A
:1057300080BD00BF70300100CC0601001C070100D5
:105740006819002080B483B000AF78607B687A6805
:105750005A607B685A687B681A6000BF0C37BD4688
:1057600080BC704780B483B000AF786039607B68DC
:105770005B683A681A607B685A683B685A607B6865
:105780003A685A603B687A681A6000BF0C37BD46B9
:1057900080BC704780B483B000AF78607B681B68C2
:1057A0007A689A420CBF01230023DBB218460C37FB
:1057B000BD4680BC704780B582B000AF78607B6822
:1057C00014331846FFF7BEFF002318460837BD46BE
:1057D00080BD000080B586B000AFF860B9601346A8
:1057E000FB71B868FFF7FAFEFB79002B02D0012BA2
:1057F00007D031E0BB6814331946F868FFF7B2FFF1
:1058000031E0FB681B687B6117E07B69143B3B61FF
:10581000BB6893F835203B6993F835309A4209D23A
:105820003B6903F11402BB68143319461046FFF7B5
:1058300099FF06E07B691B687B617A69FB689A4285
:10584000E3D17A69FB689A420CD1BB6814331946DC
:10585000F868FFF787FF05E0A4220549054803F033
:105860007DFC00E000BF002318461837BD4680BD10
:105870009C3001006C08010080B584B000AF7860F6
:105880007B681B68143BFB60F868FFF70FFF002381
:1058900018461037BD4680BD80B584B000AFF860B3
:1058A000B9607A60FB70FB68002B05D140F22D12C5
:1058B0001749184803F052FC7B68B3F5803F05D3C5
:1058C0004FF497721249144803F048FCFB78002B00
:1058D00008D0FB78012B05D040F22F120C490F485D
:1058E00003F03CFCFB68BA680221184600F0E6FDB4
:1058F000FB681846FFF75FFF7B689AB2FB689A83E4
:10590000FB68FA785A72002318461037BD4680BDEE
:105910008430010070080100800801009408010033
:1059200080B588B000AF786039607B68002B05D106
:105930004FF4F5725549564803F010FC7B68184641
:1059400000F018FF0346022B05D040F2EB124F493E
:10595000504803F003FC504B1B68002B04D04E4B07
:105960001B687A6810469847FAF792FCF8617B68E2
:105970009B8B002B09D07B689B8B013B9AB27B6889
:105980009A83F869FAF788FC71E03B68002B05D12F
:10599000F869FAF781FC6FF0010372E0FAF778FC1E
:1059A000B86101F0FBFA0346002B09D037493B48A8
:1059B00003F05AFA40F20B223449394803F0CEFB87
:1059C000FAF766FC7861FFF7EFFB0346002B09D17D
:1059D0002E49344803F048FA40F20B222B49304854
:1059E00003F0BCFBFAF754FC386100F077FF034684
:1059F000002B09D025492C4803F036FA40F20B223F
:105A00002249274803F0AAFB3869FAF745FC786970
:105A1000FAF742FCB869FAF73FFCFFF7C5FBF860FC
:105A2000FB6800221A637B6803F114007B685B7AD1
:105A30001A46F968FFF7CEFE3B68002B0BDDFB68CA
:105A40004C333A460021184602F0BEF9FB684C334D
:105A5000184602F059F8F869FAF71EFC01F0EAF866
:105A6000FB681B6B002B02D0FB681B6B09E00F4B24
:105A70001B68002B04D00D4B1B687A6810469847B2
:105A8000002318462037BD4680BD00BF903001007E
:105A900070080100D008010078190020AC0901004D
:105AA0006C080100D8090100480901007C19002098
:105AB00080B584B000AF78607B68002B05D14FF4CF
:105AC00019722749274803F049FB7B68184600F004
:105AD00051FE0346022B05D040F2652220492248A0
