:10000000B0170020410200007D0200004103000003
:100010008102000083020000850200000000000051
:100020000000000000000000000000008702000047
:100030008902000000000000BF0200005708000015
:10004000490C00008F020000412A00008F020000CE
:100050008F0200008F020000A51C00008F0200002C
:100060008F0200008F0200008F0200008F0200004C
:100070008F0200008F0200008F0200008F0200003C
:100080008F0200008F0200008F0200008F0200002C
:100090008F0200008F0200008F0200008F0200001C
:1000A0008F0200008F0200008F0200008F0200000C
:1000B0008F0200008F02000000000000000000001E
:1000C0008F0200008F0200008F0200008F020000EC
:1000D0008F0200008F0200008F020000000000006D
:1000E0000000000000000000000000000000000010
:1000F0000000000000000000000000000000000000
:1001000000000000000000000000000000000000EF
:1001100000000000000000000000000000000000DF
:1001200000000000000000000000000000000000CF
:1001300000000000000000000000000000000000BF
:1001400000000000000000000000000000000000AF
:10015000000000000000000000000000000000009F
:10016000000000000000000000000000000000008F
:10017000000000000000000000000000000000007F
:10018000000000000000000000000000000000006F
:10019000000000000000000000000000000000005F
:1001A000000000000000000000000000000000004F
:1001B000000000000000000000000000000000003F
:1001C000000000000000000000000000000000002F
:1001D000000000000000000000000000000000001F
:1001E000000000000000000000000000000000000F
:1001F00000000000000000000000000000000000FF
:1002000010B5054C237833B9044B13B10448AFF350
:1002100000800123237010BDB017002000000000F3
:100220002CEB000008B5034B1BB103490348AFF3A7
:10023000008008BD00000000B41700202CEB000077
:100240000A490B4A0B4B9B1A03DD043BC858D0509C
:10025000FBDC0849084A0020521A02DD043A8850A3
:10026000FCDC02F011FF07F09DF800002CEB000011
:1002700000000020B0170020D81F0020FEE7FEE796
:10028000FEE7FEE7FEE7FEE7FEE7FEE7FEE7FEE746
:10029000EFF3108072B6704780F310887047364ACB
:1002A0001368012B04D04FF001031360334A106030
:1002B000334A116033484FF0805101607047EFF3CB
:1002C000108272B62C48016891B14FF000010160B4
:1002D0002A48016829B1EFF3098121E9F00F00688C
:1002E0000160274909680968B1E8F00F81F30988BE
:1002F00082F310884EF0040E7047214908601F49B0
:100300004FF0000008601C494FF0010008601E48D3
:100310001E49D0F8002041EA0201016019484FF05F
:10032000805101601A480068006800BF80F30888A7
:1003300061B662B6BFF34F8FBFF36F8F704700BFD8
:10034000EFF308801EF0040F01D0EFF3098020E9DD
:10035000F00F40F804ED1EF0040F02D080F309887E
:1003600001E080F3088800B507F010FA5DF804EBAF
:100370004EF0040E704700008C1E0020841E0020EA
:10038000881E002004ED00E020ED00E00000FFFFEB
:1003900008ED00E000000000000000000000000088
:1003A000A2EB0300704700BF02780B78012A28BF38
:1003B0009A42F5D16DE9044540EA0104CDE90267AE
:1003C0006FF0000C4FEA447212B380EA010414F09B
:1003D000070F6AD100F0070420F0070004F00305BE
:1003E00021F007014FEAC505F0E8042314F0040FDB
:1003F000F1E804670CFA05F462EA040266EA04060E
:100400000AD063EA0403624667EA0407664603E02B
:10041000F0E80423F1E8046782FA4CF582EA060466
:10042000A4FA8CF46CBB83FA4CF583EA0705A5FAB1
:100430008CF595B950E9022351E9026782FA4CF52F
:1004400082EA0604A4FA8CF483FA4CF583EA0705E1
:10045000A5FA8CF52543DBD09CB92DBAB5FA85F405
:1004600024F0070427FA04F1DDE9026723FA04F314
:1004700003F0FF0001F0FF01FDE80445A0EB0100DF
:10048000704724BAB4FA84F424F0070426FA04F17D
:10049000DDE9026722FA04F202F0FF0001F0FF0139
:1004A000FDE80445A0EB0100704714F0030F3CD1B8
:1004B00010F0030428D150F8082B51F8083B82FAB9
:1004C0004CF582EA0305A5FA8CF55DB950F8042CC9
:1004D00051F8043C82FA4CF582EA0305A5FA8CF542
:1004E000002DE8D02DBAB5FA85F424F0070423FADC
:1004F00004F122FA04F202F0FF0001F0FF01FDE82E
:100500000445A0EB010070474FEAC40420F003004B
:1005100050F8082B21F0030151F8083B0CFA04F4C1
:1005200062EA040263EA0403C9E710F003041AD084
:10053000A1EB040120F00300E40750F8042B06D0DF
:100540000FD28B785FFAA2F4E41A06D12BB1CB78E4
:100550005FFAB2F4E41A00D11BB920465DF8104BE3
:10056000704701F1040150F8042BCC0721F003017E
:1005700051F8043B48D824D222F07F4482FA4CF54B
:1005800094EA1325A5FA8CF50AD165B951F8043B14
:1005900084EA0204B4EB036F0ED150F8042BEBE7AE
:1005A0004FEA132355E035F07F454DD10878FDE83B
:1005B0000445C0F1000070474FEA126203F0FF03E8
:1005C00047E002EA1C4482FA4CF594EA1345A5FA86
:1005D0008CF50AD165B951F8043B84EA0204B4EB06
:1005E000034F0CD150F8042BEBE74FEA134330E0F4
:1005F00015EA1C4528D10B884FEA124229E04FEA40
:10060000124203EA1C4324E002F0FF0482FA4CF594
:1006100094EA1365A5FA8CF50AD165B951F8043B43
:1006200084EA0204B4EB032F09D150F8042BEBE762
:100630004FEA13630DE015F0FF0F05D10B684FEA89
:10064000122223F07F4304E04FF00000FDE8044550
:10065000704712BA1BBA82FA4CF482EA0304A4FA75
:100660008CF5B5FA85F402FA04F203FA04F34FEAC2
:100670001260FDE80445A0EB136070470000000025
:1006800090F800F06DE9024520F007016FF0000CD2
:1006900010F0070491F820F040F049804FF000047A
:1006A0006FF00700D1E9002391F840F000F1080055
:1006B00082FA4CF2A4FA8CF283FA4CF3A2FA8CF38D
:1006C0004BBBD1E9022382FA4CF200F10800A4FAF4
:1006D0008CF283FA4CF3A2FA8CF3E3B9D1E9042348
:1006E00082FA4CF200F10800A4FA8CF283FA4CF37F
:1006F000A2FA8CF37BB9D1E9062301F1200182FA39
:100700004CF200F10800A4FA8CF283FA4CF3A2FA3E
:100710008CF3002BC6D0002A04BF04301A4612BA4C
:10072000B2FA82F2FDE8024500EBD2007047D1E94F
:10073000002304F00305C4F100004FEAC50514F0DE
:10074000040F91F840F00CFA05F562EA05021CBFAF
:1007500063EA050362464FF00004A9E780B582B062
:1007600000AF01237B600021112007F02DFB0FE07B
:100770000121112007F048FB4FF4FA7004F0E2FD6C
:100780000021112007F040FB4FF4FA7004F0DAFD6D
:100790007B685A1C7A60002BEAD100231846083780
:1007A000BD4680BD80B483B000AF03463960FB71A5
:1007B00097F90730002B0BDA3B68DAB20C49FB796A
:1007C00003F00F03043B5201D2B20B441A7609E046
:1007D0003B68DAB2074997F907305201D2B20B44AD
:1007E00083F8002300BF0C37BD4680BC704700BFB4
:1007F00000ED00E000E100E080B483B000AF78607D
:10080000034A7B68136000BF0C37BD4680BC70474D
:1008100010E000E080B483B000AF7860034A7B68EA
:10082000536000BF0C37BD4680BC704710E000E04D
:1008300080B400AF034B00229A6000BFBD4680BC6D
:10084000704700BF10E000E080B500AF002000F06E
:10085000C8F900BF80BD80B500AF05F0DBF802F03D
:1008600043FD05F0F7F800BF80BD80B483B000AF52
:100870000346FB7100BF0C37BD4680BC70470000CB
:1008800080B500AF0D4800F07FF900F09FF9FFF749
:10089000DBFF0F214FF0FF30FFF784FF084B1B6891
:1008A000084AA2FB03235B091846FFF7B3FFFFF7D3
:1008B000BFFF0720FFF7A0FF00BF80BD6B0800004F
:1008C000000000201F85EB5180B500AF0020FFF72E
:1008D000E3FC0A4B1B69094A43F004031361FFF769
:1008E000CFFF0749074803F033FC0BF031F8064807
:1008F00003F060FB06F022FD00BF80BD00ED00E0CC
:1009000000000120D81F002030BE000080B483B05A
:1009100000AF0346FB71FB7903F01F02064997F90C
:1009200007305B09012000FA02F241F8232000BFE2
:100930000C37BD4680BC704700E100E080B483B056
:1009400000AF03463960FB7197F90730002B0BDAD3
:100950003B68DAB20C49FB7903F00F03043B520108
:10096000D2B20B441A7609E03B68DAB2074997F92C
:1009700007305201D2B20B4483F8002300BF0C377A
:10098000BD4680BC704700BF00ED00E000E100E024
:1009900080B483B000AF78607B681B0B5BB21846F5
:1009A0000C37BD4680BC704780B483B000AF0346AF
:1009B000FB71114A97F90730002B00DA1F335B11E6
:1009C0005BB252F8232097F90730594203F01F0316
:1009D00001F01F0158BF4B425BB222FA03F303F050
:1009E0000103002B14BF01230023DBB218460C3790
:1009F000BD4680BC704700BF00E100E080B483B01A
:100A000000AF78607B681B6800BF0C37BD4680BCB8
:100A1000704780B483B000AF786039607B683A6813
:100A2000C3F8042300BF0C37BD4680BC704780B4B8
:100A300083B000AF786039607B683A68C3F80823F8
:100A400000BF0C37BD4680BC704780B483B000AF98
:100A500078600B46FB70FB787A68134401221A60B9
:100A600000BF0C37BD4680BC704780B582B000AF78
:100A700078600B467B807B887A68134400221A607A
:100A80007B887A6813441846FFF7B8FF00BF083721
:100A9000BD4680BD80B483B000AF78600B467B80DC
:100AA0007B887A6813441B68002B14BF0123002342
:100AB000DBB218460C37BD4680BC704780B483B0AB
:100AC00000AF786039607B683A68C3F8182500BFCA
:100AD0000C37BD4680BC704780B582B000AF07239D
:100AE000FB714FF08040FFF753FF03461846FFF7B6
:100AF0005BFF034683F00103DBB2002B12D04FF003
:100B00008040FFF745FF03461A46FB791946104619
:100B1000FFF714FF4FF08040FFF73AFF03461846F7
:100B2000FFF7F4FE00BF0837BD4680BD80B485B036
:100B300000AF134BDB68FB60114AFB6843F0807326
:100B4000D360104B1B68BB600E4ABB6843F00103C7
:100B500013600C4B5B687B6000BF0A4B5A687B6874
:100B6000D31AB3F50A5FF8D3064ABB681360044A88
:100B7000FB68D36000BF1437BD4680BC704700BF20
:100B8000F0ED00E0001000E080B485B000AF7860C8
:100B90000B4BFB600B4B1B79002B02D00A4BFB600D
:100BA00008E0084A7B681360064B01221A71054B66
:100BB00000225A71FB6818461437BD4680BC704746
:100BC0000000AD0BCC1700200C00AD0B80B500AFC2
:100BD000FFF782FF01214FF08040FFF76FFF00BF5A
:100BE00080BD80B582B000AF0346FB71FB79002B5E
:100BF00002D0012B13D023E04FF482714FF08040DC
:100C0000FFF733FF02214FF08040FFF702FFFFF7AD
:100C10008DFF08214FF08040FFF717FF10E04FF4E1
:100C200080714FF08040FFF720FF01214FF080409E
:100C3000FFF7EFFE00214FF08040FFF706FF00BFF7
:100C400000BF0837BD4680BD80B500AF4FF480714E
:100C50004FF08040FFF71EFF0346002B18D04FF4E3
:100C600080714FF08040FFF700FF01214FF080407E
:100C7000FFF7DDFE134B5B7983F00103DBB2002B42
:100C800006D0104B01225A710E4B1B68002098476A
:100C90004FF482714FF08040FFF7FCFE0346002BBB
:100CA0000ED04FF482714FF08040FFF7DEFE02213C
:100CB0004FF08040FFF7BBFE024B1B6801209847B6
:100CC00000BF80BDCC17002080B483B000AF0346C6
:100CD000FB71FB7903F01F02064997F907305B09A6
:100CE000012000FA02F241F8232000BF0C37BD4674
:100CF00080BC704700E100E080B483B000AF0346E1
:100D00003960FB7197F90730002B0BDA3B68DAB2D8
:100D10000C49FB7903F00F03043B5201D2B20B44A0
:100D20001A7609E03B68DAB2074997F907305201B1
:100D3000D2B20B4483F8002300BF0C37BD4680BC01
:100D4000704700BF00ED00E000E100E080B483B038
:100D500000AF78607B681B0B5BB218460C37BD4652
:100D600080BC704780B483B000AF78607B681B683C
:100D700000BF0C37BD4680BC704780B483B000AF65
:100D800078600B467B807B887A6813441B68002B55
:100D900014BF01230023DBB218460C37BD4680BCCC
:100DA000704780B582B000AF78600B467B807B884F
:100DB0001946786800F011F803461A4600231360BC
:100DC0007B881946786800F008F803461846FFF754
:100DD000C9FF00BF0837BD4680BD80B483B000AFF7
:100DE00078600B467B807A887B68134418460C3702
:100DF000BD4680BC704780B483B000AF7860396076
:100E00007B683A68C3F8042300BF0C37BD4680BC3A
:100E1000704780B483B000AF786039607B683A680F
:100E2000C3F8082300BF0C37BD4680BC704780B4B0
:100E300083B000AF786039607B68D3F804233B68E7
:100E4000134018460C37BD4680BC704780B483B051
:100E500000AF786039607B683A6802F5A27253F897
:100E6000223043F001017B683A6802F5A27243F830
:100E7000221000BF0C37BD4680BC704780B483B0E1
:100E800000AF786039607B683A6802F5A27253F867
:100E9000223023F001017B683A6802F5A27243F820
:100EA000221000BF0C37BD4680BC704780B485B0AF
:100EB00000AFF860B9607A60FB70FB68BA6802F551
:100EC000A27253F8223023F4473323F44073FA68B4
:100ED000B96801F5A27142F82130FB68BA6802F5E1
:100EE000A27253F822207B681B0203F4F851FB78AE
:100EF0001B0403F440330B4342EA0301FB68BA6866
:100F000002F5A27243F8221000BF1437BD4680BC20
:100F1000704780B483B000AF786039607B683A680E
:100F200002F5A27253F822301B0A03F01F03184681
:100F30000C37BD4680BC704780B483B000AF78608A
:100F400039607B683A6802F5A27253F822301B0CB4
:100F500003F00303DBB218460C37BD4680BC704774
:100F600080B483B000AF786039607B683A6802F57E
:100F7000A272002143F8221000BF0C37BD4680BC8E
:100F8000704780B483B000AF0346FB71FB799B00D0
:100F900003F580739BB218460C37BD4680BC704782
:100FA00080B582B000AF7860786800F041F94FF00A
:100FB000A04318460837BD4680BD80B584B000AF59
:100FC0007860084611461A460346FB700B46BB7014
:100FD00013467B703B1D1846FFF7E2FFF8600023C5
:100FE000BB60FA78BB785B001A437B789B001A439E
:100FF0003B7E1B021A433B7F1B041343BA68134317
:10100000BB607A68FB6802F5E072B96843F82210A9
:1010100000BF1037BD4680BD80B584B002AF786098
:101020000B46FB70FB780022019200220092002206
:1010300000217868FFF7C1FF00BF0837BD4680BDBB
:1010400080B584B002AF7860002301930023009341
:101050000023012200217868FFF7AFFF00BF0837A7
:10106000BD4680BD80B584B000AF78603B1D18469A
:10107000FFF796FFF8607A68FB6802F5E07253F8B4
:10108000223023F00203BB607A68FB6802F5E0724D
:10109000B96843F8221000BF1037BD4680BD80B547
:1010A00084B000AF78600B46FB703B1D1846FFF71D
:1010B00077FFF8607A68FB6802F5E07253F8223037
:1010C00023F44033BB60FB781B0419467A68BB6885
:1010D0001943FB6802F5E07243F8221000BF103795
:1010E000BD4680BD80B584B000AF78603B1D18461A
:1010F000FFF756FFF860F86800F021F802467B68B9
:1011000022FA03F303F0010318461037BD4680BDF1
:1011100080B584B000AF78603B1D1846FFF740FFF4
:10112000F8607A68FB6802F5E07253F822301B0C15
:1011300003F00303DBB218461037BD4680BD80B410
:1011400083B000AF78607B68D3F8103518460C3751
:10115000BD4680BC704780B487B000AFF860B9600E
:101160007A604FF0A0433B61FB687B611BE07B69C9
:101170009B0007F11802134453F8083CD3F82025CC
:101180007B681A607B699B0007F11802134453F8CF
:10119000083C7A681268C3F820257B6804337B60BA
:1011A0007B6901337B61FA68BB6813447A699A42B0
:1011B000DDD300BF00BF1C37BD4680BC704780B583
:1011C00084B000AF78603B1D1846FFF7E9FEF86079
:1011D0007B68012202FA03F31A46FB68C3F8202554
:1011E00000BF1037BD4680BD80B485B000AF7860C9
:1011F0007B685B09BB600023FB60BB68002B03D1ED
:101200004FF0FF33FB6000BF7B6803F01F037B6080
:10121000FA687B6822FA03F303F00103002B14BF82
:1012200001230023DBB218461437BD4680BC70474B
:1012300080B485B000AF78607B681B68FB60FB689A
:1012400003F01F027B681A60FB685B0918461437BD
:10125000BD4680BC704780B485B000AF786039600F
:101260003B68FB607B68DB08BB607B6803F00703BF
:101270007B60FA68BB6813441B781A467B6822FAC5
:1012800003F303F00103002B14BF01230023DBB29F
:1012900018461437BD4680BC704780B485B000AF97
:1012A000786039603B68FB607B68DB08BB607B680B
:1012B00003F007037B60FA68BB6813441B785AB2DB
:1012C00001217B6801FA03F35BB2134359B2FA6858
:1012D000BB681344CAB21A7000BF1437BD4680BC45
:1012E000704780B485B000AF786039603B68FB60C0
:1012F0007B68DB08BB607B6803F007037B60FA68F0
:10130000BB6813441B785AB201217B6801FA03F3CE
:101310005BB2DB435BB2134059B2FA68BB6813445B
:10132000CAB21A7000BF1437BD4680BC70470000B7
:1013300080B483B000AF78600D4A7B6813442433D7
:1013400093F90030002B09DB094A7B6813442433EE
:1013500093F90030072B01DC012300E0002303F0A8
:101360000103DBB218460C37BD4680BC704700BF96
:10137000D417002080B483B000AF7860074A7B6840
:101380001344243393F90030072BCCBF01230023EF
:10139000DBB218460C37BD4680BC7047D41700201E
:1013A00080B483B000AF7860074A7B68134424336D
:1013B00093F90030DB43DBB2DB09DBB218460C37B4
:1013C000BD4680BC704700BFD417002080B485B0F4
:1013D00000AFF860B9607A60FB70BB6859B20F4A21
:1013E000FB68134424330A461A700C49BB687A68B8
:1013F00041F82320FB7883F00103DBB2002B08D0F7
:10140000BB68083BFA6851B2044A13440A4683F8A1
:10141000442000BF1437BD4680BC7047D41700205D
:1014200080B483B000AF7860054A7B6813442433EE
:10143000FF221A7000BF0C37BD4680BC704700BF4A
:10144000D417002080B582B000AF78600349786877
:10145000FFF723FF00BF0837BD4680BD19180020E5
:1014600080B582B000AF786003497868FFF739FF34
:1014700000BF0837BD4680BD1918002080B582B076
:1014800000AF786004497868FFF7E5FE0346184628
:101490000837BD4680BD00BF1918002080B483B056
:1014A00000AF7860054A7B681344243393F9003019
:1014B00018460C37BD4680BC704700BFD4170020CB
:1014C00080B483B000AF78600C4A7B6852F8233058
:1014D000B3F1FF3F0BD0094A7B6852F8233013F178
:1014E000020F04D0054A7B6852F8233000E0002345
:1014F00018460C37BD4680BC704700BFD41700208B
:1015000080B485B000AF7860074A7B6813444433E9
:1015100093F90030FB73FB7B23F0C00318461437AC
:10152000BD4680BC704700BFD417002080B485B092
:1015300000AF7860074A7B681344443393F9003066
:10154000FB73FB7B9B09DBB218461437BD4680BC9E
:10155000704700BFD417002080B485B000AF0346A9
:10156000FB710023FB73FB79094A52F82330B3F176
:10157000FF3F07D1FB79064A6FF0010142F82310C3
:101580000123FB73FB7B18461437BD4680BC7047B4
:10159000D417002080B584B000AF0346FB71FF2351
:1015A000FB73FB79002B0BD007F10D03184600F0FD
:1015B0002DF903460F4A934215D17B7BFB7312E052
:1015C0000823BB730CE0BB7B1846FFF7C5FF03463F
:1015D000002B02D0BB7BFB7305E0BB7B0133BB73ED
:1015E000BB7B082BEFD997F90F3018461037BD4653
:1015F00080BD00BF0000AD0B80B582B000AF0346D8
:10160000FB71FB790B4A4FF0FF3142F82310FB7955
:10161000072B07D9FB79083B064A1344FF2283F8BE
:10162000442003E0FB79184600F0CEF800BF0837ED
:10163000BD4680BDD417002080B584B000AF0346FE
:10164000FB71304B93F84930002B03D02E4BBB601D
:10165000BB6853E00023FB730DE0FB7B1846FFF7EC
:10166000C3FD0346002B03D0FB7B1846FFF7D8FED3
:10167000FB7B0133FB73FB7B1F2BEED90023FB733A
:1016800012E0FB7B1F4A4FF0FF3142F82310FB7B37
:10169000072B06D9FB7B083B1A4A1344FF2283F829
:1016A0004420FB7B0133FB73FB7B082BE9D904222D
:1016B000002116480AF0B4F91548FFF747FB034626
:1016C0001A46FB7919461046FFF716FB1048FFF73C
:1016D0003DFB03461846FFF7F7FA4FF4BE710C487E
:1016E000FFF75FFB4FF000410948FFF784FB054B14
:1016F000012283F84920074BBB60BB6818461037AE
:10170000BD4680BDD41700200500AD0B1918002080
:10171000006000400000AD0B80B483B000AF034612
:10172000FB71084BDA6CFB79012101FA03F31340DA
:10173000002B14BF01230023DBB218460C37BD4633
:1017400080BC7047D417002080B483B000AF03463C
:10175000FB71FB79012202FA03F3DBB2002B14BF09
:1017600001230023DBB218460C37BD4680BC70470E
:1017700080B483B000AF0346FB71074BDA6CFB7992
:10178000012101FA03F31343034AD36400BF0C376A
:10179000BD4680BC704700BFD417002080B483B022
:1017A00000AF0346FB71074BDA6CFB79012101FAAC
:1017B00003F3DB431340034AD36400BF0C37BD4639
:1017C00080BC7047D417002080B584B000AF0346BA
:1017D000FB710C4BFB60FB791846FFF7B5FF034626
:1017E00083F00103DBB2002B02D0074BFB6003E068
:1017F000FB791846FFF7D2FFFB6818461037BD4645
:1018000080BD00BF0000AD0B0400AD0B80B586B0FD
:1018100000AF78601D4B7B61FF233B610023FB73AE
:1018200029E0FB7B3A6922FA03F303F00103002B62
:1018300012D0FB7B1846FFF76FFF034683F00103CE
:10184000DBB2002B08D0FB7B1846FFF791FF7B68CB
:10185000FA7B1A700E4B7B617B690D4A93420ED066
:10186000FB7B012202FA03F3DB433A6913403B613D
:10187000FB7B0133FB733B69002BD2D100E000BF3F
:101880007B6918461837BD4680BD00BF0200AD0B0E
:101890000000AD0B80B586B000AFF860B9607A602B
:1018A000FB70444B7B61FB78002B0BD0BB689B78B3
:1018B000C3F34003DBB283F00103DBB2002B01D0A2
:1018C0003D4B72E0F868FFF76BFD0346002B02D03A
:1018D0003A4B7B6168E0FF23FB74FB78002B03D05D
:1018E00097F82030FB7409E0BB689B78C3F3400392
:1018F000DBB21846FFF74EFE0346FB7497F9133030
:10190000B3F1FF3F4ED097F91310BB689B78C3F338
:101910004003DBB27A68F868FFF758FDBB689B7834
:10192000C3F38003DBB283F00103DBB2002B13D0DF
:10193000BB689B7803F00103DBB2002B03D0F8688F
:10194000FFF790FB05E0BB685B781946F868FFF786
:1019500063FBF868FFF776FDBB689B7803F0020332
:10196000DBB2002B08D097F91310BB681B78FA681C
:101970001348FFF79BFA17E097F91330083B114A19
:10198000134493F94410BB681B789B015AB297F932
:101990001330083B0A4351B20A4A13440A4683F8FB
:1019A000442001E0084B7B617B6918461837BD462F
:1019B00080BD00BF0000AD0B0400AD0B0B00AD0BF4
:1019C00000600040D41700200200AD0B80B588B045
:1019D00002AFF860B9607A600023009300237A6850
:1019E000B968F868FFF756FF78617B6918461837C1
:1019F000BD4680BD80B588B000AF78600B46FB70F7
:101A00007868FFF7B7FC0346002B24D07868FFF70F
:101A100045FD0346083B1846FFF788FD0346FB7368
:101A2000FB7B032B0AD17868FFF75CFB0346002B96
:101A300001D0032300E00223FB7706E0FB7B012BB0
:101A400001D1022300E00323FB77FB7F194678686E
:101A5000FFF725FB31E07868FFF76AFC0346002BAF
:101A60002BD07868FFF71AFD0346BB61BB69DBB278
:101A70001846FFF786FA0346FB82BB6919461148F0
:101A8000FFF7E4F9FB8A19460E48FFF78AF9FB785D
:101A9000002B12D07868FFF701FD03461846FFF7C8
:101AA0000FFD38613B69002B07D00122BB6902FAA8
:101AB00003F319460348FFF79EF900BF2037BD46E0
:101AC00080BD00BF0060004080B584B000AF78608A
:101AD0007868FFF74FFC0346002B04D0002178689C
:101AE000FFF7DDFA17E07868FFF722FC0346002BCA
:101AF00011D07868FFF7D2FC0346FB60FB681946FB
:101B00000748FFF7BBF90122FB6802FA03F3194605
:101B10000348FFF77EF900BF1037BD4680BD00BF08
:101B20000060004080B582B000AF78607868FFF751
:101B3000CBFF7868FFF7FCFB0346002B07D07868E3
:101B4000FFF7ACFC034619461148FFF709FA78681D
:101B5000FFF794FC0346002B05D07868FFF770FA76
:101B60007868FFF77DFC7868FFF71AFC0346002BC6
:101B700007D07868FFF792FC0346DBB21846FFF700
:101B80003BFD7868FFF74CFC00BF0837BD4680BDC1
:101B90000060004080B584B000AF78607A680121B1
:101BA0000020FFF7D8FA0023FB600BE0FB689B00E6
:101BB0007A6813441B68002B01D0012306E0FB6800
:101BC0000133FB60FB68002BF0D000231846103770
:101BD000BD4680BD80B586B000AF786000237B61D4
:101BE00050E02F4A7B691344443393F90030B3F13A
:101BF000FF3F43D07869FFF783FC38617968386923
:101C0000FFF729FB0346002B39D07869FFF78EFCDC
:101C10000346FB733869FFF77BFA0346BB73BB7B54
:101C2000022B01D1032300E002237B737B7B194647
:101C30003869FFF734FA3869FFF7C1FA3869FFF7F6
:101C40002DFC03461846FFF73BFCB860BB68002B31
:101C500015D0FB7B032B0BD0BB7B022B02D1FB7B74
:101C6000012B05D0BB7B032B09D1FB7B022B06D1BB
:101C7000FA7BBB6811463869984700E000BF7B6972
:101C800001337B617B69002BABD07868FFF782FF63
:101C90000346002BA2D100BF00BF1837BD4680BD50
:101CA000D417002080B588B000AF0023FB6100236B
:101CB0003B604FF48073FB8201233B610023BB61D7
:101CC00020E0FB8A19463948FFF757F80346002BF6
:101CD0000FD039693548FFF7AAF80346002B08D022
:101CE000FB8A19463148FFF75CF8FA693B691343F0
:101CF000FB613B695B003B61FB8A0433FB82BB6990
:101D00000133BB61BB69072BDBD94FF4BE71274898
:101D1000FFF733F80346002B0ED04FF4BE71234873
:101D2000FFF73FF8FB6943F00043FB613B461A466F
:101D300001210020FFF70FFAFB69DBB2002B29D04D
:101D400001233B610023BB6121E03A69FB69134039
:101D5000002B16D0B9691548FFF7DBF8F860B969B0
:101D60001248FFF7E9F80346FB72B869FFF7A8FBD2
:101D700078607B68002B04D0FA7A7B681146F8689B
:101D800098473B695B003B61BB690133BB61BB6941
:101D9000072BDAD9FB69002B03DA3B461846FFF71D
:101DA00019FF00BF2037BD4680BD00BF0060004066
:101DB00080B483B000AF0346FB71FB7903F01F02D0
:101DC000064997F907305B09012000FA02F241F851
:101DD000232000BF0C37BD4680BC704700E100E007
:101DE00080B483B000AF0346FB71FB7903F01F02A0
:101DF000074997F907305B09012000FA02F2203306
:101E000041F8232000BF0C37BD4680BC704700BF9F
:101E100000E100E080B483B000AF03463960FB719D
:101E200097F90730002B0BDA3B68DAB20C49FB79E3
:101E300003F00F03043B5201D2B20B441A7609E0BF
:101E40003B68DAB2074997F907305201D2B20B4426
:101E500083F8002300BF0C37BD4680BC704700BF2D
:101E600000ED00E000E100E080B483B000AF7860F6
:101E70007B681B0B5BB218460C37BD4680BC7047B5
:101E800080B582B000AF0346FB7197F90730184662
:101E9000FFF7A6FF00BF0837BD4680BD80B483B002
:101EA00000AF78607B681B6800BF0C37BD4680BC04
:101EB000704780B582B000AF78600B467B807B882E
:101EC0007A68134400221A607B887A6813441846A3
:101ED000FFF7E4FF00BF0837BD4680BD80B483B084
:101EE00000AF78600B467B807B887A6813441B6860
:101EF000002B14BF01230023DBB218460C37BD466C
:101F000080BC704780B483B000AF786039607B6874
:101F10003A68C3F8042300BF0C37BD4680BC704745
:101F200080B483B000AF786039607B68D3F8042355
:101F30003B68134018460C37BD4680BC704780B4E0
:101F400083B000AF786039607B683A68C3F80823D3
:101F500000BF0C37BD4680BC704780B485B000AF71
:101F600078607B68D3F88034FB607B68FA68C3F8DC
:101F70008024FB6818461437BD4680BC704780B487
:101F800083B000AF78607B680422C3F8002500BFEF
:101F90000C37BD4680BC704780B483B000AF78601A
:101FA0007B680022C3F8002500BF0C37BD4680BC0B
:101FB000704780B485B000AFF860B9607A60FB68A4
:101FC0007A68C3F81425FB68BA68C3F80C2500BF0B
:101FD0001437BD4680BC704780B582B000AF7860D2
:101FE0004FF0FF324FF0FF317868FFF7E2FF00BF9C
:101FF0000837BD4680BD80B483B000AF78607B6891
:10200000D3F80C3518460C37BD4680BC704780B4F9
:1020100083B000AF78607B68D3F8143518460C376E
:10202000BD4680BC704780B483B000AF78607B68E9
:10203000D3F8083518460C37BD4680BC704780B4CD
:1020400083B000AF78607B68D3F8103518460C3742
:10205000BD4680BC704780B485B000AFF860B96001
:102060007A60FB68BA68C3F80825FB687A68C3F829
:10207000102500BF1437BD4680BC704780B582B0C4
:1020800000AF78604FF0FF324FF0FF317868FFF714
:10209000E2FF00BF0837BD4680BD80B483B000AF0B
:1020A00078607B68D3F81835DBB218460C37BD462C
:1020B00080BC704780B483B000AF78600B46FB7083
:1020C000FA787B68C3F81C2500BF0C37BD4680BC7E
:1020D000704780B483B000AF78600B46FB70FB782C
:1020E0007A68134401221A6000BF0C37BD4680BCD9
:1020F000704780B483B000AF786039603B685A782D
:102100003B681B781343DBB21A467B68C3F86C2527
:1021100000BF0C37BD4680BC704780B483B000AFB1
:10212000786039607B683A68C3F8242500BF0C37B3
:10213000BD4680BC704780B582B000AF78607868DB
:1021400000F090F84FF0A04318460837BD4680BD18
:1021500080B584B000AF7860084611461A46034641
:10216000FB700B46BB7013467B703B1D1846FFF798
:10217000E2FFF8600023BB60FA78BB785B001A438B
:102180007B789B001A433B7E1B021A433B7F1B0458
:102190001343BA681343BB607A68FB6802F5E072C8
:1021A000B96843F8221000BF1037BD4680BD80B526
:1021B00084B002AF786000230193002300930023D2
:1021C000012201217868FFF7C3FF00BF0837BD4631
:1021D00080BD80B584B002AF78600B46FB70FB78A1
:1021E0000022019200220092002200217868FFF76D
:1021F000AFFF00BF0837BD4680BD80B584B002AFD9
:102200007860002301930023009300230122002122
:102210007868FFF79DFF00BF0837BD4680BD80B5D9
:1022200084B000AF78603B1D1846FFF784FFF8606C
:102230007B68012202FA03F31946F86800F004F8FB
:1022400000BF1037BD4680BD80B483B000AF78605A
:1022500039607B683A68C3F8082500BF0C37BD4673
:1022600080BC704780B485B000AF78607B681B6825
:10227000FB60FB6803F01F027B681A60FB685B0968
:1022800018461437BD4680BC704780B582B000AF99
:10229000786039603B681B68B3F1FF3F09D03B6849
:1022A0001B681846FFF7BBFF3B681B681846FFF723
:1022B0007EFF3B685B68B3F1FF3F05D03B685B681E
:1022C00000211846FFF785FF7B681A683B685B6949
:1022D00019461046FFF721FF7B681A683B681933DF
:1022E00019461046FFF705FF7B6818683B681968B8
:1022F0003B685B681A46FFF75CFE3B685B7E012B20
:1023000022D13B689B68B3F1FF3F05D03B689B68D7
:1023100000211846FFF75DFF3B68DB68B3F1FF3F24
:1023200009D03B68DB681846FFF779FF3B68DB683C
:102330001846FFF73CFF7B6818683B68D9683B6824
:102340009B681A46FFF787FE00BF0837BD4680BD71
:1023500080B582B000AF78600B46FB707B681B686D
:102360004FF48E711846FFF7A4FD7B681B684FF48D
:10237000A2711846FFF79DFD7B681B680E49184641
:10238000FFF7C0FD7B681B681846FFF76DFD03462D
:102390001A46FB7819461046FFF73CFD7B681B6820
:1023A0001846FFF761FD03461846FFF701FD00BF21
:1023B0000837BD4680BD00BF8000020080B582B0F6
:1023C00000AF78607B681B6808491846FFF7B7FDC7
:1023D0007B681B681846FFF747FD03461846FFF762
:1023E0004FFD00BF0837BD4680BD00BF840202001C
:1023F00080B586B000AF78607B681B681846FFF731
:10240000FAFD78617B681B681846FFF700FE3861AB
:102410007B681B681846FFF706FEF8607B681B6840
:102420001846FFF70CFEB8607B681B681846FFF77C
:10243000D3FD7B681B681846FFF720FE7B69B3F16C
:10244000FF3F02D07869FFF7D8FE3B69B3F1FF3F49
:1024500002D03869FFF7D1FEBB68B3F1FF3F02D06D
:10246000B868FFF7CAFEFB68B3F1FF3F02D0F86817
:10247000FFF7C3FE00BF1837BD4680BD80B586B0EC
:1024800000AFF860B9607A60FB681B791A462C23AC
:1024900002FB03F31E4A13447B611E4B3B617B69C5
:1024A00093F82A30002B03D01B4B3B613B692BE098
:1024B000B968F868FFF7E9FE7B697A685A60BB681B
:1024C0001A697B691A607B695B68002B05D0BB6861
:1024D0001B7E1946F868FFF73BFFFB681B68184630
:1024E000FFF74DFD7B6900229A617B690022DA616A
:1024F0007B69002283F829207B6900225A617B696D
:10250000012283F82A203B6918461837BD4680BD52
:10251000241800200000AD0B0500AD0B80B584B081
:1025200000AF78607B681B791A462C2302FB03F30B
:102530000E4A1344FB607B681B681846FFF72CFDAE
:10254000FB685B68002B02D07868FFF737FF78687C
:10255000FFF74EFFFB68002283F82A20FB68002269
:102560005A6000BF1037BD4680BD00BF2418002050
:1025700080B584B000AF786039604FF48E717868B0
:10258000FFF797FC3B689A683B681B6A13441B780B
:10259000FB733B681B6A5A1C3B681A62FB7B19463B
:1025A0007868FFF787FD00BF1037BD4680BD80B556
:1025B00082B000AF78607B681B684FF49271184658
:1025C000FFF777FC7B681B6800211846FFF781FD49
:1025D00000BF0837BD4680BD90B583B000AF7860BE
:1025E00039603B689B69002B08D14FF4847178688F
:1025F000FFF75FFC7868FFF750FD13E04FF484713C
:102600007868FFF756FC3B68DA683B685B6AD41869
:102610007868FFF742FD034623703B685B6A5A1CEB
:102620003B685A620C37BD4690BD000080B588B04B
:1026300000AFF860B9607A60FB681B791A462C23FA
:1026400002FB03F3674A1344BB610023FB77BB69BA
:102650005B68002B06D0FB681B684FF401711846BD
:10266000FFF76DFCBB699B69002B14D0BB69DB696C
:10267000002B0ED0BB695B68002B06D0FB681B6883
:102680004FF401711846FFF73DFC574B7B617B69A6
:10269000A3E00123FB77FB7F83F00103DBB2002B78
:1026A0000CD0BB697A689A61BB69BA68DA60BB69A9
:1026B00000225A62BB690022DA6105E0BB69BA6890
:1026C0001A61BB697A68DA61BB6993F8293083F0D3
:1026D0000103DBB2002B08D0FB7F83F00103DBB2E8
:1026E000002B02D0F868FFF762FFBB695B68002B24
:1026F00069D1FB681B684FF4A2711846FFF7D9FB3C
:10270000FB681B684FF492711846FFF7E7FB03461E
:10271000FB74FB681B684FF484711846FFF7DEFBFF
:102720000346BB74FB681B684FF4A2711846FFF7A1
:10273000D5FB03467B74BB7C83F00103DBB2002B2B
:102740000BD07B7C83F00103DBB2002B05D0FB7C3C
:1027500083F00103DBB2002BD2D1FB7C002B0ED126
:102760007B7C002B0BD1FB681B68B9691846FFF70F
:1027700033FFBB699A69BB695B6A9A42C0D8BB697F
:1027800000229A61FB7C002B03D0184B7B617B6994
:1027900023E07B7C002B03D0154B7B617B691CE025
:1027A000BB6993F82930002B06D0FB681B68002119
:1027B0001846FFF78EFC0DE0FB681B6804211846E5
:1027C000FFF787FC06E0FB681B684FF401711846B1
:1027D000FFF798FB074B7B617B6918462037BD46A6
:1027E00080BD00BF241800200B00AD0B0100AD0B15
:1027F0000800AD0B0000AD0B80B588B000AFF860ED
:10280000B9607A6001233B74BB68BB617B687B6104
:10281000FB685B68FA68116807F110021046984778
:1028200000BF2037BD4680BD80B586B000AF786060
:10283000396000233B723B683B617B689B68FB60AF
:102840007B6800225A617B685B687A68116807F1CF
:1028500008021046984700BF1837BD4680BD80B5B6
:102860008AB000AF786039604FF400717868FFF784
:1028700057FB0346002B39D04FF492717868FFF76D
:102880002DFB0346002B31D04FF492717868FFF78F
:1028900010FB4FF401717868FFF751FB3B6893F828
:1028A000293083F00103DBB2002B03D004217868C8
:1028B000FFF70FFC02233B737868FFF74EFB0346DC
:1028C000BB613B689B697B613B68DB683B613B6844
:1028D00000229A613B680022DA613B685B683A68D3
:1028E000116807F10C021046984752E004217868FD
:1028F000FFF716FB0346002B4BD04FF4847178682A
:10290000FFF7ECFA0346002B43D039687868FFF7ED
:1029100063FE3B689A693B685B6A9A4239D13B68BF
:10292000DB69002B19D03B68DB687B623B685B6A24
:102930003B623B68DA693B689A613B681A693B68AD
:10294000DA603B680022DA613B6800225A627A6AE8
:10295000396A3868FFF750FF1BE03B6893F829306D
:1029600083F00103DBB2002B03D004217868FFF76A
:10297000B0FB4FF401717868FFF7E1FA3B68002281
:102980009A613B68596A3B68DB681A463868FFF70A
:1029900033FF4FF48E717868FFF7A0FA0346002BDF
:1029A00024D03B685B69FB613B681B6AFA699A4209
:1029B0000DD93B6893F82830DBB283F00103DBB21A
:1029C000002B04D039687868FFF7D2FD0EE04FF491
:1029D0008E717868FFF76DFA3B685B69002B05D054
:1029E0003B685B6919463868FFF71EFF4FF4A27118
:1029F0007868FFF773FA0346002B1CD04FF4A271DE
:102A00007868FFF756FA3B6893F82930002B03D01B
:102A100000217868FFF75DFB3B689B69002B0AD0BB
:102A20003B6800229A613B68596A3B68DB681A463A
:102A30003868FFF7E1FE00BF2837BD4680BD0000C3
:102A400080B500AF02490348FFF709FF00BF80BD12
:102A5000241800200020004080B483B000AF1E4B3B
:102A60001B68B3F1FF3F0AD11C4B1B68DBB27B60D4
:102A70001B4B1B681B0903F00F033B6005E0164B63
:102A80001B687B60174B1B683B607B68062B1DD166
:102A90003B68033B042B17D801A252F823F000BF78
:102AA000B52A0000B92A0000BD2A0000C12A000092
:102AB000C52A000001230AE0012308E0012306E003
:102AC000012304E0012302E0012300E00023184673
:102AD0000C37BD4680BC704730010010E00F00F09D
:102AE000E80F00F03401001080B483B000AF184B41
:102AF0001B68DBB27B60174B1B681B0903F00F03DD
:102B00003B607B68062B1DD13B68033B042B17D829
:102B100001A252F823F000BF2D2B0000312B000042
:102B2000352B0000392B00003D2B000001230AE06B
:102B3000002308E0002306E0002304E0002302E075
:102B4000002300E0002318460C37BD4680BC7047C8
:102B5000E00F00F0E80F00F080B483B000AF1E4B30
:102B60001B68B3F1FF3F0AD11C4B1B68DBB27B60D3
:102B70001B4B1B681B0903F00F033B6005E0164B62
:102B80001B687B60174B1B683B607B68062B1DD165
:102B90003B68033B042B17D801A252F823F000BF77
:102BA000B52B0000B92B0000BD2B0000C12B00008D
:102BB000C52B000001230AE0012308E0012306E001
:102BC000012304E0012302E0012300E00023184672
:102BD0000C37BD4680BC704730010010E00F00F09C
:102BE000E80F00F03401001080B483B000AF184B40
:102BF0001B68DBB27B60174B1B681B0903F00F03DC
:102C00003B607B68062B1DD13B68033B042B17D828
:102C100001A252F823F000BF2D2C0000312C00003F
:102C2000352C0000392C00003D2C000001230AE067
:102C3000002308E0002306E0002304E0002302E074
:102C4000002300E0002318460C37BD4680BC7047C7
:102C5000E00F00F0E80F00F080B483B000AF1E4B2F
:102C60001B68B3F1FF3F0AD11C4B1B68DBB27B60D2
:102C70001B4B1B681B0903F00F033B6005E0164B61
:102C80001B687B60174B1B683B607B68062B1DD164
:102C90003B68033B042B17D801A252F823F000BF76
:102CA000B52C0000B92C0000BD2C0000C12C000088
:102CB000C52C000001230AE0012308E0012306E0FF
:102CC000012304E0012302E0012300E00023184671
:102CD0000C37BD4680BC704730010010E00F00F09B
:102CE000E80F00F03401001080B483B000AF184B3F
:102CF0001B68DBB27B60174B1B681B0903F00F03DB
:102D00003B607B68062B1DD13B68033B042B17D827
:102D100001A252F823F000BF2D2D0000312D00003C
:102D2000352D0000392D00003D2D000001230AE063
:102D3000002308E0002306E0002304E0002302E073
:102D4000002300E0002318460C37BD4680BC7047C6
:102D5000E00F00F0E80F00F080B483B000AF184B34
:102D60001B68DBB27B60174B1B681B0903F00F036A
:102D70003B607B68062B1DD13B68033B042B17D8B7
:102D800001A252F823F000BF9D2D0000A12D0000EC
:102D9000A52D0000A92D0000AD2D000001230AE0A3
:102DA000002308E0002306E0002304E0002302E003
:102DB000002300E0002318460C37BD4680BC704756
:102DC000E00F00F0E80F00F080B483B000AF1E4BBE
:102DD0001B68B3F1FF3F0AD11C4B1B68DBB27B6061
:102DE0001B4B1B681B0903F00F033B6005E0164BF0
:102DF0001B687B60174B1B683B607B68062B1DD1F3
:102E00003B68033B042B17D801A252F823F000BF04
:102E1000252E0000292E00002D2E0000312E00004E
:102E2000352E000000230AE0002308E0012306E01D
:102E3000012304E0012302E0012300E000231846FF
:102E40000C37BD4680BC704730010010E00F00F029
:102E5000E80F00F03401001080B483B000AF1E4BC7
:102E60001B68B3F1FF3F0AD11C4B1B68DBB27B60D0
:102E70001B4B1B681B0903F00F033B6005E0164B5F
:102E80001B687B60174B1B683B607B68062B1DD162
:102E90003B68033B042B17D801A252F823F000BF74
:102EA000B52E0000B92E0000BD2E0000C12E00007E
:102EB000C52E000001230AE0012308E0012306E0FB
:102EC000012304E0012302E0012300E0002318466F
:102ED0000C37BD4680BC704730010010E00F00F099
:102EE000E80F00F03401001080B483B000AF1E4B37
:102EF0001B68B3F1FF3F0AD11C4B1B68DBB27B6040
:102F00001B4B1B681B0903F00F033B6005E0164BCE
:102F10001B687B60174B1B683B607B68062B1DD1D1
:102F20003B68033B042B17D801A252F823F000BFE3
:102F3000452F0000492F00004D2F0000512F0000A9
:102F4000552F000001230AE0012308E0012306E0D9
:102F5000012304E0012302E0012300E000231846DE
:102F60000C37BD4680BC704730010010E00F00F008
:102F7000E80F00F03401001080B483B000AF164BAE
:102F80001B687B60154B1B683B607B68062B1DD163
:102F90003B68033B042B17D801A252F823F000BF73
:102FA000B52F0000B92F0000BD2F0000C12F000079
:102FB000C52F000000230AE0002308E0002306E0FC
:102FC000012304E0012302E0012300E0002318466E
:102FD0000C37BD4680BC7047300100103401001032
:102FE00080B483B000AF164B1B687B60154B1B6829
:102FF0003B607B68062B1DD13B68033B042B17D835
:1030000001A252F823F000BF1D3000002130000063
:1030100025300000293000002D30000000230AE098
:10302000002308E0002306E0002304E0012302E07F
:10303000012300E0002318460C37BD4680BC7047D2
:10304000300100103401001080B500AFFFF7C8FF59
:103050000346002B07D04FF010234FF08042D3F8E7
:103060000832C2F8583500BF80BD000080B400AF00
:10307000034B044A1A6000BFBD4680BC704700BFC6
:10308000000000200090D00380B500AFFFF7E4FC03
:103090000346002B06D07F4B1B681B0A7E4A03F0B9
:1030A0001F031360FFF720FD0346002B02D07B4B6C
:1030B0007B4A1A60FFF750FD0346002B06D0794B80
:1030C0001B685B0B784A03F007031360FFF78CFD66
:1030D0000346002B05D0754BDB68744A23F08073E0
:1030E000D360FFF7B9FD0346002B0ED04FF08043AD
:1030F0000022C3F80C214FF080430022C3F81021B6
:103100004FF080430022C3F83825FFF7EDFD03465A
:10311000002B02D0664B03221A60FFF71DFE034608
:10312000002B0BD0634B05221A60634B01221A60FF
:10313000624B00221A60624B3F221A60FFF744FE86
:103140000346002B76D04FF080535E4AD3F8043408
:10315000C2F820354FF080535A4AD3F80834C2F8E9
:1031600024354FF08053574AD3F80C34C2F8283531
:103170004FF08053534AD3F81034C2F82C354FF037
:103180008053504AD3F81434C2F830354FF080538E
:103190004C4AD3F81834C2F834354FF08053494ABA
:1031A000D3F81C34C2F840354FF08053454AD3F869
:1031B0002034C2F844354FF08053424AD3F82434C7
:1031C000C2F848354FF080533E4AD3F82834C2F84D
:1031D0004C354FF080533B4AD3F82C34C2F850356D
:1031E0004FF08053374AD3F83034C2F854354FF09B
:1031F0008053344AD3F83434C2F860354FF08053EA
:10320000304AD3F83834C2F864354FF080532D4A31
:10321000D3F83C34C2F868354FF08053294AD3F8CC
:103220004034C2F86C354FF08053264AD3F844340A
:10323000C2F87035FFF710FE0346002B05D0224B75
:103240001B68224A03F04F031360FFF74DFE03464D
:10325000002B0DD04FF08043D3F8003403F001036E
:10326000002B05D04FF080436FF00102C3F800241B
:10327000FFF782FE0346002B05D0154B1B68144A4E
:1032800043F480631360FFF7DFFEFFF7EFFE00BF3C
:1032900080BD00BF240300104035014074C00740CA
:1032A0000DF0ADBA440200103C050040F0ED00E026
:1032B000A0050040105600408856004018560040B7
:1032C0001456004000C0004058020010E40E0040B8
:1032D0003C17004080B400AF024B1B681846BD4647
:1032E00080BC70475018002080B582B000AF1B4BE7
:1032F0001B68002B02D0194B1B689847FCF7C8FFCE
:103300007860174B1B680133154A136001F08EFE7D
:1033100038603B689B6C5A1E3B689A643B689B6CA8
:10332000002B12D13B685A6C3B689A643B6893F857
:10333000343043F00803DAB23B6883F8342078680D
:10334000FCF7AAFF03F01EFE02E07868FCF7A4FF7A
:1033500002F0DEFE00BF0837BD4680BD54180020D5
:103360005018002080B485B000AF78607B68002BD7
:1033700003DA4FF0FF33FB6025E07B68154A82FBE0
:1033800003129211DB17D31A642202FB03F3FB60D2
:103390007A68104B83FB02139911D317CB1A4FF4A1
:1033A0007A7101FB03F3D31A642202FB03F303F2E5
:1033B000E733084A82FB03129211DB17D31A1A462D
:1033C000FB681344FB60FB6818461437BD4680BC9D
:1033D000704700BFD34D621080B483B000AF7860F7
:1033E0007B68002B02DA7B685B427B607B680B2B7F
:1033F00002DD064BDB6A03E0044A7B6852F82330A7
:1034000018460C37BD4680BC704700BF0400002042
:1034100080B584B000AF786002F03CFB0346002B1F
:1034200003D00A4A7B6813600CE001F0FFFDF860EE
:10343000FB68002B03D1054A7B68136002E0FB6840
:103440007A681A631037BD4680BD00BF5818002047
:1034500080B582B000AF02F01DFB0346002B01D007
:10346000074B09E001F0E2FD78607B68002B02D099
:103470007B68303300E0024B18460837BD4680BDFC
:103480005818002080B489B000AFF860B9607A6045
:10349000FB68FB61BB68DBB27B617B68032B40D9B7
:1034A000FB6803F00303002B3BD1FB68BB617B6926
:1034B0001B027A6913433B613B691B043A6913435E
:1034C0003B6116E0BB691A1DBA613A691A60BB69B3
:1034D0001A1DBA613A691A60BB691A1DBA613A6964
:1034E0001A60BB691A1DBA613A691A607B68103BA1
:1034F0007B607B680F2BE5D807E0BB691A1DBA61BA
:103500003A691A607B68043B7B607B68032BF4D8C4
:10351000BB69FB6105E0FB695A1CFA617A69D2B2AA
:103520001A707B685A1E7A60002BF4D1FB6818462B
:103530002437BD4680BC704780B48BB000AFF860C4
:10354000B9607A60FB687B62BB683B627B687B61C9
:103550007B690F2B4DD93A6A7B6A134303F003034F
:10356000002B46D17B6AFB613B6ABB6122E0BA69F2
:10357000131DBB61FB69191DF96112681A60BA69F4
:10358000131DBB61FB69191DF96112681A60BA69E4
:10359000131DBB61FB69191DF96112681A60BA69D4
:1035A000131DBB61FB69191DF96112681A607B6903
:1035B000103B7B617B690F2BD9D80AE0BA69131DD8
:1035C000BB61FB69191DF96112681A607B69043BD4
:1035D0007B617B69032BF1D8FB697B62BB693B6232
:1035E00007E03A6A531C3B627B6A591C7962127885
:1035F0001A707B695A1E7A61002BF2D1FB6818465B
:103600002C37BD4680BC704780B487B000AFF860EF
:10361000B9607A60FB687B61BB683B613A697B6932
:103620009A4226D23A697B6813447A699A4220D238
:103630007A697B6813447B613A697B6813443B6118
:1036400009E03B69013B3B617B69013B7B613B6975
:103650001A787B691A707B685A1E7A60002BF0D149
:103660000CE03A69531C3B617B69591C7961127803
:103670001A707B685A1E7A60002BF2D1FB681846DC
:103680001C37BD4680BC704780B487B000AFF8607F
:10369000B9607A607B68002B21D0FB687B61BB68D6
:1036A0003B613A69531C3B617B69591C7961127813
:1036B0001A701B78002B0CD104E07B695A1C7A61CC
:1036C00000221A707B68013B7B607B68002BF4D181
:1036D00005E07B68013B7B607B68002BE1D1FB68E8
:1036E00018461C37BD4680BC704780B487B000AF19
:1036F000F860B9607A600023FB7515E0FB681A7802
:10370000BB68591CB9601B78D31ADBB2FB7597F9FB
:103710001730002B0BD1FB685A1CFA601B78002B6A
:1037200005D07B68013B7B607B68002BE6D197F975
:10373000173018461C37BD4680BC704780B483B034
:1037400000AF7860396005E07B6801337B603B68DF
:1037500001333B607B681B78002B05D07B681A78AF
:103760003B681B789A42EFD07B681B781A463B680F
:103770001B78D31A18460C37BD4680BC704780B4FE
:1037800085B000AF78607B68FB6002E0FB680133C6
:10379000FB60FB681B78002BF8D1FA687B68D31AB2
:1037A00018461437BD4680BC7047000080B582B013
:1037B00002AF0B4800F034FC0A4800F031FC0A4B21
:1037C00001930A4B0093012301220421084800F0D1
:1037D00027FC084800F024FC00BFBD4680BD00BFA8
:1037E00000BF00000CBF000054BF000060BF00001D
:1037F00030BF00006CBF000080B485B000AF7860BF
:1038000039603B680A2B17D17B681B681946134B3C
:10381000A3FB0123DA0813469B0013445B00CA1A7A
:10382000FA607B681B681A460C4BA3FB0223DB087B
:103830001A467B681A600AE07B681B6803F00F0376
:10384000FB607B681B681B091A467B681A60FB6873
:1038500018461437BD4680BC704700BFCDCCCCCCD9
:1038600080B485B000AF78600023FB600EE0FA689A
:1038700013469B0013445B0018467B681B68591C69
:103880007A6811601B780344303BFB607B681B68DF
:103890001B78303B092BEAD9FB6818461437BD4624
:1038A00080BC704780B58EB000AFF860B9607A60B8
:1038B0003B607B6CBB623B6CFB62BB6C03F0400308
:1038C000002B01D0754B00E0754B7B62BB6C03F0A5
:1038D0001003002B03D0BB6C23F00103BB64BB6C53
:1038E00003F00103002B01D0302300E0202387F8F0
:1038F0002330002387F83730BB6C03F00203002B22
:103900001AD07B68002B06DA2D2387F837307B68C6
:103910005B427B6010E0BB6C03F00403002B03D020
:103920002B2387F8373007E0BB6C03F00803002B2C
:1039300002D0202387F8373000233B637B68002BBD
:103940001BD13B6B5A1C3A6307F1380213443022F7
:1039500003F8282C14E03B1D39681846FFF74CFF8C
:1039600003461A467B6A1A443B6B591C396312782A
:1039700007F138010B4403F8282C7B68002BEAD1AF
:103980003A6B7B6C9A4201DD3B6B7B64FA6A7B6C21
:10399000D31AFB62BB6C03F01103002B19D197F80B
:1039A0003730002B10D0FB6A002B0DDDFB6A013B8A
:1039B000FB6209E0FA68BB689A4202D2FB682022E7
:1039C0001A70FB680133FB60FB6A5A1EFA62002B17
:1039D000F0DC97F83730002B0DD0FA68BB689A42BC
:1039E00003D2FB6897F837201A70FB6A013BFB6231
:1039F000FB680133FB60BB6C03F01003002B1BD191
:103A00000AE0FA68BB689A4203D2FB6897F8232061
:103A10001A70FB680133FB60FB6A5A1EFA62002BC6
:103A2000EFDC09E0FA68BB689A4202D2FB683022F8
:103A30001A70FB680133FB607B6C5A1E7A643A6B28
:103A40009A42EFDB0DE0FA68BB689A4206D207F1B2
:103A500010023B6B13441A78FB681A70FB68013341
:103A6000FB603B6B5A1E3A63002B0DDDBB6A002BDB
:103A7000E9D109E0FA68BB689A4202D2FB682022C9
:103A80001A70FB680133FB60FB6A5A1EFA62002B56
:103A9000F0DCFB6818463837BD4680BD68DF0000A3
:103AA0007CDF000080B592B004AFF860B9607A6046
:103AB0003B60FB68BB62FA68BB6813447B627A6A4E
:103AC000FB689A4280F026824FF0FF337B627A6A6D
:103AD000FB68D31ABB601DE27B681B78252B0BD0DB
:103AE000BA6A7B6A9A4203D27B681A78BB6A1A70F8
:103AF000BB6A0133BB620AE20023BB777B680133F8
:103B00007B607B681B782D2B04D1BB7F43F01003B7
:103B1000BB77F3E77B681B782B2B04D1BB7F43F08B
:103B20000403BB77EAE77B681B78202B04D1BB7FBB
:103B300043F00803BB77E1E77B681B78232B04D1B4
:103B4000BB7F43F02003BB77D8E77B681B78302B23
:103B500004D1BB7F43F00103BB77CFE700BF4FF039
:103B6000FF33BB617B681B78303B092B05D83B1DBD
:103B70001846FFF775FEB86115E07B681B782A2BA5
:103B800011D17B6801337B603B681A1D3A601B686A
:103B9000BB61BB69002B06DABB695B42BB61BB7FC3
:103BA00043F01003BB774FF0FF337B617B681B78DA
:103BB0002E2B1ED17B6801337B607B681B78303BEA
:103BC000092B05D83B1D1846FFF74AFE78610BE02C
:103BD0007B681B782A2B07D17B6801337B603B68AD
:103BE0001A1D3A601B687B617B69002B01DA002398
:103BF0007B6100237B777B681B78682B03D07B6815
:103C00001B786C2B05D17B681B787B777B68013335
:103C10007B600A23FB777B681B78252B00F00881EB
:103C2000252BC0F21F81782B00F31C81582BC0F28A
:103C30001981583B202B00F2158101A252F823F084
:103C40004D3E0000653E0000653E0000653E000000
:103C5000653E0000653E0000653E0000653E0000D8
:103C6000653E0000653E0000653E0000C53C00006A
:103C70005B3E0000653E0000653E0000653E0000C2
:103C8000653E00005B3E0000653E0000653E0000B2
:103C9000653E0000653E0000653E0000473E0000B6
:103CA000F93D0000653E0000653E0000333D000028
:103CB000653E0000A13E0000653E0000653E00003C
:103CC000553E0000BB7F03F01003002B10D109E02C
:103CD000BA6A7B6A9A4202D2BB6A20221A70BB6A15
:103CE0000133BB62BB69013BBB61BB69002BEFDCED
:103CF0003B681A1D3A601B68FB74BA6A7B6A9A4279
:103D000002D2BB6AFA7C1A70BB6A0133BB6209E05B
:103D1000BA6A7B6A9A4202D2BB6A20221A70BB6AD4
:103D20000133BB62BB69013BBB61BB69002BEFDCAC
:103D3000EDE03B681A1D3A601B683B623B6A002B52
:103D400001D1824B3B620023FB6202E0FB6A01333C
:103D5000FB62FA6ABB699A4205D0FB6A3A6A13446D
:103D60001B78002BF2D17B69002B05DDFA6A7B6999
:103D70009A4201DD7B69FB62BB7F03F01003002BDD
:103D800010D109E0BA6A7B6A9A4202D2BB6A202249
:103D90001A70BB6A0133BB62BB695A1EBA61FA6A08
:103DA0009A42EFDB00233B6310E0BA6A7B6A9A42D7
:103DB00003D23B6A1A78BB6A1A70BB6A0133BB62D2
:103DC0003B6A01333B623B6B01333B633A6BFB6AFB
:103DD0009A42EADB09E0BA6A7B6A9A4202D2BB6A7B
:103DE00020221A70BB6A0133BB62BB695A1EBA61DA
:103DF000FA6A9A42EFDB8AE0BB69B3F1FF3F05D173
:103E00000823BB61BB7F43F00103BB773B681A1DEE
:103E10003A601B681A46BB7F02937B690193BB69BA
:103E200000931023796AB86AFFF73CFDB8626EE030
:103E3000BA6A7B6A9A4202D2BB6A25221A70BB6AAE
:103E40000133BB6263E00823FB772AE0BB7F43F0CA
:103E50004003BB771023FB7723E0BB7F43F00203D3
:103E6000BB771DE0BA6A7B6A9A4202D2BB6A2522FE
:103E70001A70BB6A0133BB627B681B78002B0BD0C6
:103E8000BA6A7B6A9A4203D27B681A78BB6A1A7054
:103E9000BB6A0133BB623AE07B68013B7B6036E082
:103EA00000BF7B7F6C2B09D13B681A1D3A601B68F1
:103EB0007B63BB7F03F00203002B1AE07B7F682B40
:103EC0000ED13B681A1D3A601B689BB27B63BB7FB7
:103ED00003F00203002B0CD07B6B1BB27B6308E06A
:103EE0003B681A1D3A601B687B63BB7F03F00203CB
:103EF000002B7A6BF97FBB7F02937B690193BB69CF
:103F000000930B46796AB86AFFF7CCFCB8627B680D
:103F100001337B607B681B78002B7FF4DDADBB68D1
:103F2000002B0BD0BA6A7B6A9A4203D2BB6A00228A
:103F30001A7003E07B6A013B00221A70BA6AFB68C0
:103F4000D31A18463837BD4680BD00BF98BF000061
:103F500080B584B000AFF860B9607A607B68BA68F9
:103F60004FF0FF31F868FFF79DFD03461846103704
:103F7000BD4680BD0EB480B585B000AF786007F156
:103F80002003BB60BA68F9697868FFF7E1FFF86061
:103F9000FB6818461437BD46BDE8804003B0704743
:103FA00080B400AF024B1B681846BD4680BC70470A
:103FB0005C18002080B584B000AF7860124B1B689D
:103FC000FB60786802F02EFDB860BA68FB689A4220
:103FD00001D1002313E0BB68002B0FD00A4B1B68F4
:103FE000002B04D0084B1B68184602F0B5FD432196
:103FF000B86802F025FD044ABB681360FB681846E8
:104000001037BD4680BD00BF5C18002080B483B06F
:1040100000AF786000BF0C37BD4680BC7047000021
:104020000FB480B582B000AF07F114033B603B686A
:104030003A697F211048FFF735FD03467B607B68B6
:104040007F2B01D97F237B600C4B1B68002B03D196
:104050000948FFF7DBFF06E0084B18687B68064A53
:10406000002102F00BFE7B6818460837BD46BDE80C
:10407000804004B0704700BF941800205C180020F6
:1040800080B500AF01220349034800F07FFB00BF69
:1040900080BD00BFA0BF00006818002080B500AF41
:1040A00000F0C4FF0346002B06D04FF0FF31044858
:1040B00000F09EFB034600E00023184680BD00BFD1
:1040C0006818002080B582B000AF78607B68002B54
:1040D00005D040F27E520849084800F01BF900F074
:1040E000A5FF0346002B02D0054800F08FFC00BF5F
:1040F0000837BD4680BD00BFA4DF0000A8BF000098
:104100006818002080B485B000AFF860B9607A60AC
:10411000FB68002B04D00D4B1B68DA69FB681A6042
:10412000BB68002B04D0094B1B681A6ABB681A6075
:104130007B68002B04D0054B1B685A6A7B681A60A9
:1041400000BF1437BD4680BC704700BF8C180020EC
:1041500080B584B000AF786039607B68033323F0AA
:104160000303FB603B6823F00303BB60BA68FB6892
:104170009A4205D840F2D4520A490B4800F0CAF8D6
:10418000BA68FB68D31A1A467968084802F0CAF977
:104190000346074A1360FFF773FF00BF1037BD46A1
:1041A00080BD00BF90DF0000B8BF0000A0BF0000CE
:1041B0008C18002080B584B000AF7860FFF76EFFE8
:1041C000F8600C4B1B687968184602F02DFAB8604D
:1041D000F868FFF777FF084B1B68002B04D0064BED
:1041E0001B687968B8689847BB6818461037BD46A1
:1041F00080BD00BF8C1800206018002080B584B0FE
:1042000000AF786039607B683A6802FB03F31846B8
:10421000FFF7D0FFF860FB68002B08D07B683A6896
:1042200002FB03F31A460021F868FFF72BF9FB683D
:1042300018461037BD4680BD80B584B000AF7860A9
:104240000C4B1B68002B03D00A4B1B6878689847FF
:104250007B68002B09D0FFF721FFF860786802F037
:1042600017FBF868FFF72EFF00E000BF1037BD46D0
:1042700080BD00BF6418002080B586B000AFF86034
:10428000B9607A60FFF70AFF78617A68B968F86800
:10429000FFF738FF7869FFF715FF00BF1837BD46F5
:1042A00080BD000080B483B000AF78607B68002BD5
:1042B00001D1002326E07B68DBB2002B05D07B68B0
:1042C000DBB2134AD35C01331CE07B6803F47F4309
:1042D000002B06D07B681B12DBB20D4AD35C09337E
:1042E00010E07B6803F47F03002B06D07B681B146F
:1042F000DBB2074AD35C113304E07B681B0E044A2F
:10430000D35C193318460C37BD4680BC704700BFDC
:1043100068DE000080B586B000AFF860B9607A60F2
:104320000023FB750C4B1B68002B0BD17B68BA6814
:10433000F9680A48FFF774FE00BFFB7DDBB2002B73
:10434000FBD005E0044B1B687A68B968F8689847A9
:1043500000BF1837BD4680BD90180020D0BF0000B8
:1043600080B483B000AF78607B687A685A607B68FD
:104370005A687B681A6000BF0C37BD4680BC704726
:1043800080B483B000AF786039607B685B683A685E
:104390001A607B685A683B685A607B683A685A6062
:1043A0003B687A681A6000BF0C37BD4680BC704716
:1043B00080B483B000AF78607B681B687A689A42EB
:1043C0000CBF01230023DBB218460C37BD4680BC6E
:1043D000704780B582B000AF78607B6814331846B0
:1043E000FFF7BEFF002318460837BD4680BD00001A
:1043F00080B586B000AFF860B9601346FB71B8684D
:1044000001F02EF8FB79002B02D0012B07D031E010
:10441000BB6814331946F868FFF7B2FF31E0FB6858
:104420001B687B6117E07B69143B3B61BB6893F8B9
:1044300035203B6993F835309A4209D23B6903F144
:104440001402BB68143319461046FFF799FF06E0C3
:104450007B691B687B617A69FB689A42E3D17A6960
:10446000FB689A420CD1BB6814331946F868FFF711
:1044700087FF05E0A42205490548FFF74BFF00E050
:1044800000BF002318461837BD4680BDCCDF0000B2
:1044900008C0000080B584B000AF78607B681B68FE
:1044A000143BFB60F86801F043F80023184610370E
:1044B000BD4680BD80B584B000AFF860B9607A6059
:1044C000FB70FB68002B05D140F22D1217491848EC
:1044D000FFF720FF7B68B3F5803F05D34FF4977259
:1044E00012491448FFF716FFFB78002B08D0FB7821
:1044F000012B05D040F22F120C490F48FFF70AFF9D
:10450000FB68BA680221184601F0B4F8FB68184647
:10451000FFF75FFF7B689AB2FB689A83FB68FA78C3
:104520005A72002318461037BD4680BDB4DF000024
:104530000CC000001CC0000030C0000080B588B076
:1045400000AF786039607B68002B05D14FF4F572BD
:1045500055495648FFF7DEFE7B68184601F0E6F93C
:104560000346022B05D040F2EB124F495048FFF7AB
:10457000D1FE504B1B68002B04D04E4B1B687A6851
:1045800010469847FBF784FEF8617B689B8B002BF5
:1045900009D07B689B8B013B9AB27B689A83F86950
:1045A000FBF77AFE71E03B68002B05D1F869FBF759
:1045B00073FE6FF0010372E0FBF76AFEB86102F070
:1045C00095FE0346002B09D037493B48FFF728FDED
:1045D00040F20B2234493948FFF79CFEFBF758FEA6
:1045E000786100F023FD0346002B09D12E493448A1
:1045F000FFF716FD40F20B222B493048FFF78AFEE9
:10460000FBF746FE386101F045FA0346002B09D05E
:1046100025492C48FFF704FD40F20B222249274888
:10462000FFF778FE3869FBF737FE7869FBF734FE51
:10463000B869FBF731FE00F0F9FCF860FB68002276
:104640001A637B6803F114007B685B7A1A46F96889
:10465000FFF7CEFE3B68002B0BDDFB684C333A4680
:104660000021184601F0D8FCFB684C33184601F0D5
:1046700073FBF869FBF710FE02F084FCFB681B6B10
:10468000002B02D0FB681B6B09E00F4B1B68002B53
:1046900004D00D4B1B687A681046984700231846D3
:1046A0002037BD4680BD00BFC0DF00000CC0000049
:1046B0006CC00000B81A002048C1000008C000000B
:1046C00074C10000E4C00000BC1A002080B584B0B2
:1046D00000AF78607B68002B05D14FF41972274931
:1046E0002748FFF717FE7B68184601F01FF90346BD
:1046F000022B05D040F2652220492248FFF70AFE2E
:10470000214B1B68002B04D01F4B1B687A68104696
:1047100098470023FB60FBF7BBFDB8607B68143350
:104720001846FFF745FE0346002B07D17B6814337C
:104730001846FFF7AFFE0123FB6012E07B689B8BFE
:104740004FF6FF72934206D07B689B8B01339AB27F
:104750007B689A8305E0B868FBF79EFD6FF0020363
:1047600008E0B868FBF798FDFB68012B01D102F067
:1047700009FC002318461037BD4680BDE0DF00006D
:104780000CC000006CC00000C01A002080B584B0CE
:1047900000AFF860B9601346FB71FB68002B05D1D0
:1047A00040F2EB2210491148FFF7B4FDFB68BA68EC
:1047B0000321184600F05EFFFB681846FFF709FE6C
:1047C000FB6801229A83FB6800221A62FB68FF22C1
:1047D0009A77FB680022DA77FB6801225A7200237D
:1047E00018461037BD4680BDF0DF0000ACC10000A8
:1047F00080B588B000AF78603960FBF749FDB861DB
:1048000002F074FD0346002B09D077497748FFF783
:1048100007FC40F2993274497548FFF77BFDFBF7BE
:1048200037FD786100F002FC0346002B09D16E4988
:104830007048FFF7F5FB40F299326B496C48FFF77F
:1048400069FDFBF725FD386101F024F90346002BD3
:1048500009D065496848FFF7E3FB40F299326249A5
:104860006348FFF757FD3869FBF716FD7869FBF7DA
:1048700013FDB869FBF710FD7B68002B05D14FF4E1
:10488000677259495D48FFF745FD7B68184601F09E
:104890004DF80346032B05D040F29D32524958484B
:1048A000FFF738FD00F0C2FBF860FBF7F1FCF861A0
:1048B000544B1B68002B04D0524B1B687A6810467F
:1048C0009847FB6800221A637B681B6AFA689A4261
:1048D00010D17B68DB7FFF2B06D07B68DB7F013349
:1048E000DAB27B68DA776DE0F869FBF7D5FC6FF038
:1048F000020374E07B689B8B002B1ED07B689B8B34
:10490000013B9AB27B689A837B68FA681A62FB68FB
:1049100093F835207B689A777B68DB7FFF2B06D086
:104920007B68DB7F0133DAB27B68DA774AE0F869CB
:10493000FBF7B2FC6FF0020351E03B68002B09D19A
:10494000FB686FF001021A63F869FBF7A5FC6FF0D2
:10495000010344E0FB6893F835207B681B6A93F8F9
:1049600035309A4207D27B68186AFB6835331A469D
:10497000022100F0F7FC7B6803F114007B685B7A8E
:104980001A46F968FFF734FD3B68002B0BDDFB6826
:104990004C333A460021184601F03EFBFB684C338D
:1049A000184601F0D9F9F869FBF776FC02F0EAFA4B
:1049B000FB681B6B002B02D0FB681B6B0FE0FBF747
:1049C00067FCF861F869FBF767FC0F4B1B68002B6D
:1049D00004D00D4B1B687A68104698470023184690
:1049E0002037BD4680BD00BF00E0000048C1000088
:1049F00008C0000074C10000E4C00000ACC10000A9
:104A0000C0C10000B81A0020BC1A002080B588B0D0
:104A100000AF78607B68002B05D140F249426349C2
:104A20006348FFF777FC7B68184600F07FFF03467A
:104A3000032B05D040F24A425C495E48FFF76AFC0E
:104A40000023FB61FBF724FCB86100F0EFFA03469A
:104A5000002B09D155495848FFF7E2FA40F24F427E
:104A600052495648FFF756FCFBF712FC786101F0FB
:104A700011F80346002B09D04C495148FFF7D0FAF2
:104A800040F24F4249494D48FFF744FC7869FBF733
:104A900003FCB869FBF700FC00F0C8FA3861FBF7CB
:104AA000F7FBF860474B1B68002B04D0454B1B6895
:104AB0007A68104698477B681B6A3A699A4209D01F
:104AC0003B694FF0FF321A63F868FBF7E5FB4FF0E4
:104AD000FF3367E07B68DB7F013BDAB27B68DA7724
:104AE0007B68DB7F002B54D17B689A7F7B681B6AD5
:104AF00093F835309A4207D07B68186A7B681E337A
:104B00001A46022100F02EFC7B6814331846FFF78A
:104B10004FFC0346002B23D17B685B69143B3B6150
:104B20007B683A691A623B6993F835207B689A770B
:104B30007B68DB7FFF2B0DD07B68DB7F0133DAB234
:104B40007B68DA777B6814331846FFF7A3FC0123F0
:104B5000FB611EE0F868FBF79FFB6FF0020321E0AA
:104B60007B689B8B4FF6FF7293420CD07B689B8BCC
:104B700001339AB27B689A837B6800221A627B6851
:104B8000FF229A7705E0F868FBF786FB6FF00203D7
:104B900008E0F868FBF780FBFB69012B01D102F00C
:104BA000F1F9002318462037BD4680BD10E0000013
:104BB000ACC10000C0C1000074C1000008C000000A
:104BC000E4C00000C01A002080B483B000AF786059
:104BD00039607B681B683A685A607B681A683B6872
:104BE0001A607B683A681A603B687A685A6000BF4E
:104BF0000C37BD4680BC704780B483B000AF78608E
:104C00007B681B687A6852685A607B685B687A6860
:104C100012681A607B687A685A607B685A687B6899
:104C20001A6000BF0C37BD4680BC704780B582B0AB
:104C300000AF78607B68143319460348FFF7C4FF60
:104C400000BF0837BD4680BD3400002080B584B069
:104C500000AF0023FB600D4BBB60BB681B68BA68EC
:104C60009A420ED0BB681B68143BFB60FBF710FB3D
:104C70007860FB6814331846FFF7BEFF7868FBF7CF
:104C80000BFBFB6818461037BD4680BD3400002082
:104C900080B584B000AFFFF7D9FFF860FB68002B48
:104CA0001ED0FB689B6FBB60F86800F021FE786047
:104CB0007B68012B02D1F86800F042FDBB68002B35
:104CC00002D0BB68F86898477B68002BE3D1FB688B
:104CD0009B6A1846FFF7B0FAF86800F0CBFDDAE7F8
:104CE00000BF00BF1037BD4680BD000080B584B056
:104CF00000AF78600023FB600CE0094AFB6852F8C3
:104D00002330BB60BB68002B01D0BB689847FB68B1
:104D10000133FB60FB68032BEFD9FFF7B9FFE9E72D
:104D2000941A002080B588B004AF0023FB6024E013
:104D30003B1DFA6815491846FFF71CF9FB68DB01B3
:104D4000134A9818FB681B02124A1344391D20228B
:104D500003921F2202924FF480720192009300236B
:104D60000D4A00F02BF9FB68DB01094A1344184691
:104D700000F066F9FB680133FB60FB68002BD7D0BD
:104D800000BF00BF1037BD4680BD00BFE8C40000B3
:104D90001419002094190020ED4C000080B483B059
:104DA00000AF78607B687A685A607B685A687B6875
:104DB0001A6000BF0C37BD4680BC704780B483B01A
:104DC00000AF78607B681B687A6852685A607B68BD
:104DD0005B687A6812681A607B687A685A607B68D8
:104DE0005A687B681A6000BF0C37BD4680BC7047AC
:104DF00080B582B000AF00F019F97860FBF748FA8F
:104E00003860786802F0F6F97B684C33184600F099
:104E10005BFF7B68042283F834207868FFF706FF85
:104E20003868FBF739FA02F0ADF800BF0837BD4625
:104E300080BD000080B584B000AF78607B68FB6007
:104E4000FB68002B04D1862219491A48FFF762FA41
:104E5000FB6893F8343003F00703022B04D0872259
:104E600013491548FFF756FAF86800F05FFD03464E
:104E7000012B04D088220E491048FFF74BFAFBF7AC
:104E800007FAB860FB686FF001021A63FB6814331D
:104E90001846FFF793FFF86802F042F9B868FBF78D
:104EA000FBF902F06FF800BF1037BD4680BD00BFB0
:104EB00024E00000F0C4000004C5000040C500006C
:104EC00080B586B002AFF860B9607A603B60FB687D
:104ED00014331846FFF762FFFB687A681A62FB68B2
:104EE0003A685A62FB68BA699A62FB68FA69DA62E0
:104EF000FB68986AFB68DB6A1A462321FEF7C2FA50
:104F0000FB68186AFB68596AFB689A6AFB68DB6A87
:104F1000043B1A44244B02F097FA0246FB68DA611C
:104F200097F820301F2B04D9BD2220492048FFF7D5
:104F3000F1F9FB6897F8202083F83520FB68002200
:104F40009A63FB680022DA63FB68002283F8402042
:104F5000FB687A6A5A64FB687A6A9A64FB68002282
:104F60001A63FB68002283F83420FB6800229A67EA
:104F7000FB680022DA67FB6803F14C00F968002344
:104F8000019300230093FB680A4A00F05FFE0A4B7E
:104F90001B68002B03D0084B1B68F8689847002358
:104FA00018461037BD4680BDF14D000034E00000CA
:104FB00084C50000354E0000AC1A002080B588B0D2
:104FC00004AFF860B9607A603B60FB68002B05D1E4
:104FD00040F2331212491348FFF79CF9BB69002BCA
:104FE00005D14FF49A720E490F48FFF793F9BA684A
:104FF0000121F86800F03EFB7B6A039397F82030AC
:105000000293FB690193BB6900933B687A68B968B6
:10501000F868FFF755FF034618461037BD4680BDB8
:1050200044E00000F0C40000A8C5000080B400AF58
:10503000024B1B681846BD4680BC7047741E00209A
:1050400080B582B000AF78607B68002B05D14FF44B
:10505000B3721C491C48FFF75DF97B6893F8343044
:1050600003F00703002B05D040F2671215491748DB
:10507000FFF750F9786800F059FC0346012B05D082
:105080004FF4B4720F491248FFF744F97B6893F864
:1050900035301A46012393401A467B689A637B6831
:1050A000022283F83420786800F042FAFFF7BEFF4E
:1050B0000346002B01D001F065FF00231846083796
:1050C000BD4680BD54E00000F0C40000C0C5000033
:1050D00040C5000080B584B000AF78607B68002BCD
:1050E00005D140F2911223492348FFF713F978685C
:1050F00000F01CFC0346012B05D04FF4C9721D497A
:105100001E48FFF707F9786800F0F2FB0346002B12
:1051100005D140F2931217491948FFF7FBF87B6855
:1051200093F8343003F00703042B01D100231CE073
:105130007B6893F8343003F00703002B02D07868C3
:1051400002F058F8FBF7A4F8F8607B684C33184677
:1051500000F0BAFD7B68042283F834207868FFF7FA
:1051600065FDF868FBF798F8002318461037BD4630
:1051700080BD00BF68E00000F0C4000040C5000032
:10518000F8C5000080B58AB004AFF860B9607A60F5
:105190003B60F968012000F001FB78617B69002B1E
:1051A00001D100231BE03868FFF704F838613B6940
:1051B000002B04D1786900F05DFB00230FE07B6ACF
:1051C000039397F8203002933B6801933B69009367
:1051D0007B68BA68F9687869FFF772FE7B691846E0
:1051E0001837BD4680BD000080B584B000AF786040
:1051F0007B68002B05D14FF4FC7223492348FFF74D
:1052000089F8786800F092FB0346012B05D040F244
:10521000F9121D491E48FFF77DF8786800F068FB19
:105220000346002B05D04FF4FD7217491948FFF7CC
:1052300071F87B6893F8343003F00703042B01D135
:1052400000231CE07B6893F8343003F00703002B45
:1052500002D0786801F0CEFFFBF71AF8F8607B689F
:105260004C33184600F030FD7B68042283F834206C
:105270007868FFF7DBFCF868FBF70EF800231846A8
:105280001037BD4680BD00BF7CE00000F0C40000C8
:1052900040C5000028C6000080B584B000AF78602B
:1052A000FFF7C4FEF860FB68002B05D140F24122F5
:1052B0001B491C48FFF72EF8F86800F037FB03463F
:1052C000012B05D040F2422215491748FFF722F87A
:1052D000FAF7DEFFB860FB6800221A63F86800F096
:1052E000BFF8FB684C333A1D0021184600F094FECD
:1052F000FB684C33184600F02FFDB868FAF7CCFF76
:1053000001F040FEFB681B6B13F1020F02D1FB683A
:1053100000221A63FB681B6B18461037BD4680BD20
:1053200090E00000F0C4000040C5000080B582B0ED
:1053300000AF78607868FFF7AFFF0346184608377C
:10534000BD4680BD80B584B000AF78607868FEF758
:1053500009F8F860F868FFF79FFF03461846103712
:10536000BD4680BD80B586B000AFF860B9607A6098
:10537000FB68002B05D140F2D72236493648FEF7AC
:10538000C9FFF86800F0D2FA0346012B05D04FF4AC
:10539000367230493148FEF7BDFFBB68022B09D099
:1053A000BB68022B4FDCBB68002B34D0BB68012BE1
:1053B00036D048E0FAF76CFF3861FB6893F8343078
:1053C00003F00703012B14D1F86801F013FF7B6889
:1053D0001A78FB6883F83520FB6893F835301A4655
:1053E000012393401A46FB689A63F86801F098FE1F
:1053F0000DE07B681A78FB6883F83520FB6893F82A
:1054000035301A46012393401A46FB689A6338697F
:10541000FAF742FF18E0F868FFF712FE034614E0BF
:10542000F86800F065FA0346012B04D1F868FFF72D
:1054300051FE786103E0F868FFF7D6FE786101F06D
:10544000A1FD7B6901E000BF002318461837BD4667
:1054500080BD00BFA0E00000F0C4000040C5000017
:1054600080B584B000AF78607B68002B05D140F236
:105470004E322A492A48FEF74DFF786800F056FA66
:105480000346012B05D040F24F3224492548FEF750
:1054900041FFFFF7CBFD02467B68934205D04FF4F6
:1054A00054721E492048FEF735FF7B6893F834306C
:1054B00003F00703FB60FB68012B05D0FB68032B9F
:1054C00002D04FF0FF3324E0FAF7E2FEB8607868CC
:1054D00001F090FE7B6893F834305BB223F0070351
:1054E0005BB243F002035BB2DAB27B6883F834202C
:1054F0007B684C33184600F045FDB868FAF7CCFEDF
:105500000A4B1B68002B03D0084B1B687868984730
:10551000002318461037BD4680BD00BFB4E0000030
:10552000F0C4000040C5000074C60000A41A0020AA
:1055300080B584B000AF78607B68002B05D140F265
:105540007A321D491D48FEF7E5FE786800F0EEF955
:105550000346012B05D040F27B3217491848FEF76D
:10556000D9FE7B6893F8343003F00703022B02D096
:105570004FF0FF331BE0FAF78BFEF8607B681433C3
:105580001846FFF71BFC7B684C33184600F0FAFC0A
:10559000786801F0C5FDF868FAF77EFE094B1B68D4
:1055A000002B03D0074B1B687868984700231846E8
:1055B0001037BD4680BD00BFC8E00000F0C4000049
:1055C00040C50000A81A002080B483B000AF786006
:1055D00039607B681B683A685A607B681A683B6868
:1055E0001A607B683A681A603B687A685A6000BF44
:1055F0000C37BD4680BC704780B483B000AF786084
:105600007B681B687A6852685A607B685B687A6856
:1056100012681A607B687A685A607B685A687B688F
:105620001A6000BF0C37BD4680BC704780B485B09F
:1056300000AF0346FB710023FB600FE00C4AFB68E0
:105640001B0113441B78FA799A4204D1FB681B01B1
:10565000074A134406E0FB680133FB60FB68092B33
:10566000ECDD002318461437BD4680BC704700BFF0
:105670003C00002080B588B000AFF8600B467A602F
:10568000FB720023FB61FB7A1846FFF7CFFFB8617E
:10569000BB69002B05D14FF4AB7225492548FEF7B5
:1056A00039FE01F0DFFDBB695B68FB6112E0FB695D
:1056B0000C3B3B613B69002B09D03A69FB689A427D
:1056C00005D14FF4B3721A491B48FEF723FEFB695C
:1056D0001B68FB61BB690433FA699A42E7D101F0A8
:1056E000D9FDFB7A63F07F03DAB2FB681A72FB68BC
:1056F000082279681846FDF7C7FF104B1B68002B7E
:1057000003D00E4B1B68F8689847FAF7C1FD786123
:10571000BB691A1DFB680C3319461046FFF754FF8E
:105720007869FAF7B9FD00BF2037BD4680BD00BFDC
:10573000DCE0000090C60000A8C60000B01A0020FF
:1057400080B584B000AF78607B68002B05D140F253
:1057500093120F490F48FEF7DDFD0F4B1B68002B1E
:1057600003D00D4B1B68786898477B6800221A723B
:10577000FAF78EFDF8607B680C331846FFF73CFFA4
:10578000F868FAF789FD00BF1037BD4680BD00BF3D
:10579000ECE00000B8C60000B41A002080B586B066
:1057A00000AF03463960FB71FAF772FD786100F0D3
:1057B00071F90346002B09D029492A48FEF730FC2D
:1057C00040F2B71226492848FEF7A4FD7869FAF797
:1057D00063FDFB791846FFF729FF38613B69002B11
:1057E00005D140F2BB121E492048FEF793FD3B69EC
:1057F000DB681846FEF7DEFCF860FB68002B01D181
:10580000002329E03B69DB681A460021F868FDF7B0
:1058100039FEFB68FA791A72FB6800225A72FB683B
:10582000082239681846FDF72FFF114B1B68002B23
:1058300003D00F4B1B68F8689847FAF729FDB8604A
:105840003B691A1DFB680C3319461046FFF7BCFE76
:10585000B868FAF721FDFB6818461837BD4680BDC9
:1058600000E10000CCC60000F4C6000090C60000B5
:10587000B01A002080B584B000AF78607B68002B40
:1058800005D140F2F51216491648FEF743FD7B6834
:105890001B7A5BB2002B05DA4FF4FB7210491248F9
:1058A000FEF738FD114B1B68002B03D00F4B1B6814
:1058B000786898477B6800221A72FAF7E9FCF8606A
:1058C0007B680C331846FFF797FEF868FAF7E4FC9C
:1058D0007868FEF7B1FC00BF1037BD4680BD00BF41
:1058E00014E10000B8C60000F8C60000B41A002099
:1058F00080B582B000AF78607B68002B05D14FF493
:10590000067208490848FEF705FD7B681B7A5BB202
:10591000002B01DA012300E0002318460837BD46BA
:1059200080BD00BF28E10000B8C6000080B582B08D
:1059300000AF78607B68002B05D140F22B2206492E
:105940000648FEF7E7FC7B681B7A03F07F03DBB2B7
:1059500018460837BD4680BD44E10000B8C60000C7
:1059600080B586B000AF78600B46FB7000233B61CA
:1059700000237B610023FB60FB781846FFF756FE8F
:10598000F8607B68002B02D0FB68002B01D100235C
:1059900035E0FAF77DFCB86000F07CF80346002B98
:1059A00009D019491948FEF73BFB40F24922164934
:1059B0001748FEF7AFFCB868FAF76EFC01F052FC2E
:1059C000FB685B687B6112E07B690C3B3B613B6978
:1059D000082279681846FDF788FE0346002B03D19C
:1059E00001F058FC3B690AE07B691B687B61FB683E
:1059F00004337A699A42E7D101F04CFC002318463F
:105A00001837BD4680BD00BF58E10000CCC600007D
:105A1000F4C6000080B582B000AFFAF739FC7860B8
:105A20000A4B1B78DBB20133DAB2084B1A70084B11
:105A30001B68002B02D0064B1B6898477868FAF762
:105A40002BFC00BF0837BD4680BD00BFCC1A00202C
:105A5000C41A002080B582B000AFFAF719FC786054
:105A60000A4B1B68002B02D0084B1B689847084B59
:105A70001B78DBB2013BDAB2054B1A707868FAF793
:105A80000BFC00BF0837BD4680BD00BFC81A002010
:105A9000CC1A002080B582B000AFFAF7F9FB78602D
:105AA000054B1B78FB707868FAF7F6FBFB78184615
:105AB0000837BD4680BD00BFCC1A002080B483B03B
:105AC00000AF78607B687A685A607B685A687B6848
:105AD0001A6000BF0C37BD4680BC704780B483B0ED
